{
  "transactions": [
    {
      "hash": "0xee6ba1dacc926360f63aa6a8920b077439585324b4e260e3f3ba5def83cc95d9",
      "transactionType": "CREATE",
      "contractName": "WETH",
      "contractAddress": "0x222aff0377468b4d88a44c70669aafd968fac6c4",
      "function": null,
      "arguments": [
        "WETH",
        "WETH"
      ],
      "transaction": {
        "from": "0xe2bc073e0d55274dba18a0e11463a5dfd16c5057",
        "gas": "0xbf958",
        "value": "0x0",
        "input": "0x608060405234801561001057600080fd5b50604051610b45380380610b4583398101604081905261002f91610120565b8181600361003d8382610212565b50600461004a8282610212565b5050600580546001600160a01b03191633179055506102d0915050565b634e487b7160e01b600052604160045260246000fd5b600082601f83011261008e57600080fd5b81516001600160401b038111156100a7576100a7610067565b604051601f8201601f19908116603f011681016001600160401b03811182821017156100d5576100d5610067565b6040528181528382016020018510156100ed57600080fd5b60005b8281101561010c576020818601810151838301820152016100f0565b506000918101602001919091529392505050565b6000806040838503121561013357600080fd5b82516001600160401b0381111561014957600080fd5b6101558582860161007d565b602085015190935090506001600160401b0381111561017357600080fd5b61017f8582860161007d565b9150509250929050565b600181811c9082168061019d57607f821691505b6020821081036101bd57634e487b7160e01b600052602260045260246000fd5b50919050565b601f82111561020d57806000526020600020601f840160051c810160208510156101ea5750805b601f840160051c820191505b8181101561020a57600081556001016101f6565b50505b505050565b81516001600160401b0381111561022b5761022b610067565b61023f816102398454610189565b846101c3565b6020601f821160018114610273576000831561025b5750848201515b600019600385901b1c1916600184901b17845561020a565b600084815260208120601f198516915b828110156102a35787850151825560209485019460019092019101610283565b50848210156102c15786840151600019600387901b60f8161c191681555b50505050600190811b01905550565b610866806102df6000396000f3fe608060405234801561001057600080fd5b50600436106100a95760003560e01c806340c10f191161007157806340c10f191461012357806370a08231146101385780638da5cb5b1461016157806395d89b411461018c578063a9059cbb14610194578063dd62ed3e146101a757600080fd5b806306fdde03146100ae578063095ea7b3146100cc57806318160ddd146100ef57806323b872dd14610101578063313ce56714610114575b600080fd5b6100b66101e0565b6040516100c391906106af565b60405180910390f35b6100df6100da366004610719565b610272565b60405190151581526020016100c3565b6002545b6040519081526020016100c3565b6100df61010f366004610743565b61028c565b604051601281526020016100c3565b610136610131366004610719565b6102b0565b005b6100f3610146366004610780565b6001600160a01b031660009081526020819052604090205490565b600554610174906001600160a01b031681565b6040516001600160a01b0390911681526020016100c3565b6100b6610369565b6100df6101a2366004610719565b610378565b6100f36101b53660046107a2565b6001600160a01b03918216600090815260016020908152604080832093909416825291909152205490565b6060600380546101ef906107d5565b80601f016020809104026020016040519081016040528092919081815260200182805461021b906107d5565b80156102685780601f1061023d57610100808354040283529160200191610268565b820191906000526020600020905b81548152906001019060200180831161024b57829003601f168201915b5050505050905090565b600033610280818585610386565b60019150505b92915050565b60003361029a858285610398565b6102a5858585610417565b506001949350505050565b6005546001600160a01b031633146103195760405162461bcd60e51b815260206004820152602160248201527f4f6e6c79206f776e65722063616e20696e766f6b652074686973206d6574686f6044820152601960fa1b60648201526084015b60405180910390fd5b6103238282610476565b604080516001600160a01b0384168152602081018390527f0f6798a560793a54c3bcfe86a93cde1e73087d944c0ea20544137d4121396885910160405180910390a15050565b6060600480546101ef906107d5565b600033610280818585610417565b61039383838360016104b0565b505050565b6001600160a01b03838116600090815260016020908152604080832093861683529290522054600019811015610411578181101561040257604051637dc7a0d960e11b81526001600160a01b03841660048201526024810182905260448101839052606401610310565b610411848484840360006104b0565b50505050565b6001600160a01b03831661044157604051634b637e8f60e11b815260006004820152602401610310565b6001600160a01b03821661046b5760405163ec442f0560e01b815260006004820152602401610310565b610393838383610585565b6001600160a01b0382166104a05760405163ec442f0560e01b815260006004820152602401610310565b6104ac60008383610585565b5050565b6001600160a01b0384166104da5760405163e602df0560e01b815260006004820152602401610310565b6001600160a01b03831661050457604051634a1406b160e11b815260006004820152602401610310565b6001600160a01b038085166000908152600160209081526040808320938716835292905220829055801561041157826001600160a01b0316846001600160a01b03167f8c5be1e5ebec7d5bd14f71427d1e84f3dd0314c0f7b2291e5b200ac8c7c3b9258460405161057791815260200190565b60405180910390a350505050565b6001600160a01b0383166105b05780600260008282546105a5919061080f565b909155506106229050565b6001600160a01b038316600090815260208190526040902054818110156106035760405163391434e360e21b81526001600160a01b03851660048201526024810182905260448101839052606401610310565b6001600160a01b03841660009081526020819052604090209082900390555b6001600160a01b03821661063e5760028054829003905561065d565b6001600160a01b03821660009081526020819052604090208054820190555b816001600160a01b0316836001600160a01b03167fddf252ad1be2c89b69c2b068fc378daa952ba7f163c4a11628f55a4df523b3ef836040516106a291815260200190565b60405180910390a3505050565b602081526000825180602084015260005b818110156106dd57602081860181015160408684010152016106c0565b506000604082850101526040601f19601f83011684010191505092915050565b80356001600160a01b038116811461071457600080fd5b919050565b6000806040838503121561072c57600080fd5b610735836106fd565b946020939093013593505050565b60008060006060848603121561075857600080fd5b610761846106fd565b925061076f602085016106fd565b929592945050506040919091013590565b60006020828403121561079257600080fd5b61079b826106fd565b9392505050565b600080604083850312156107b557600080fd5b6107be836106fd565b91506107cc602084016106fd565b90509250929050565b600181811c908216806107e957607f821691505b60208210810361080957634e487b7160e01b600052602260045260246000fd5b50919050565b8082018082111561028657634e487b7160e01b600052601160045260246000fdfea2646970667358221220cb2263c977f0570f2e258c67555a64dfc7c38dbfdc70a01ef5d875a6fcaa068364736f6c634300081c0033000000000000000000000000000000000000000000000000000000000000004000000000000000000000000000000000000000000000000000000000000000800000000000000000000000000000000000000000000000000000000000000004494452540000000000000000000000000000000000000000000000000000000000000000000000000000000000000000000000000000000000000000000000044944525400000000000000000000000000000000000000000000000000000000",
        "nonce": "0x1d28",
        "chainId": "0x66eee"
      },
      "additionalContracts": [],
      "isFixedGasLimit": false
    },
    {
      "hash": "0x7a493935f3f327f0e6706968c1cc1b13e9dd686ee0dac7f80557a6bee9e60167",
      "transactionType": "CREATE",
      "contractName": "USDC",
      "contractAddress": "0x56103a2d446d72321bbbf3029046eb97f6e04736",
      "function": null,
      "arguments": [
        "USDC",
        "USDC"
      ],
      "transaction": {
        "from": "0xe2bc073e0d55274dba18a0e11463a5dfd16c5057",
        "gas": "0xbf958",
        "value": "0x0",
        "input": "0x608060405234801561001057600080fd5b50604051610b45380380610b4583398101604081905261002f91610120565b8181600361003d8382610212565b50600461004a8282610212565b5050600580546001600160a01b03191633179055506102d0915050565b634e487b7160e01b600052604160045260246000fd5b600082601f83011261008e57600080fd5b81516001600160401b038111156100a7576100a7610067565b604051601f8201601f19908116603f011681016001600160401b03811182821017156100d5576100d5610067565b6040528181528382016020018510156100ed57600080fd5b60005b8281101561010c576020818601810151838301820152016100f0565b506000918101602001919091529392505050565b6000806040838503121561013357600080fd5b82516001600160401b0381111561014957600080fd5b6101558582860161007d565b602085015190935090506001600160401b0381111561017357600080fd5b61017f8582860161007d565b9150509250929050565b600181811c9082168061019d57607f821691505b6020821081036101bd57634e487b7160e01b600052602260045260246000fd5b50919050565b601f82111561020d57806000526020600020601f840160051c810160208510156101ea5750805b601f840160051c820191505b8181101561020a57600081556001016101f6565b50505b505050565b81516001600160401b0381111561022b5761022b610067565b61023f816102398454610189565b846101c3565b6020601f821160018114610273576000831561025b5750848201515b600019600385901b1c1916600184901b17845561020a565b600084815260208120601f198516915b828110156102a35787850151825560209485019460019092019101610283565b50848210156102c15786840151600019600387901b60f8161c191681555b50505050600190811b01905550565b610866806102df6000396000f3fe608060405234801561001057600080fd5b50600436106100a95760003560e01c806340c10f191161007157806340c10f191461012357806370a08231146101385780638da5cb5b1461016157806395d89b411461018c578063a9059cbb14610194578063dd62ed3e146101a757600080fd5b806306fdde03146100ae578063095ea7b3146100cc57806318160ddd146100ef57806323b872dd14610101578063313ce56714610114575b600080fd5b6100b66101e0565b6040516100c391906106af565b60405180910390f35b6100df6100da366004610719565b610272565b60405190151581526020016100c3565b6002545b6040519081526020016100c3565b6100df61010f366004610743565b61028c565b604051601281526020016100c3565b610136610131366004610719565b6102b0565b005b6100f3610146366004610780565b6001600160a01b031660009081526020819052604090205490565b600554610174906001600160a01b031681565b6040516001600160a01b0390911681526020016100c3565b6100b6610369565b6100df6101a2366004610719565b610378565b6100f36101b53660046107a2565b6001600160a01b03918216600090815260016020908152604080832093909416825291909152205490565b6060600380546101ef906107d5565b80601f016020809104026020016040519081016040528092919081815260200182805461021b906107d5565b80156102685780601f1061023d57610100808354040283529160200191610268565b820191906000526020600020905b81548152906001019060200180831161024b57829003601f168201915b5050505050905090565b600033610280818585610386565b60019150505b92915050565b60003361029a858285610398565b6102a5858585610417565b506001949350505050565b6005546001600160a01b031633146103195760405162461bcd60e51b815260206004820152602160248201527f4f6e6c79206f776e65722063616e20696e766f6b652074686973206d6574686f6044820152601960fa1b60648201526084015b60405180910390fd5b6103238282610476565b604080516001600160a01b0384168152602081018390527f0f6798a560793a54c3bcfe86a93cde1e73087d944c0ea20544137d4121396885910160405180910390a15050565b6060600480546101ef906107d5565b600033610280818585610417565b61039383838360016104b0565b505050565b6001600160a01b03838116600090815260016020908152604080832093861683529290522054600019811015610411578181101561040257604051637dc7a0d960e11b81526001600160a01b03841660048201526024810182905260448101839052606401610310565b610411848484840360006104b0565b50505050565b6001600160a01b03831661044157604051634b637e8f60e11b815260006004820152602401610310565b6001600160a01b03821661046b5760405163ec442f0560e01b815260006004820152602401610310565b610393838383610585565b6001600160a01b0382166104a05760405163ec442f0560e01b815260006004820152602401610310565b6104ac60008383610585565b5050565b6001600160a01b0384166104da5760405163e602df0560e01b815260006004820152602401610310565b6001600160a01b03831661050457604051634a1406b160e11b815260006004820152602401610310565b6001600160a01b038085166000908152600160209081526040808320938716835292905220829055801561041157826001600160a01b0316846001600160a01b03167f8c5be1e5ebec7d5bd14f71427d1e84f3dd0314c0f7b2291e5b200ac8c7c3b9258460405161057791815260200190565b60405180910390a350505050565b6001600160a01b0383166105b05780600260008282546105a5919061080f565b909155506106229050565b6001600160a01b038316600090815260208190526040902054818110156106035760405163391434e360e21b81526001600160a01b03851660048201526024810182905260448101839052606401610310565b6001600160a01b03841660009081526020819052604090209082900390555b6001600160a01b03821661063e5760028054829003905561065d565b6001600160a01b03821660009081526020819052604090208054820190555b816001600160a01b0316836001600160a01b03167fddf252ad1be2c89b69c2b068fc378daa952ba7f163c4a11628f55a4df523b3ef836040516106a291815260200190565b60405180910390a3505050565b602081526000825180602084015260005b818110156106dd57602081860181015160408684010152016106c0565b506000604082850101526040601f19601f83011684010191505092915050565b80356001600160a01b038116811461071457600080fd5b919050565b6000806040838503121561072c57600080fd5b610735836106fd565b946020939093013593505050565b60008060006060848603121561075857600080fd5b610761846106fd565b925061076f602085016106fd565b929592945050506040919091013590565b60006020828403121561079257600080fd5b61079b826106fd565b9392505050565b600080604083850312156107b557600080fd5b6107be836106fd565b91506107cc602084016106fd565b90509250929050565b600181811c908216806107e957607f821691505b60208210810361080957634e487b7160e01b600052602260045260246000fd5b50919050565b8082018082111561028657634e487b7160e01b600052601160045260246000fdfea2646970667358221220de084063a3fb547d9789e77ee1598fbaf174a1e360cdd77de008c145b2fa2d3d64736f6c634300081c0033000000000000000000000000000000000000000000000000000000000000004000000000000000000000000000000000000000000000000000000000000000800000000000000000000000000000000000000000000000000000000000000004555344540000000000000000000000000000000000000000000000000000000000000000000000000000000000000000000000000000000000000000000000045553445400000000000000000000000000000000000000000000000000000000",
        "nonce": "0x1d29",
        "chainId": "0x66eee"
      },
      "additionalContracts": [],
      "isFixedGasLimit": false
    },
    {
      "hash": "0x6473d885f7b1be4d5eda2c8a989f00dd649cc260ca7041bf86bb03ee61cac693",
      "transactionType": "CALL",
      "contractName": "WETH",
      "contractAddress": "0x222aff0377468b4d88a44c70669aafd968fac6c4",
      "function": "mint(address,uint256)",
      "arguments": [
        "0xe2Bc073E0d55274DBa18A0E11463A5DfD16c5057",
        "1000000000000000000000000000"
      ],
      "transaction": {
        "from": "0xe2bc073e0d55274dba18a0e11463a5dfd16c5057",
        "to": "0x222aff0377468b4d88a44c70669aafd968fac6c4",
        "gas": "0x6ee0",
        "value": "0x0",
        "input": "0x40c10f19000000000000000000000000e2bc073e0d55274dba18a0e11463a5dfd16c50570000000000000000000000000000000000000000033b2e3c9fd0803ce8000000",
        "nonce": "0x1d2a",
        "chainId": "0x66eee"
      },
      "additionalContracts": [],
      "isFixedGasLimit": false
    },
    {
      "hash": "0xa4d989b3bad22546bf2f56fc022d7a0fa8f148676b75d5015fc458cbe39020a0",
      "transactionType": "CALL",
      "contractName": "USDC",
      "contractAddress": "0x56103a2d446d72321bbbf3029046eb97f6e04736",
      "function": "mint(address,uint256)",
      "arguments": [
        "0xe2Bc073E0d55274DBa18A0E11463A5DfD16c5057",
        "1000000000000000000000000000"
      ],
      "transaction": {
        "from": "0xe2bc073e0d55274dba18a0e11463a5dfd16c5057",
        "to": "0x56103a2d446d72321bbbf3029046eb97f6e04736",
        "gas": "0x6ee0",
        "value": "0x0",
        "input": "0x40c10f19000000000000000000000000e2bc073e0d55274dba18a0e11463a5dfd16c50570000000000000000000000000000000000000000033b2e3c9fd0803ce8000000",
        "nonce": "0x1d2b",
        "chainId": "0x66eee"
      },
      "additionalContracts": [],
      "isFixedGasLimit": false
    },
    {
      "hash": "0x4be6d2562ac1ef4aa83e902636abefbb749b094f030d4613b715286496d3ba97",
      "transactionType": "CREATE",
      "contractName": "Faucet",
      "contractAddress": "0x62ba28fc85dba80b1858e5b37134991ce90ae5a8",
      "function": null,
      "arguments": null,
      "transaction": {
        "from": "0xe2bc073e0d55274dba18a0e11463a5dfd16c5057",
        "gas": "0xbb0b1",
        "value": "0x0",
        "input": "0x608060405260006002556000600355348015601957600080fd5b50600080546001600160a01b0319163317905561091a8061003b6000396000f3fe608060405234801561001057600080fd5b50600436106100f55760003560e01c80637e36320b11610097578063ad64d06811610066578063ad64d068146101cc578063c8a6e9c3146101df578063d48bfca7146101e7578063fd645079146101fa57600080fd5b80637e36320b1461017c5780637f2e06e3146101855780638da5cb5b146101985780639c281430146101c357600080fd5b8063338b5dea116100d3578063338b5dea1461012e578063394f6181146101415780636438377e146101615780636c9230db1461017657600080fd5b8063140e7563146100fa578063218e4a151461010f5780632db4cd8b14610126575b600080fd5b61010d610108366004610790565b61020d565b005b6003545b6040519081526020015b60405180910390f35b61011361027c565b61010d61013c3660046107c5565b61029f565b61011361014f3660046107ef565b60046020526000908152604090205481565b33600090815260046020526040902054610113565b42610113565b61011360035481565b61010d610193366004610811565b610498565b6000546101ab906001600160a01b031681565b6040516001600160a01b03909116815260200161011d565b61011360025481565b6101ab6101da366004610790565b6105fa565b600154610113565b61010d6101f53660046107ef565b610624565b61010d610208366004610790565b610731565b6000546001600160a01b031633146102405760405162461bcd60e51b815260040161023790610844565b60405180910390fd5b60028190556040518181527fc2f11a8db3f5cc9fa21d683ff3a0cc4152a4ee8a9b29ad567bd781fc02d0b5e3906020015b60405180910390a150565b60035433600090815260046020526040812054909161029a91610885565b905090565b600081116102ef5760405162461bcd60e51b815260206004820152601d60248201527f416d6f756e74206d7573742062652067726561746572207468616e20300000006044820152606401610237565b6000805b6001548110156103405760018181548110610310576103106108ac565b6000918252602090912001546001600160a01b03908116908516036103385760019150610340565b6001016102f3565b508061038e5760405162461bcd60e51b815260206004820152601d60248201527f546f6b656e206e6f7420737570706f72746564206279206661756365740000006044820152606401610237565b6040516323b872dd60e01b8152336004820152306024820152604481018390526000906001600160a01b038516906323b872dd906064016020604051808303816000875af11580156103e4573d6000803e3d6000fd5b505050506040513d601f19601f8201168201806040525081019061040891906108c2565b9050806104495760405162461bcd60e51b815260206004820152600f60248201526e151c985b9cd9995c8819985a5b1959608a1b6044820152606401610237565b604080513381526001600160a01b03861660208201529081018490527f4b3f81827ede20c81afbf1bb77b954afcdcae24d391d99042310cb1d9210dd579060600160405180910390a150505050565b60025460405163a9059cbb60e01b81526001600160a01b038481166004830152602482019290925260009183169063a9059cbb906044016020604051808303816000875af11580156104ee573d6000803e3d6000fd5b505050506040513d601f19601f8201168201806040525081019061051291906108c2565b90508061057c5760405162461bcd60e51b815260206004820152603260248201527f546865207472616e736665722070726f6365737320646f65736e2774206578656044820152716375746564207375636365737366756c6c7960701b6064820152608401610237565b6003546105899042610885565b33600081815260046020526040908190209290925590517f93eefe371f8974939e82597a88552b3500c8caf593cb436dfffac7e3f95acaa1916105ed91869086906001600160a01b0393841681529183166020830152909116604082015260600190565b60405180910390a1505050565b6001818154811061060a57600080fd5b6000918252602090912001546001600160a01b0316905081565b60005b6001548110156106b35760018181548110610644576106446108ac565b6000918252602090912001546001600160a01b03908116908316036106ab5760405162461bcd60e51b815260206004820152601b60248201527f54686520746f6b656e2068617320616c726561647920657869737400000000006044820152606401610237565b600101610627565b506001805480820182556000919091527fb10e2d527612073b26eecdfd717e6a320cf44b4afac2b0732d9fcbe2b7fa0cf60180546001600160a01b0319166001600160a01b0383169081179091556040519081527fe473c74f34be27c1464d6624f14a0d7fd4e301cbfa29c3eba425d378c8a7ebe090602001610271565b6000546001600160a01b0316331461075b5760405162461bcd60e51b815260040161023790610844565b60038190556040518181527f853d44c603076a8a9813ec1708c300b754cbe958fa0bbd601409371a0d815db290602001610271565b6000602082840312156107a257600080fd5b5035919050565b80356001600160a01b03811681146107c057600080fd5b919050565b600080604083850312156107d857600080fd5b6107e1836107a9565b946020939093013593505050565b60006020828403121561080157600080fd5b61080a826107a9565b9392505050565b6000806040838503121561082457600080fd5b61082d836107a9565b915061083b602084016107a9565b90509250929050565b60208082526021908201527f4f6e6c79206f776e65722063616e20696e766f6b652074686973206d6574686f6040820152601960fa1b606082015260800190565b808201808211156108a657634e487b7160e01b600052601160045260246000fd5b92915050565b634e487b7160e01b600052603260045260246000fd5b6000602082840312156108d457600080fd5b8151801515811461080a57600080fdfea264697066735822122099ce8cc1e0a8294e232003d59ecca578dde63827d366bf92b810cb527301c77a64736f6c634300081c0033",
        "nonce": "0x1d2c",
        "chainId": "0x66eee"
      },
      "additionalContracts": [],
      "isFixedGasLimit": false
    },
    {
      "hash": "0x0d1d5dbebf42ac2462e97ab753724a977bbfec9923546b59b29fae492273b77a",
      "transactionType": "CALL",
      "contractName": "Faucet",
      "contractAddress": "0x62ba28fc85dba80b1858e5b37134991ce90ae5a8",
      "function": "addToken(address)",
      "arguments": [
        "0x222afF0377468B4d88a44C70669AaFD968faC6c4"
      ],
      "transaction": {
        "from": "0xe2bc073e0d55274dba18a0e11463a5dfd16c5057",
        "to": "0x62ba28fc85dba80b1858e5b37134991ce90ae5a8",
        "gas": "0x6dad",
        "value": "0x0",
        "input": "0xd48bfca7000000000000000000000000222aff0377468b4d88a44c70669aafd968fac6c4",
        "nonce": "0x1d2d",
        "chainId": "0x66eee"
      },
      "additionalContracts": [],
      "isFixedGasLimit": false
    },
    {
      "hash": "0xc5c4f86d990d66b04e772b131c498f8671b7bea507e72029237fd39ac3eb078d",
      "transactionType": "CALL",
      "contractName": "Faucet",
      "contractAddress": "0x62ba28fc85dba80b1858e5b37134991ce90ae5a8",
      "function": "addToken(address)",
      "arguments": [
        "0x56103A2D446d72321BBbf3029046EB97f6e04736"
      ],
      "transaction": {
        "from": "0xe2bc073e0d55274dba18a0e11463a5dfd16c5057",
        "to": "0x62ba28fc85dba80b1858e5b37134991ce90ae5a8",
        "gas": "0x6dad",
        "value": "0x0",
        "input": "0xd48bfca700000000000000000000000056103a2d446d72321bbbf3029046eb97f6e04736",
        "nonce": "0x1d2e",
        "chainId": "0x66eee"
      },
      "additionalContracts": [],
      "isFixedGasLimit": false
    },
    {
      "hash": "0x94e91150f38c87353c371a3c62e0de4f4cdb61703b0009d9ef4b0079bcf992db",
      "transactionType": "CALL",
      "contractName": "WETH",
      "contractAddress": "0x222aff0377468b4d88a44c70669aafd968fac6c4",
      "function": "mint(address,uint256)",
      "arguments": [
        "0x62BA28fc85Dba80b1858E5B37134991CE90ae5A8",
        "100000000000000000000"
      ],
      "transaction": {
        "from": "0xe2bc073e0d55274dba18a0e11463a5dfd16c5057",
        "to": "0x222aff0377468b4d88a44c70669aafd968fac6c4",
        "gas": "0x6ec1",
        "value": "0x0",
        "input": "0x40c10f1900000000000000000000000062ba28fc85dba80b1858e5b37134991ce90ae5a80000000000000000000000000000000000000000000000056bc75e2d63100000",
        "nonce": "0x1d2f",
        "chainId": "0x66eee"
      },
      "additionalContracts": [],
      "isFixedGasLimit": false
    },
    {
      "hash": "0x9e38931fbd942492f21f5d0b89d1c0436e4540cefb80c259b4bfd30c50511947",
      "transactionType": "CALL",
      "contractName": "USDC",
      "contractAddress": "0x56103a2d446d72321bbbf3029046eb97f6e04736",
      "function": "mint(address,uint256)",
      "arguments": [
        "0x62BA28fc85Dba80b1858E5B37134991CE90ae5A8",
        "100000000000000000000"
      ],
      "transaction": {
        "from": "0xe2bc073e0d55274dba18a0e11463a5dfd16c5057",
        "to": "0x56103a2d446d72321bbbf3029046eb97f6e04736",
        "gas": "0x6ec1",
        "value": "0x0",
        "input": "0x40c10f1900000000000000000000000062ba28fc85dba80b1858e5b37134991ce90ae5a80000000000000000000000000000000000000000000000056bc75e2d63100000",
        "nonce": "0x1d30",
        "chainId": "0x66eee"
      },
      "additionalContracts": [],
      "isFixedGasLimit": false
    },
    {
      "hash": "0xd368b31c6cb3612a728ffd43b85fedf74bde5714279d10dbf8bde6a84a263619",
      "transactionType": "CALL",
      "contractName": "Faucet",
      "contractAddress": "0x62ba28fc85dba80b1858e5b37134991ce90ae5a8",
      "function": "updateFaucetAmount(uint256)",
      "arguments": [
        "1000000000000"
      ],
      "transaction": {
        "from": "0xe2bc073e0d55274dba18a0e11463a5dfd16c5057",
        "to": "0x62ba28fc85dba80b1858e5b37134991ce90ae5a8",
        "gas": "0x6cb3",
        "value": "0x0",
        "input": "0x140e7563000000000000000000000000000000000000000000000000000000e8d4a51000",
        "nonce": "0x1d31",
        "chainId": "0x66eee"
      },
      "additionalContracts": [],
      "isFixedGasLimit": false
    },
    {
      "hash": "0x4d0901b47f213823aa4f703a1ed14466bedc39a6185e5cac7dc3d626ba9ade73",
      "transactionType": "CALL",
      "contractName": "Faucet",
      "contractAddress": "0x62ba28fc85dba80b1858e5b37134991ce90ae5a8",
      "function": "updateFaucetCooldown(uint256)",
      "arguments": [
        "1"
      ],
      "transaction": {
        "from": "0xe2bc073e0d55274dba18a0e11463a5dfd16c5057",
        "to": "0x62ba28fc85dba80b1858e5b37134991ce90ae5a8",
        "gas": "0x6c85",
        "value": "0x0",
        "input": "0xfd6450790000000000000000000000000000000000000000000000000000000000000001",
        "nonce": "0x1d32",
        "chainId": "0x66eee"
      },
      "additionalContracts": [],
      "isFixedGasLimit": false
    },
    {
      "hash": "0x8bef7105ee7884e428716d3f8fef7948ca0a73f48649d6e6f1563f21c3baae22",
      "transactionType": "CALL",
      "contractName": "WETH",
      "contractAddress": "0x222aff0377468b4d88a44c70669aafd968fac6c4",
      "function": "mint(address,uint256)",
      "arguments": [
        "0x5b73C5498c1E3b4dbA84de0F1833c4a029d90519",
        "1000000000000000000000"
      ],
      "transaction": {
        "from": "0xe2bc073e0d55274dba18a0e11463a5dfd16c5057",
        "to": "0x222aff0377468b4d88a44c70669aafd968fac6c4",
        "gas": "0x6ec1",
        "value": "0x0",
        "input": "0x40c10f190000000000000000000000005b73c5498c1e3b4dba84de0f1833c4a029d9051900000000000000000000000000000000000000000000003635c9adc5dea00000",
        "nonce": "0x1d33",
        "chainId": "0x66eee"
      },
      "additionalContracts": [],
      "isFixedGasLimit": false
    },
    {
      "hash": "0xbaefb0c43c595f5e5d8415db468d9691a35a5aefb0e67225c3e1683abb21bb9b",
      "transactionType": "CALL",
      "contractName": "USDC",
      "contractAddress": "0x56103a2d446d72321bbbf3029046eb97f6e04736",
      "function": "mint(address,uint256)",
      "arguments": [
        "0x5b73C5498c1E3b4dbA84de0F1833c4a029d90519",
        "1000000000000000000000"
      ],
      "transaction": {
        "from": "0xe2bc073e0d55274dba18a0e11463a5dfd16c5057",
        "to": "0x56103a2d446d72321bbbf3029046eb97f6e04736",
        "gas": "0x6ec1",
        "value": "0x0",
        "input": "0x40c10f190000000000000000000000005b73c5498c1e3b4dba84de0f1833c4a029d9051900000000000000000000000000000000000000000000003635c9adc5dea00000",
        "nonce": "0x1d34",
        "chainId": "0x66eee"
      },
      "additionalContracts": [],
      "isFixedGasLimit": false
    },
    {
      "hash": "0x6e7cfacb75e3543d3b4b6918091021120919625b5df3516ebbeac361448b1e50",
      "transactionType": "CALL",
      "contractName": "WETH",
      "contractAddress": "0x222aff0377468b4d88a44c70669aafd968fac6c4",
      "function": "approve(address,uint256)",
      "arguments": [
        "0x62BA28fc85Dba80b1858E5B37134991CE90ae5A8",
        "1000000000000000000000"
      ],
      "transaction": {
        "from": "0xe2bc073e0d55274dba18a0e11463a5dfd16c5057",
        "to": "0x222aff0377468b4d88a44c70669aafd968fac6c4",
        "gas": "0x6ec1",
        "value": "0x0",
        "input": "0x095ea7b300000000000000000000000062ba28fc85dba80b1858e5b37134991ce90ae5a800000000000000000000000000000000000000000000003635c9adc5dea00000",
        "nonce": "0x1d35",
        "chainId": "0x66eee"
      },
      "additionalContracts": [],
      "isFixedGasLimit": false
    },
    {
      "hash": "0x4ef47dc6b14d3247b23fe96afd190af57c0bc633d335b0a8ffe0369a6db5e84c",
      "transactionType": "CALL",
      "contractName": "USDC",
      "contractAddress": "0x56103a2d446d72321bbbf3029046eb97f6e04736",
      "function": "approve(address,uint256)",
      "arguments": [
        "0x62BA28fc85Dba80b1858E5B37134991CE90ae5A8",
        "1000000000000000000000"
      ],
      "transaction": {
        "from": "0xe2bc073e0d55274dba18a0e11463a5dfd16c5057",
        "to": "0x56103a2d446d72321bbbf3029046eb97f6e04736",
        "gas": "0x6ec1",
        "value": "0x0",
        "input": "0x095ea7b300000000000000000000000062ba28fc85dba80b1858e5b37134991ce90ae5a800000000000000000000000000000000000000000000003635c9adc5dea00000",
        "nonce": "0x1d36",
        "chainId": "0x66eee"
      },
      "additionalContracts": [],
      "isFixedGasLimit": false
    },
    {
      "hash": "0xaef7dfa47351bd3491943b7f65dad00de9e4ad309c1f06bf75e195d9d0e93fe4",
      "transactionType": "CALL",
      "contractName": "Faucet",
      "contractAddress": "0x62ba28fc85dba80b1858e5b37134991ce90ae5a8",
      "function": "depositToken(address,uint256)",
      "arguments": [
        "0x222afF0377468B4d88a44C70669AaFD968faC6c4",
        "1000000000000000000000"
      ],
      "transaction": {
        "from": "0xe2bc073e0d55274dba18a0e11463a5dfd16c5057",
        "to": "0x62ba28fc85dba80b1858e5b37134991ce90ae5a8",
        "gas": "0x6ec1",
        "value": "0x0",
        "input": "0x338b5dea000000000000000000000000222aff0377468b4d88a44c70669aafd968fac6c400000000000000000000000000000000000000000000003635c9adc5dea00000",
        "nonce": "0x1d37",
        "chainId": "0x66eee"
      },
      "additionalContracts": [],
      "isFixedGasLimit": false
    },
    {
      "hash": "0x5e22460b3a551b29f14f143afe0bbc526bf2275e294cff7d48e62fcb5960a947",
      "transactionType": "CALL",
      "contractName": "Faucet",
      "contractAddress": "0x62ba28fc85dba80b1858e5b37134991ce90ae5a8",
      "function": "depositToken(address,uint256)",
      "arguments": [
        "0x56103A2D446d72321BBbf3029046EB97f6e04736",
        "1000000000000000000000"
      ],
      "transaction": {
        "from": "0xe2bc073e0d55274dba18a0e11463a5dfd16c5057",
        "to": "0x62ba28fc85dba80b1858e5b37134991ce90ae5a8",
        "gas": "0x6ec1",
        "value": "0x0",
        "input": "0x338b5dea00000000000000000000000056103a2d446d72321bbbf3029046eb97f6e0473600000000000000000000000000000000000000000000003635c9adc5dea00000",
        "nonce": "0x1d38",
        "chainId": "0x66eee"
      },
      "additionalContracts": [],
      "isFixedGasLimit": false
    }
  ],
  "receipts": [
    {
      "status": "0x1",
      "cumulativeGasUsed": "0x91ede",
      "logs": [],
      "logsBloom": "0x00000000000000000000000000000000000000000000000000000000000000000000000000000000000000000000000000000000000000000000000000000000000000000000000000000000000000000000000000000000000000000000000000000000000000000000000000000000000000000000000000000000000000000000000000000000000000000000000000000000000000000000000000000000000000000000000000000000000000000000000000000000000000000000000000000000000000000000000000000000000000000000000000000000000000000000000000000000000000000000000000000000000000000000000000000000",
      "type": "0x2",
      "transactionHash": "0xee6ba1dacc926360f63aa6a8920b077439585324b4e260e3f3ba5def83cc95d9",
      "transactionIndex": "0x1",
      "blockHash": "0x2d6a682cb84f8808c7ad3639f93a3164cb09593235c57466241e2a89e0cea160",
      "blockNumber": "0x75d50bc",
      "gasUsed": "0x91ede",
      "effectiveGasPrice": "0x5f5e100",
      "from": "0xe2bc073e0d55274dba18a0e11463a5dfd16c5057",
      "to": null,
      "contractAddress": "0x222aff0377468b4d88a44c70669aafd968fac6c4",
      "gasUsedForL1": "0x0",
      "l1BlockNumber": "0x757f84"
    },
    {
      "status": "0x1",
      "cumulativeGasUsed": "0xa9455",
      "logs": [],
      "logsBloom": "0x00000000000000000000000000000000000000000000000000000000000000000000000000000000000000000000000000000000000000000000000000000000000000000000000000000000000000000000000000000000000000000000000000000000000000000000000000000000000000000000000000000000000000000000000000000000000000000000000000000000000000000000000000000000000000000000000000000000000000000000000000000000000000000000000000000000000000000000000000000000000000000000000000000000000000000000000000000000000000000000000000000000000000000000000000000000",
      "type": "0x2",
      "transactionHash": "0x7a493935f3f327f0e6706968c1cc1b13e9dd686ee0dac7f80557a6bee9e60167",
      "transactionIndex": "0x2",
      "blockHash": "0x8be2c559d1d7b83f16bfe265f0b651c7aa29871ce0ca9e1d3f177462267100e1",
      "blockNumber": "0x75d50c2",
      "gasUsed": "0x91ede",
      "effectiveGasPrice": "0x5f5e100",
      "from": "0xe2bc073e0d55274dba18a0e11463a5dfd16c5057",
      "to": null,
      "contractAddress": "0x56103a2d446d72321bbbf3029046eb97f6e04736",
      "gasUsedForL1": "0x0",
      "l1BlockNumber": "0x757f84"
    },
    {
      "status": "0x1",
      "cumulativeGasUsed": "0x11907",
      "logs": [
        {
          "address": "0x222aff0377468b4d88a44c70669aafd968fac6c4",
          "topics": [
            "0xddf252ad1be2c89b69c2b068fc378daa952ba7f163c4a11628f55a4df523b3ef",
            "0x0000000000000000000000000000000000000000000000000000000000000000",
            "0x000000000000000000000000e2bc073e0d55274dba18a0e11463a5dfd16c5057"
          ],
          "data": "0x0000000000000000000000000000000000000000033b2e3c9fd0803ce8000000",
          "blockHash": "0xdce9e56af94fda49df967c85b45609ba9e29445f706b9241209a8c6850d0a69f",
          "blockNumber": "0x75d50c7",
          "transactionHash": "0x6473d885f7b1be4d5eda2c8a989f00dd649cc260ca7041bf86bb03ee61cac693",
          "transactionIndex": "0x1",
          "logIndex": "0x0",
          "removed": false
        },
        {
          "address": "0x222aff0377468b4d88a44c70669aafd968fac6c4",
          "topics": [
            "0x0f6798a560793a54c3bcfe86a93cde1e73087d944c0ea20544137d4121396885"
          ],
          "data": "0x000000000000000000000000e2bc073e0d55274dba18a0e11463a5dfd16c50570000000000000000000000000000000000000000033b2e3c9fd0803ce8000000",
          "blockHash": "0xdce9e56af94fda49df967c85b45609ba9e29445f706b9241209a8c6850d0a69f",
          "blockNumber": "0x75d50c7",
          "transactionHash": "0x6473d885f7b1be4d5eda2c8a989f00dd649cc260ca7041bf86bb03ee61cac693",
          "transactionIndex": "0x1",
          "logIndex": "0x1",
          "removed": false
        }
      ],
      "logsBloom": "0x00000000000000000000000000000000000000000000000000000000000000000000000000000000000000000000000000000000000000000000000000000000000000000020000010000008000000001000000000000000000000000000000000000000020000000000000004000800000000000000400000000010000000000000000000000000000000000000000000000000000000000000000000000000000080000010100000000000000000000000000000000000000000000000000000000002000000000000000000000000000000000000000000000000000020000000000800000000000000000000000000000000000000000000000000000000",
      "type": "0x2",
      "transactionHash": "0x6473d885f7b1be4d5eda2c8a989f00dd649cc260ca7041bf86bb03ee61cac693",
      "transactionIndex": "0x1",
      "blockHash": "0xdce9e56af94fda49df967c85b45609ba9e29445f706b9241209a8c6850d0a69f",
      "blockNumber": "0x75d50c7",
      "gasUsed": "0x11907",
      "effectiveGasPrice": "0x5f5e100",
      "from": "0xe2bc073e0d55274dba18a0e11463a5dfd16c5057",
      "to": "0x222aff0377468b4d88a44c70669aafd968fac6c4",
      "contractAddress": null,
      "gasUsedForL1": "0x0",
      "l1BlockNumber": "0x757f84"
    },
    {
      "status": "0x1",
      "cumulativeGasUsed": "0x11907",
      "logs": [
        {
          "address": "0x56103a2d446d72321bbbf3029046eb97f6e04736",
          "topics": [
            "0xddf252ad1be2c89b69c2b068fc378daa952ba7f163c4a11628f55a4df523b3ef",
            "0x0000000000000000000000000000000000000000000000000000000000000000",
            "0x000000000000000000000000e2bc073e0d55274dba18a0e11463a5dfd16c5057"
          ],
          "data": "0x0000000000000000000000000000000000000000033b2e3c9fd0803ce8000000",
          "blockHash": "0x474f5294439a2c61df97cd19ea9d15229e90809e60f744dc6301de9aa73174f5",
          "blockNumber": "0x75d50ce",
          "transactionHash": "0xa4d989b3bad22546bf2f56fc022d7a0fa8f148676b75d5015fc458cbe39020a0",
          "transactionIndex": "0x1",
          "logIndex": "0x0",
          "removed": false
        },
        {
          "address": "0x56103a2d446d72321bbbf3029046eb97f6e04736",
          "topics": [
            "0x0f6798a560793a54c3bcfe86a93cde1e73087d944c0ea20544137d4121396885"
          ],
          "data": "0x000000000000000000000000e2bc073e0d55274dba18a0e11463a5dfd16c50570000000000000000000000000000000000000000033b2e3c9fd0803ce8000000",
          "blockHash": "0x474f5294439a2c61df97cd19ea9d15229e90809e60f744dc6301de9aa73174f5",
          "blockNumber": "0x75d50ce",
          "transactionHash": "0xa4d989b3bad22546bf2f56fc022d7a0fa8f148676b75d5015fc458cbe39020a0",
          "transactionIndex": "0x1",
          "logIndex": "0x1",
          "removed": false
        }
      ],
      "logsBloom": "0x00000000000000000000000000000000000000000000000000000000000000000000000000000000000000000000000000000000000000000000000000000000000000000020000000000008000000001000000000000000000000000000000000000000020000000000000084000800000000000000400000000010000000000000000000000000000000000000000000000000000000000000000000000000000080800010004000000000000000000000000000000000000000000000000000000002000000000000000000000000000000000000000000000000000020000000000000000000000000000000000000000000000000000000000000000000",
      "type": "0x2",
      "transactionHash": "0xa4d989b3bad22546bf2f56fc022d7a0fa8f148676b75d5015fc458cbe39020a0",
      "transactionIndex": "0x1",
      "blockHash": "0x474f5294439a2c61df97cd19ea9d15229e90809e60f744dc6301de9aa73174f5",
      "blockNumber": "0x75d50ce",
      "gasUsed": "0x11907",
      "effectiveGasPrice": "0x5f5e100",
      "from": "0xe2bc073e0d55274dba18a0e11463a5dfd16c5057",
      "to": "0x56103a2d446d72321bbbf3029046eb97f6e04736",
      "contractAddress": null,
      "gasUsedForL1": "0x0",
      "l1BlockNumber": "0x757f84"
    },
    {
      "status": "0x1",
      "cumulativeGasUsed": "0x8e76c",
      "logs": [],
      "logsBloom": "0x00000000000000000000000000000000000000000000000000000000000000000000000000000000000000000000000000000000000000000000000000000000000000000000000000000000000000000000000000000000000000000000000000000000000000000000000000000000000000000000000000000000000000000000000000000000000000000000000000000000000000000000000000000000000000000000000000000000000000000000000000000000000000000000000000000000000000000000000000000000000000000000000000000000000000000000000000000000000000000000000000000000000000000000000000000000",
      "type": "0x2",
      "transactionHash": "0x4be6d2562ac1ef4aa83e902636abefbb749b094f030d4613b715286496d3ba97",
      "transactionIndex": "0x1",
      "blockHash": "0x301ca10aca6fa61770288eb1eee3f1983f69e8a19bb71cb2a9b83d4a70a21bfb",
      "blockNumber": "0x75d50d5",
      "gasUsed": "0x8e76c",
      "effectiveGasPrice": "0x5f5e100",
      "from": "0xe2bc073e0d55274dba18a0e11463a5dfd16c5057",
      "to": null,
      "contractAddress": "0x62ba28fc85dba80b1858e5b37134991ce90ae5a8",
      "gasUsedForL1": "0x0",
      "l1BlockNumber": "0x757f84"
    },
    {
      "status": "0x1",
      "cumulativeGasUsed": "0x35866",
      "logs": [
        {
          "address": "0x62ba28fc85dba80b1858e5b37134991ce90ae5a8",
          "topics": [
            "0xe473c74f34be27c1464d6624f14a0d7fd4e301cbfa29c3eba425d378c8a7ebe0"
          ],
          "data": "0x000000000000000000000000222aff0377468b4d88a44c70669aafd968fac6c4",
          "blockHash": "0xff4a6c55f7bae7d4baf926d0f3e685cce22f6779ec6812294190487d83d6c515",
          "blockNumber": "0x75d50da",
          "transactionHash": "0x0d1d5dbebf42ac2462e97ab753724a977bbfec9923546b59b29fae492273b77a",
          "transactionIndex": "0x3",
          "logIndex": "0x2",
          "removed": false
        }
      ],
      "logsBloom": "0x00000000000000000000000000000000000000000000000000000000000000000000000000000000000000000000000000000000000000000000000000000000000000000000000000000000000000000000000000000000000000000000000000000000000000000000100000000000000000000000000000000000000001000000000000000000000000000000000000000000000000000000000000000000000000000000000000000000000000000000000000000000000000000000000000000000000000000000000000000000010000000000000000000000000000000008000000000000008000000000000000080000000000000000000000000000",
      "type": "0x2",
      "transactionHash": "0x0d1d5dbebf42ac2462e97ab753724a977bbfec9923546b59b29fae492273b77a",
      "transactionIndex": "0x3",
      "blockHash": "0xff4a6c55f7bae7d4baf926d0f3e685cce22f6779ec6812294190487d83d6c515",
      "blockNumber": "0x75d50da",
      "gasUsed": "0x106e6",
      "effectiveGasPrice": "0x5f5e100",
      "from": "0xe2bc073e0d55274dba18a0e11463a5dfd16c5057",
      "to": "0x62ba28fc85dba80b1858e5b37134991ce90ae5a8",
      "contractAddress": null,
      "gasUsedForL1": "0x0",
      "l1BlockNumber": "0x757f84"
    },
    {
      "status": "0x1",
      "cumulativeGasUsed": "0x1360f",
      "logs": [
        {
          "address": "0x62ba28fc85dba80b1858e5b37134991ce90ae5a8",
          "topics": [
            "0xe473c74f34be27c1464d6624f14a0d7fd4e301cbfa29c3eba425d378c8a7ebe0"
          ],
          "data": "0x00000000000000000000000056103a2d446d72321bbbf3029046eb97f6e04736",
          "blockHash": "0x14ca4d366ad7fa0a8fcd450493c34115a5afa797bba16019669e49365109b093",
          "blockNumber": "0x75d50e0",
          "transactionHash": "0xc5c4f86d990d66b04e772b131c498f8671b7bea507e72029237fd39ac3eb078d",
          "transactionIndex": "0x2",
          "logIndex": "0x1",
          "removed": false
        }
      ],
      "logsBloom": "0x00000000000000000000000000000000000000000000000000000000000000000000000000000000000000000000000000000000000000000000000000000000000000000000000000000000000000000000000000000000000000000000000000000000000000000000100000000000000000000000000000000000000001000000000000000000000000000000000000000000000000000000000000000000000000000000000000000000000000000000000000000000000000000000000000000000000000000000000000000000010000000000000000000000000000000008000000000000008000000000000000080000000000000000000000000000",
      "type": "0x2",
      "transactionHash": "0xc5c4f86d990d66b04e772b131c498f8671b7bea507e72029237fd39ac3eb078d",
      "transactionIndex": "0x2",
      "blockHash": "0x14ca4d366ad7fa0a8fcd450493c34115a5afa797bba16019669e49365109b093",
      "blockNumber": "0x75d50e0",
      "gasUsed": "0xcdcc",
      "effectiveGasPrice": "0x5f5e100",
      "from": "0xe2bc073e0d55274dba18a0e11463a5dfd16c5057",
      "to": "0x62ba28fc85dba80b1858e5b37134991ce90ae5a8",
      "contractAddress": null,
      "gasUsedForL1": "0x0",
      "l1BlockNumber": "0x757f84"
    },
    {
      "status": "0x1",
      "cumulativeGasUsed": "0xd623",
      "logs": [
        {
          "address": "0x222aff0377468b4d88a44c70669aafd968fac6c4",
          "topics": [
            "0xddf252ad1be2c89b69c2b068fc378daa952ba7f163c4a11628f55a4df523b3ef",
            "0x0000000000000000000000000000000000000000000000000000000000000000",
            "0x00000000000000000000000062ba28fc85dba80b1858e5b37134991ce90ae5a8"
          ],
          "data": "0x0000000000000000000000000000000000000000000000056bc75e2d63100000",
          "blockHash": "0x7b5a5f685e21b30e1295c15cacbdf1d851d9ec9b13f4e393c8bf29fd1a1026fb",
          "blockNumber": "0x75d50e6",
          "transactionHash": "0x94e91150f38c87353c371a3c62e0de4f4cdb61703b0009d9ef4b0079bcf992db",
          "transactionIndex": "0x1",
          "logIndex": "0x0",
          "removed": false
        },
        {
          "address": "0x222aff0377468b4d88a44c70669aafd968fac6c4",
          "topics": [
            "0x0f6798a560793a54c3bcfe86a93cde1e73087d944c0ea20544137d4121396885"
          ],
          "data": "0x00000000000000000000000062ba28fc85dba80b1858e5b37134991ce90ae5a80000000000000000000000000000000000000000000000056bc75e2d63100000",
          "blockHash": "0x7b5a5f685e21b30e1295c15cacbdf1d851d9ec9b13f4e393c8bf29fd1a1026fb",
          "blockNumber": "0x75d50e6",
          "transactionHash": "0x94e91150f38c87353c371a3c62e0de4f4cdb61703b0009d9ef4b0079bcf992db",
          "transactionIndex": "0x1",
          "logIndex": "0x1",
          "removed": false
        }
      ],
      "logsBloom": "0x00000000000000000000000000000008000000000000000000000000000000000000000000000000000000000000000000000000000000000000001000000000000000000020000010000008000000000000000000000000000000000000000000000000020000000000000000000800000000000000400100000010000000000000000000000000000000000000000000000000000000000000000000000000000080000000100000000000000000000000000000000000000000000000000000000002000000000000000000000000000000000000000000000000000020000000000800000000000000000000000000000000000000000000000000000000",
      "type": "0x2",
      "transactionHash": "0x94e91150f38c87353c371a3c62e0de4f4cdb61703b0009d9ef4b0079bcf992db",
      "transactionIndex": "0x1",
      "blockHash": "0x7b5a5f685e21b30e1295c15cacbdf1d851d9ec9b13f4e393c8bf29fd1a1026fb",
      "blockNumber": "0x75d50e6",
      "gasUsed": "0xd623",
      "effectiveGasPrice": "0x5f5e100",
      "from": "0xe2bc073e0d55274dba18a0e11463a5dfd16c5057",
      "to": "0x222aff0377468b4d88a44c70669aafd968fac6c4",
      "contractAddress": null,
      "gasUsedForL1": "0x0",
      "l1BlockNumber": "0x757f84"
    },
    {
      "status": "0x1",
      "cumulativeGasUsed": "0xd623",
      "logs": [
        {
          "address": "0x56103a2d446d72321bbbf3029046eb97f6e04736",
          "topics": [
            "0xddf252ad1be2c89b69c2b068fc378daa952ba7f163c4a11628f55a4df523b3ef",
            "0x0000000000000000000000000000000000000000000000000000000000000000",
            "0x00000000000000000000000062ba28fc85dba80b1858e5b37134991ce90ae5a8"
          ],
          "data": "0x0000000000000000000000000000000000000000000000056bc75e2d63100000",
          "blockHash": "0x7321a85390229a0daaf0db4e675dd59cb03282959b931a341565ca2f8a69b5aa",
          "blockNumber": "0x75d50eb",
          "transactionHash": "0x9e38931fbd942492f21f5d0b89d1c0436e4540cefb80c259b4bfd30c50511947",
          "transactionIndex": "0x1",
          "logIndex": "0x0",
          "removed": false
        },
        {
          "address": "0x56103a2d446d72321bbbf3029046eb97f6e04736",
          "topics": [
            "0x0f6798a560793a54c3bcfe86a93cde1e73087d944c0ea20544137d4121396885"
          ],
          "data": "0x00000000000000000000000062ba28fc85dba80b1858e5b37134991ce90ae5a80000000000000000000000000000000000000000000000056bc75e2d63100000",
          "blockHash": "0x7321a85390229a0daaf0db4e675dd59cb03282959b931a341565ca2f8a69b5aa",
          "blockNumber": "0x75d50eb",
          "transactionHash": "0x9e38931fbd942492f21f5d0b89d1c0436e4540cefb80c259b4bfd30c50511947",
          "transactionIndex": "0x1",
          "logIndex": "0x1",
          "removed": false
        }
      ],
      "logsBloom": "0x00000000000000000000000000000008000000000000000000000000000000000000000000000000000000000000000000000000000000000000001000000000000000000020000000000008000000000000000000000000000000000000000000000000020000000000000080000800000000000000400100000010000000000000000000000000000000000000000000000000000000000000000000000000000080800000004000000000000000000000000000000000000000000000000000000002000000000000000000000000000000000000000000000000000020000000000000000000000000000000000000000000000000000000000000000000",
      "type": "0x2",
      "transactionHash": "0x9e38931fbd942492f21f5d0b89d1c0436e4540cefb80c259b4bfd30c50511947",
      "transactionIndex": "0x1",
      "blockHash": "0x7321a85390229a0daaf0db4e675dd59cb03282959b931a341565ca2f8a69b5aa",
      "blockNumber": "0x75d50eb",
      "gasUsed": "0xd623",
      "effectiveGasPrice": "0x5f5e100",
      "from": "0xe2bc073e0d55274dba18a0e11463a5dfd16c5057",
      "to": "0x56103a2d446d72321bbbf3029046eb97f6e04736",
      "contractAddress": null,
      "gasUsedForL1": "0x0",
      "l1BlockNumber": "0x757f84"
    },
    {
      "status": "0x1",
      "cumulativeGasUsed": "0x16f5f",
      "logs": [
        {
          "address": "0x62ba28fc85dba80b1858e5b37134991ce90ae5a8",
          "topics": [
            "0xc2f11a8db3f5cc9fa21d683ff3a0cc4152a4ee8a9b29ad567bd781fc02d0b5e3"
          ],
          "data": "0x000000000000000000000000000000000000000000000000000000e8d4a51000",
          "blockHash": "0x1e690833f4b9e33f9dec840be19d8332b2182909ceb1196e07a9f88bb2773b52",
          "blockNumber": "0x75d50f1",
          "transactionHash": "0xd368b31c6cb3612a728ffd43b85fedf74bde5714279d10dbf8bde6a84a263619",
          "transactionIndex": "0x2",
          "logIndex": "0x1",
          "removed": false
        }
      ],
      "logsBloom": "0x00000000000000000000000001000000000000000000000000000000000000000000000000000000000000000000000000000000000000000000000000000000000000000000000000000000000000000000000000000000000000000000000000000000000000000000100000000000000000000000000000000000000001000000000010000000000000000000000000000000000000000000000000000000000000000000000000000000000000000000000000000000000000000000000000000000000000000000000000000000000000000000000000000000000000000000000000000000000000000000000000080800000000000000000000000000",
      "type": "0x2",
      "transactionHash": "0xd368b31c6cb3612a728ffd43b85fedf74bde5714279d10dbf8bde6a84a263619",
      "transactionIndex": "0x2",
      "blockHash": "0x1e690833f4b9e33f9dec840be19d8332b2182909ceb1196e07a9f88bb2773b52",
      "blockNumber": "0x75d50f1",
      "gasUsed": "0xb6ca",
      "effectiveGasPrice": "0x5f5e100",
      "from": "0xe2bc073e0d55274dba18a0e11463a5dfd16c5057",
      "to": "0x62ba28fc85dba80b1858e5b37134991ce90ae5a8",
      "contractAddress": null,
      "gasUsedForL1": "0x0",
      "l1BlockNumber": "0x757f84"
    },
    {
      "status": "0x1",
      "cumulativeGasUsed": "0xb6f1",
      "logs": [
        {
          "address": "0x62ba28fc85dba80b1858e5b37134991ce90ae5a8",
          "topics": [
            "0x853d44c603076a8a9813ec1708c300b754cbe958fa0bbd601409371a0d815db2"
          ],
          "data": "0x0000000000000000000000000000000000000000000000000000000000000001",
          "blockHash": "0x8a4cf41fa8a506124d0b5c920f9a833b9f7f806b8fe17ef1d761d887f5b590c5",
          "blockNumber": "0x75d50f6",
          "transactionHash": "0x4d0901b47f213823aa4f703a1ed14466bedc39a6185e5cac7dc3d626ba9ade73",
          "transactionIndex": "0x1",
          "logIndex": "0x0",
          "removed": false
        }
      ],
      "logsBloom": "0x00000000000000100000000000000000000000000000000000000000000000000000000000000000000000000000000000000000000000000000000000000000000000000000000000000000000000000000000000000000000000000000000000000000000000000000100000000000000000000000000000400000000001000000000000000000000000000000000000000000000000000000000000000000000000000000000000000000000000000000000000000000000000000000000000000000000000000000000000000000000000000000000000000000000000000000000000000000000000000000000000880000000000000000000000000000",
      "type": "0x2",
      "transactionHash": "0x4d0901b47f213823aa4f703a1ed14466bedc39a6185e5cac7dc3d626ba9ade73",
      "transactionIndex": "0x1",
      "blockHash": "0x8a4cf41fa8a506124d0b5c920f9a833b9f7f806b8fe17ef1d761d887f5b590c5",
      "blockNumber": "0x75d50f6",
      "gasUsed": "0xb6f1",
      "effectiveGasPrice": "0x5f5e100",
      "from": "0xe2bc073e0d55274dba18a0e11463a5dfd16c5057",
      "to": "0x62ba28fc85dba80b1858e5b37134991ce90ae5a8",
      "contractAddress": null,
      "gasUsedForL1": "0x0",
      "l1BlockNumber": "0x757f85"
    },
    {
      "status": "0x1",
      "cumulativeGasUsed": "0x242ae",
      "logs": [
        {
          "address": "0x222aff0377468b4d88a44c70669aafd968fac6c4",
          "topics": [
            "0xddf252ad1be2c89b69c2b068fc378daa952ba7f163c4a11628f55a4df523b3ef",
            "0x0000000000000000000000000000000000000000000000000000000000000000",
            "0x0000000000000000000000005b73c5498c1e3b4dba84de0f1833c4a029d90519"
          ],
          "data": "0x00000000000000000000000000000000000000000000003635c9adc5dea00000",
          "blockHash": "0x71d1887047c93add384c70d3f16821abbcf028b47549d78b7cddf25e213cb507",
          "blockNumber": "0x75d50fc",
          "transactionHash": "0x8bef7105ee7884e428716d3f8fef7948ca0a73f48649d6e6f1563f21c3baae22",
          "transactionIndex": "0x2",
          "logIndex": "0x3",
          "removed": false
        },
        {
          "address": "0x222aff0377468b4d88a44c70669aafd968fac6c4",
          "topics": [
            "0x0f6798a560793a54c3bcfe86a93cde1e73087d944c0ea20544137d4121396885"
          ],
          "data": "0x0000000000000000000000005b73c5498c1e3b4dba84de0f1833c4a029d9051900000000000000000000000000000000000000000000003635c9adc5dea00000",
          "blockHash": "0x71d1887047c93add384c70d3f16821abbcf028b47549d78b7cddf25e213cb507",
          "blockNumber": "0x75d50fc",
          "transactionHash": "0x8bef7105ee7884e428716d3f8fef7948ca0a73f48649d6e6f1563f21c3baae22",
          "transactionIndex": "0x2",
          "logIndex": "0x4",
          "removed": false
        }
      ],
      "logsBloom": "0x00000000000000000000000000000000000000000000000000000000000000000000000000000000000000000000000000000000000000000000000000000000000000000020000010000008000000000000000000000000000000000000000000000000020000000000000000000800008000000000400000000010000000000000000000000000000000000000000000000000000000000000000000000000000080000000100000000002000000000000000000000000000000000000000000000002000000000000000000000000000000000000000000000000000020000000000800000000000000000000000000000000000000000000000000000200",
      "type": "0x2",
      "transactionHash": "0x8bef7105ee7884e428716d3f8fef7948ca0a73f48649d6e6f1563f21c3baae22",
      "transactionIndex": "0x2",
      "blockHash": "0x71d1887047c93add384c70d3f16821abbcf028b47549d78b7cddf25e213cb507",
      "blockNumber": "0x75d50fc",
      "gasUsed": "0xd623",
      "effectiveGasPrice": "0x5f5e100",
      "from": "0xe2bc073e0d55274dba18a0e11463a5dfd16c5057",
      "to": "0x222aff0377468b4d88a44c70669aafd968fac6c4",
      "contractAddress": null,
      "gasUsedForL1": "0x0",
      "l1BlockNumber": "0x757f85"
    },
    {
      "status": "0x1",
      "cumulativeGasUsed": "0xd623",
      "logs": [
        {
          "address": "0x56103a2d446d72321bbbf3029046eb97f6e04736",
          "topics": [
            "0xddf252ad1be2c89b69c2b068fc378daa952ba7f163c4a11628f55a4df523b3ef",
            "0x0000000000000000000000000000000000000000000000000000000000000000",
            "0x0000000000000000000000005b73c5498c1e3b4dba84de0f1833c4a029d90519"
          ],
          "data": "0x00000000000000000000000000000000000000000000003635c9adc5dea00000",
          "blockHash": "0x164aaae31b3768a779e7c5b96c20acf50a8868bb8e6d83df296d915c80a86655",
          "blockNumber": "0x75d5101",
          "transactionHash": "0xbaefb0c43c595f5e5d8415db468d9691a35a5aefb0e67225c3e1683abb21bb9b",
          "transactionIndex": "0x1",
          "logIndex": "0x0",
          "removed": false
        },
        {
          "address": "0x56103a2d446d72321bbbf3029046eb97f6e04736",
          "topics": [
            "0x0f6798a560793a54c3bcfe86a93cde1e73087d944c0ea20544137d4121396885"
          ],
          "data": "0x0000000000000000000000005b73c5498c1e3b4dba84de0f1833c4a029d9051900000000000000000000000000000000000000000000003635c9adc5dea00000",
          "blockHash": "0x164aaae31b3768a779e7c5b96c20acf50a8868bb8e6d83df296d915c80a86655",
          "blockNumber": "0x75d5101",
          "transactionHash": "0xbaefb0c43c595f5e5d8415db468d9691a35a5aefb0e67225c3e1683abb21bb9b",
          "transactionIndex": "0x1",
          "logIndex": "0x1",
          "removed": false
        }
      ],
      "logsBloom": "0x00000000000000000000000000000000000000000000000000000000000000000000000000000000000000000000000000000000000000000000000000000000000000000020000000000008000000000000000000000000000000000000000000000000020000000000000080000800008000000000400000000010000000000000000000000000000000000000000000000000000000000000000000000000000080800000004000000002000000000000000000000000000000000000000000000002000000000000000000000000000000000000000000000000000020000000000000000000000000000000000000000000000000000000000000000200",
      "type": "0x2",
      "transactionHash": "0xbaefb0c43c595f5e5d8415db468d9691a35a5aefb0e67225c3e1683abb21bb9b",
      "transactionIndex": "0x1",
      "blockHash": "0x164aaae31b3768a779e7c5b96c20acf50a8868bb8e6d83df296d915c80a86655",
      "blockNumber": "0x75d5101",
      "gasUsed": "0xd623",
      "effectiveGasPrice": "0x5f5e100",
      "from": "0xe2bc073e0d55274dba18a0e11463a5dfd16c5057",
      "to": "0x56103a2d446d72321bbbf3029046eb97f6e04736",
      "contractAddress": null,
      "gasUsedForL1": "0x0",
      "l1BlockNumber": "0x757f85"
    },
    {
      "status": "0x1",
      "cumulativeGasUsed": "0xb52f",
      "logs": [
        {
          "address": "0x222aff0377468b4d88a44c70669aafd968fac6c4",
          "topics": [
            "0x8c5be1e5ebec7d5bd14f71427d1e84f3dd0314c0f7b2291e5b200ac8c7c3b925",
            "0x000000000000000000000000e2bc073e0d55274dba18a0e11463a5dfd16c5057",
            "0x00000000000000000000000062ba28fc85dba80b1858e5b37134991ce90ae5a8"
          ],
          "data": "0x00000000000000000000000000000000000000000000003635c9adc5dea00000",
          "blockHash": "0xa3e901fd7e6d1f428d0484a732bbb30b0dca300f7cde1f0a2876ce46156a42aa",
          "blockNumber": "0x75d5107",
          "transactionHash": "0x6e7cfacb75e3543d3b4b6918091021120919625b5df3516ebbeac361448b1e50",
          "transactionIndex": "0x1",
          "logIndex": "0x0",
          "removed": false
        }
      ],
      "logsBloom": "0x00000000000000000000000000000008000000000000000000000000000000000000000000000000000000000000000000000000000000000000001000200000000000000000000010000000000000001000000000000000000000000000000000000000000000000000000004000000000000000000000100000000000000000000000000000000000000000000000000000000000000000000000000000000020000000010100000000000000000000000000000000000000000000000000000000000000000000000000000000000000000000000000000000000000000000010000800000000000000000000000000000000000000000000000000000000",
      "type": "0x2",
      "transactionHash": "0x6e7cfacb75e3543d3b4b6918091021120919625b5df3516ebbeac361448b1e50",
      "transactionIndex": "0x1",
      "blockHash": "0xa3e901fd7e6d1f428d0484a732bbb30b0dca300f7cde1f0a2876ce46156a42aa",
      "blockNumber": "0x75d5107",
      "gasUsed": "0xb52f",
      "effectiveGasPrice": "0x5f5e100",
      "from": "0xe2bc073e0d55274dba18a0e11463a5dfd16c5057",
      "to": "0x222aff0377468b4d88a44c70669aafd968fac6c4",
      "contractAddress": null,
      "gasUsedForL1": "0x0",
      "l1BlockNumber": "0x757f85"
    },
    {
      "status": "0x1",
      "cumulativeGasUsed": "0x1375b",
      "logs": [
        {
          "address": "0x56103a2d446d72321bbbf3029046eb97f6e04736",
          "topics": [
            "0x8c5be1e5ebec7d5bd14f71427d1e84f3dd0314c0f7b2291e5b200ac8c7c3b925",
            "0x000000000000000000000000e2bc073e0d55274dba18a0e11463a5dfd16c5057",
            "0x00000000000000000000000062ba28fc85dba80b1858e5b37134991ce90ae5a8"
          ],
          "data": "0x00000000000000000000000000000000000000000000003635c9adc5dea00000",
          "blockHash": "0x01958dd4a32a42e0f48166506307dea28d837e2861cd710e2e4a8bcb9eef0957",
          "blockNumber": "0x75d510d",
          "transactionHash": "0x4ef47dc6b14d3247b23fe96afd190af57c0bc633d335b0a8ffe0369a6db5e84c",
          "transactionIndex": "0x2",
          "logIndex": "0x1",
          "removed": false
        }
      ],
      "logsBloom": "0x00000000000000000000000000000008000000000000000000000000000000000000000000000000000000000000000000000000000000000000001000200000000000000000000000000000000000001000000000000000000000000000000000000000000000000000000084000000000000000000000100000000000000000000000000000000000000000000000000000000000000000000000000000000020000800010004000000000000000000000000000000000000000000000000000000000000000000000000000000000000000000000000000000000000000000010000000000000000000000000000000000000000000000000000000000000",
      "type": "0x2",
      "transactionHash": "0x4ef47dc6b14d3247b23fe96afd190af57c0bc633d335b0a8ffe0369a6db5e84c",
      "transactionIndex": "0x2",
      "blockHash": "0x01958dd4a32a42e0f48166506307dea28d837e2861cd710e2e4a8bcb9eef0957",
      "blockNumber": "0x75d510d",
      "gasUsed": "0xb52f",
      "effectiveGasPrice": "0x5f5e100",
      "from": "0xe2bc073e0d55274dba18a0e11463a5dfd16c5057",
      "to": "0x56103a2d446d72321bbbf3029046eb97f6e04736",
      "contractAddress": null,
      "gasUsedForL1": "0x0",
      "l1BlockNumber": "0x757f85"
    },
    {
      "status": "0x1",
      "cumulativeGasUsed": "0xaf55",
      "logs": [
        {
          "address": "0x222aff0377468b4d88a44c70669aafd968fac6c4",
          "topics": [
            "0xddf252ad1be2c89b69c2b068fc378daa952ba7f163c4a11628f55a4df523b3ef",
            "0x000000000000000000000000e2bc073e0d55274dba18a0e11463a5dfd16c5057",
            "0x00000000000000000000000062ba28fc85dba80b1858e5b37134991ce90ae5a8"
          ],
          "data": "0x00000000000000000000000000000000000000000000003635c9adc5dea00000",
          "blockHash": "0x7c9befd26a5b5df4270440d2027179e95f69bf872b60d1c5ea4e199847110d47",
          "blockNumber": "0x75d5113",
          "transactionHash": "0xaef7dfa47351bd3491943b7f65dad00de9e4ad309c1f06bf75e195d9d0e93fe4",
          "transactionIndex": "0x1",
          "logIndex": "0x0",
          "removed": false
        },
        {
          "address": "0x62ba28fc85dba80b1858e5b37134991ce90ae5a8",
          "topics": [
            "0x4b3f81827ede20c81afbf1bb77b954afcdcae24d391d99042310cb1d9210dd57"
          ],
          "data": "0x000000000000000000000000e2bc073e0d55274dba18a0e11463a5dfd16c5057000000000000000000000000222aff0377468b4d88a44c70669aafd968fac6c400000000000000000000000000000000000000000000003635c9adc5dea00000",
          "blockHash": "0x7c9befd26a5b5df4270440d2027179e95f69bf872b60d1c5ea4e199847110d47",
          "blockNumber": "0x75d5113",
          "transactionHash": "0xaef7dfa47351bd3491943b7f65dad00de9e4ad309c1f06bf75e195d9d0e93fe4",
          "transactionIndex": "0x1",
          "logIndex": "0x1",
          "removed": false
        }
      ],
      "logsBloom": "0x00000000000000000000000000000008000000000000000000000000000000000000000000000000000000000000000000000000000000010000001001000000000000000000000010000008000000001000000000000000000000000000080000000000000000000000100004000000000000000000000100000010000001000000000000000000000000000000000000000000000000000000000000000000000000000010100000000000000000000000000000000000000000000000000000000002000000000000000000000000000000000000000000000000000000000000000800000000000000000000000000080000000000000000000000000000",
      "type": "0x2",
      "transactionHash": "0xaef7dfa47351bd3491943b7f65dad00de9e4ad309c1f06bf75e195d9d0e93fe4",
      "transactionIndex": "0x1",
      "blockHash": "0x7c9befd26a5b5df4270440d2027179e95f69bf872b60d1c5ea4e199847110d47",
      "blockNumber": "0x75d5113",
      "gasUsed": "0xaf55",
      "effectiveGasPrice": "0x5f5e100",
      "from": "0xe2bc073e0d55274dba18a0e11463a5dfd16c5057",
      "to": "0x62ba28fc85dba80b1858e5b37134991ce90ae5a8",
      "contractAddress": null,
      "gasUsedForL1": "0x0",
      "l1BlockNumber": "0x757f85"
    },
    {
      "status": "0x1",
      "cumulativeGasUsed": "0x4de2a",
      "logs": [
        {
          "address": "0x56103a2d446d72321bbbf3029046eb97f6e04736",
          "topics": [
            "0xddf252ad1be2c89b69c2b068fc378daa952ba7f163c4a11628f55a4df523b3ef",
            "0x000000000000000000000000e2bc073e0d55274dba18a0e11463a5dfd16c5057",
            "0x00000000000000000000000062ba28fc85dba80b1858e5b37134991ce90ae5a8"
          ],
          "data": "0x00000000000000000000000000000000000000000000003635c9adc5dea00000",
          "blockHash": "0x96af7230769f0f65811207306bc3416457997df2595b157b749217e1ed4f89ed",
          "blockNumber": "0x75d5119",
          "transactionHash": "0x5e22460b3a551b29f14f143afe0bbc526bf2275e294cff7d48e62fcb5960a947",
          "transactionIndex": "0x2",
          "logIndex": "0x3",
          "removed": false
        },
        {
          "address": "0x62ba28fc85dba80b1858e5b37134991ce90ae5a8",
          "topics": [
            "0x4b3f81827ede20c81afbf1bb77b954afcdcae24d391d99042310cb1d9210dd57"
          ],
          "data": "0x000000000000000000000000e2bc073e0d55274dba18a0e11463a5dfd16c505700000000000000000000000056103a2d446d72321bbbf3029046eb97f6e0473600000000000000000000000000000000000000000000003635c9adc5dea00000",
          "blockHash": "0x96af7230769f0f65811207306bc3416457997df2595b157b749217e1ed4f89ed",
          "blockNumber": "0x75d5119",
          "transactionHash": "0x5e22460b3a551b29f14f143afe0bbc526bf2275e294cff7d48e62fcb5960a947",
          "transactionIndex": "0x2",
          "logIndex": "0x4",
          "removed": false
        }
      ],
      "logsBloom": "0x00000000000000000000000000000008000000000000000000000000000000000000000000000000000000000000000000000000000000010000001001000000000000000000000000000008000000001000000000000000000000000000080000000000000000000000100084000000000000000000000100000010000001000000000000000000000000000000000000000000000000000000000000000000000000800010004000000000000000000000000000000000000000000000000000000002000000000000000000000000000000000000000000000000000000000000000000000000000000000000000000080000000000000000000000000000",
      "type": "0x2",
      "transactionHash": "0x5e22460b3a551b29f14f143afe0bbc526bf2275e294cff7d48e62fcb5960a947",
      "transactionIndex": "0x2",
      "blockHash": "0x96af7230769f0f65811207306bc3416457997df2595b157b749217e1ed4f89ed",
      "blockNumber": "0x75d5119",
      "gasUsed": "0xb907",
      "effectiveGasPrice": "0x5f5e100",
      "from": "0xe2bc073e0d55274dba18a0e11463a5dfd16c5057",
      "to": "0x62ba28fc85dba80b1858e5b37134991ce90ae5a8",
      "contractAddress": null,
      "gasUsedForL1": "0x0",
      "l1BlockNumber": "0x757f85"
    }
  ],
  "libraries": [],
  "pending": [],
  "returns": {},
  "timestamp": 1739466632,
  "chain": 421614,
  "commit": "408565d"
}