{
  "transactions": [
    {
      "hash": "0x20f18f045fa8b2a67f6cce05b46c610dd8355c9a4d57a87872f5b89a142848de",
      "transactionType": "CALL",
      "contractName": null,
      "contractAddress": "0xc09bd3bc9ce776e05acd395ac1cef845bf19811c",
      "function": "updateFaucetAmount(uint256)",
      "arguments": [
        "1000000000000"
      ],
      "transaction": {
        "from": "0xe2bc073e0d55274dba18a0e11463a5dfd16c5057",
        "to": "0xc09bd3bc9ce776e05acd395ac1cef845bf19811c",
        "gas": "0x8f9e",
        "value": "0x0",
        "input": "0x140e7563000000000000000000000000000000000000000000000000000000e8d4a51000",
        "nonce": "0x1d1e",
        "chainId": "0x66eee"
      },
      "additionalContracts": [],
      "isFixedGasLimit": false
    },
    {
      "hash": "0xd49722495d0baf6afce56e607319473fbc672cff195b8a9fc2af33ba667f38f2",
      "transactionType": "CALL",
      "contractName": null,
      "contractAddress": "0xc09bd3bc9ce776e05acd395ac1cef845bf19811c",
      "function": "updateFaucetCooldown(uint256)",
      "arguments": [
        "60"
      ],
      "transaction": {
        "from": "0xe2bc073e0d55274dba18a0e11463a5dfd16c5057",
        "to": "0xc09bd3bc9ce776e05acd395ac1cef845bf19811c",
        "gas": "0x8fd1",
        "value": "0x0",
        "input": "0xfd645079000000000000000000000000000000000000000000000000000000000000003c",
        "nonce": "0x1d1f",
        "chainId": "0x66eee"
      },
      "additionalContracts": [],
      "isFixedGasLimit": false
    }
  ],
  "receipts": [
    {
      "status": "0x1",
      "cumulativeGasUsed": "0x6c24",
      "logs": [
        {
          "address": "0xc09bd3bc9ce776e05acd395ac1cef845bf19811c",
          "topics": [
            "0xc2f11a8db3f5cc9fa21d683ff3a0cc4152a4ee8a9b29ad567bd781fc02d0b5e3"
          ],
          "data": "0x000000000000000000000000000000000000000000000000000000e8d4a51000",
          "blockHash": "0x591644d19e3f51bfb0cfaf65adf62d925c99ea8f198c7c53be3939eed31ec75d",
          "blockNumber": "0x72a7d2a",
          "transactionHash": "0x20f18f045fa8b2a67f6cce05b46c610dd8355c9a4d57a87872f5b89a142848de",
          "transactionIndex": "0x1",
          "logIndex": "0x0",
          "removed": false
        }
      ],
      "logsBloom": "0x00000000000000000000000001000000000000000000000000000000000000000000000000000000000000000000000000000000000000000000000000000000000000000000000001200000000000000000000000000000000000000000000000000000000000000000000000000000000000000000000080000000000000000000000010000000000000000000000000000000000000000000000000000000000000000000000000000000000000000000000000000000000000000000000000000000000000000000000000000000000000000000000000000000000000000000000000000000000000000000000000000800000000000000000000000000",
      "type": "0x2",
      "transactionHash": "0x20f18f045fa8b2a67f6cce05b46c610dd8355c9a4d57a87872f5b89a142848de",
      "transactionIndex": "0x1",
      "blockHash": "0x591644d19e3f51bfb0cfaf65adf62d925c99ea8f198c7c53be3939eed31ec75d",
      "blockNumber": "0x72a7d2a",
      "gasUsed": "0x6c24",
      "effectiveGasPrice": "0x5f5e100",
      "blobGasUsed": "0x0",
      "from": "0xe2bc073e0d55274dba18a0e11463a5dfd16c5057",
      "to": "0xc09bd3bc9ce776e05acd395ac1cef845bf19811c",
      "contractAddress": null,
      "gasUsedForL1": "0x316",
      "l1BlockNumber": "0x744bb6"
    },
    {
      "status": "0x1",
      "cumulativeGasUsed": "0x6c4b",
      "logs": [
        {
          "address": "0xc09bd3bc9ce776e05acd395ac1cef845bf19811c",
          "topics": [
            "0x853d44c603076a8a9813ec1708c300b754cbe958fa0bbd601409371a0d815db2"
          ],
          "data": "0x000000000000000000000000000000000000000000000000000000000000003c",
          "blockHash": "0x3c513defa9e7df5d85d1956a9175036f777dd02d31e631b8126e0a11a51a9940",
          "blockNumber": "0x72a7d32",
          "transactionHash": "0xd49722495d0baf6afce56e607319473fbc672cff195b8a9fc2af33ba667f38f2",
          "transactionIndex": "0x1",
          "logIndex": "0x0",
          "removed": false
        }
      ],
      "logsBloom": "0x00000000000000100000000000000000000000000000000000000000000000000000000000000000000000000000000000000000000000000000000000000000000000000000000001200000000000000000000000000000000000000000000000000000000000000000000000000000000000000000000080400000000000000000000000000000000000000000000000000000000000000000000000000000000000000000000000000000000000000000000000000000000000000000000000000000000000000000000000000000000000000000000000000000000000000000000000000000000000000000000000800000000000000000000000000000",
      "type": "0x2",
      "transactionHash": "0xd49722495d0baf6afce56e607319473fbc672cff195b8a9fc2af33ba667f38f2",
      "transactionIndex": "0x1",
      "blockHash": "0x3c513defa9e7df5d85d1956a9175036f777dd02d31e631b8126e0a11a51a9940",
      "blockNumber": "0x72a7d32",
      "gasUsed": "0x6c4b",
      "effectiveGasPrice": "0x5f5e100",
      "blobGasUsed": "0x0",
      "from": "0xe2bc073e0d55274dba18a0e11463a5dfd16c5057",
      "to": "0xc09bd3bc9ce776e05acd395ac1cef845bf19811c",
      "contractAddress": null,
      "gasUsedForL1": "0x316",
      "l1BlockNumber": "0x744bb7"
    }
  ],
  "libraries": [],
  "pending": [],
  "returns": {},
  "timestamp": 1738466028,
  "chain": 421614,
  "commit": "8193be8"
}