{
  "transactions": [
    {
      "hash": "0x5803c184982970cdf363c46aa3ca1d1e41cc15f9a818b07a2bbefa425866d631",
      "transactionType": "CALL",
      "contractName": null,
      "contractAddress": "0x57cd7a092071fee63b8a7cdbc2a9ba24306b0d8b",
      "function": "updateFaucetAmount(uint256)",
      "arguments": [
        "1000000000000"
      ],
      "transaction": {
        "from": "0x1d1967ff22df0354c54dcd81bd295bf13c03024c",
        "to": "0x57cd7a092071fee63b8a7cdbc2a9ba24306b0d8b",
        "gas": "0xf40a",
        "value": "0x0",
        "input": "0x140e7563000000000000000000000000000000000000000000000000000000e8d4a51000",
        "nonce": "0x25b7",
        "chainId": "0x66eee"
      },
      "additionalContracts": [],
      "isFixedGasLimit": false
    },
    {
      "hash": "0x7e8e10d688993d209c0977fc4bbe3e58a565f4f31dc06b90d0f9de107472e861",
      "transactionType": "CALL",
      "contractName": null,
      "contractAddress": "0x57cd7a092071fee63b8a7cdbc2a9ba24306b0d8b",
      "function": "updateFaucetCooldown(uint256)",
      "arguments": [
        "60"
      ],
      "transaction": {
        "from": "0x1d1967ff22df0354c54dcd81bd295bf13c03024c",
        "to": "0x57cd7a092071fee63b8a7cdbc2a9ba24306b0d8b",
        "gas": "0xf43c",
        "value": "0x0",
        "input": "0xfd645079000000000000000000000000000000000000000000000000000000000000003c",
        "nonce": "0x25b8",
        "chainId": "0x66eee"
      },
      "additionalContracts": [],
      "isFixedGasLimit": false
    }
  ],
  "receipts": [
    {
      "status": "0x1",
      "cumulativeGasUsed": "0xb964",
      "logs": [
        {
          "address": "0x57cd7a092071fee63b8a7cdbc2a9ba24306b0d8b",
          "topics": [
            "0xc2f11a8db3f5cc9fa21d683ff3a0cc4152a4ee8a9b29ad567bd781fc02d0b5e3"
          ],
          "data": "0x000000000000000000000000000000000000000000000000000000e8d4a51000",
          "blockHash": "0x25fd4fb6d2b446f0b87027560456086002993aa786f332b8cd09cb31087243ed",
          "blockNumber": "0x717a299",
          "transactionHash": "0x5803c184982970cdf363c46aa3ca1d1e41cc15f9a818b07a2bbefa425866d631",
          "transactionIndex": "0x1",
          "logIndex": "0x0",
          "removed": false
        }
      ],
      "logsBloom": "0x00000000000000000000000001000000000000000000000000000000000000000000000000000000000000000000000000000000000000000000000000000000000000000000000000000000000000000000000000000000000000000000000000000000000000000000000000000000000000000000000000000000010000000000000010000000000000000000000000000000000000000000000000000000000000000000000000000000000000000000000000000000000000040000000000000000000000000000000000000000000000000000000000000000000000000000000000000000000000000000000100000800000000000000000000000000",
      "type": "0x2",
      "transactionHash": "0x5803c184982970cdf363c46aa3ca1d1e41cc15f9a818b07a2bbefa425866d631",
      "transactionIndex": "0x1",
      "blockHash": "0x25fd4fb6d2b446f0b87027560456086002993aa786f332b8cd09cb31087243ed",
      "blockNumber": "0x717a299",
      "gasUsed": "0xb964",
      "effectiveGasPrice": "0x5f5e100",
      "blobGasUsed": "0x0",
      "from": "0x1d1967ff22df0354c54dcd81bd295bf13c03024c",
      "to": "0x57cd7a092071fee63b8a7cdbc2a9ba24306b0d8b",
      "contractAddress": null,
      "gasUsedForL1": "0x29a",
      "l1BlockNumber": "0x73e33f"
    },
    {
      "status": "0x1",
      "cumulativeGasUsed": "0xb98b",
      "logs": [
        {
          "address": "0x57cd7a092071fee63b8a7cdbc2a9ba24306b0d8b",
          "topics": [
            "0x853d44c603076a8a9813ec1708c300b754cbe958fa0bbd601409371a0d815db2"
          ],
          "data": "0x000000000000000000000000000000000000000000000000000000000000003c",
          "blockHash": "0xa6be76363a08f0d20ee915c5b20d99a77d51778d731d5813e8802c5e37bf0fd1",
          "blockNumber": "0x717a29f",
          "transactionHash": "0x7e8e10d688993d209c0977fc4bbe3e58a565f4f31dc06b90d0f9de107472e861",
          "transactionIndex": "0x1",
          "logIndex": "0x0",
          "removed": false
        }
      ],
      "logsBloom": "0x00000000000000100000000000000000000000000000000000000000000000000000000000000000000000000000000000000000000000000000000000000000000000000000000000000000000000000000000000000000000000000000000000000000000000000000000000000000000000000000000000400000010000000000000000000000000000000000000000000000000000000000000000000000000000000000000000000000000000000000000000000000000000040000000000000000000000000000000000000000000000000000000000000000000000000000000000000000000000000000000100800000000000000000000000000000",
      "type": "0x2",
      "transactionHash": "0x7e8e10d688993d209c0977fc4bbe3e58a565f4f31dc06b90d0f9de107472e861",
      "transactionIndex": "0x1",
      "blockHash": "0xa6be76363a08f0d20ee915c5b20d99a77d51778d731d5813e8802c5e37bf0fd1",
      "blockNumber": "0x717a29f",
      "gasUsed": "0xb98b",
      "effectiveGasPrice": "0x5f5e100",
      "blobGasUsed": "0x0",
      "from": "0x1d1967ff22df0354c54dcd81bd295bf13c03024c",
      "to": "0x57cd7a092071fee63b8a7cdbc2a9ba24306b0d8b",
      "contractAddress": null,
      "gasUsedForL1": "0x29a",
      "l1BlockNumber": "0x73e33f"
    }
  ],
  "libraries": [],
  "pending": [],
  "returns": {},
  "timestamp": 1738140541,
  "chain": 421614,
  "commit": "8193be8"
}