{
  "transactions": [
    {
      "hash": "0xb7bf31bd5d9eaee1f6468a9d5f5b024ab130e6d635e2a81e5d91d1e3b9542031",
      "transactionType": "CALL",
      "contractName": null,
      "contractAddress": "0xc09bd3bc9ce776e05acd395ac1cef845bf19811c",
      "function": "updateFaucetAmount(uint256)",
      "arguments": [
        "1000000000000"
      ],
      "transaction": {
        "from": "0xe2bc073e0d55274dba18a0e11463a5dfd16c5057",
        "to": "0xc09bd3bc9ce776e05acd395ac1cef845bf19811c",
        "gas": "0xf3ac",
        "value": "0x0",
        "input": "0x140e7563000000000000000000000000000000000000000000000000000000e8d4a51000",
        "nonce": "0x1d1a",
        "chainId": "0x66eee"
      },
      "additionalContracts": [],
      "isFixedGasLimit": false
    },
    {
      "hash": "0x140d43192b6180cc662764b057da301148f4fa814effcb9fde57c865fa703cce",
      "transactionType": "CALL",
      "contractName": null,
      "contractAddress": "0xc09bd3bc9ce776e05acd395ac1cef845bf19811c",
      "function": "updateFaucetCooldown(uint256)",
      "arguments": [
        "60"
      ],
      "transaction": {
        "from": "0xe2bc073e0d55274dba18a0e11463a5dfd16c5057",
        "to": "0xc09bd3bc9ce776e05acd395ac1cef845bf19811c",
        "gas": "0xf3df",
        "value": "0x0",
        "input": "0xfd645079000000000000000000000000000000000000000000000000000000000000003c",
        "nonce": "0x1d1b",
        "chainId": "0x66eee"
      },
      "additionalContracts": [],
      "isFixedGasLimit": false
    }
  ],
  "receipts": [
    {
      "status": "0x1",
      "cumulativeGasUsed": "0xb92d",
      "logs": [
        {
          "address": "0xc09bd3bc9ce776e05acd395ac1cef845bf19811c",
          "topics": [
            "0xc2f11a8db3f5cc9fa21d683ff3a0cc4152a4ee8a9b29ad567bd781fc02d0b5e3"
          ],
          "data": "0x000000000000000000000000000000000000000000000000000000e8d4a51000",
          "blockHash": "0x3427ab06fc44b86c4b13afaf4e3c5782e103201e5c3f2e6ba7a738c6a98efcfe",
          "blockNumber": "0x72a6da2",
          "transactionHash": "0xb7bf31bd5d9eaee1f6468a9d5f5b024ab130e6d635e2a81e5d91d1e3b9542031",
          "transactionIndex": "0x1",
          "logIndex": "0x0",
          "removed": false
        }
      ],
      "logsBloom": "0x00000000000000000000000001000000000000000000000000000000000000000000000000000000000000000000000000000000000000000000000000000000000000000000000001200000000000000000000000000000000000000000000000000000000000000000000000000000000000000000000080000000000000000000000010000000000000000000000000000000000000000000000000000000000000000000000000000000000000000000000000000000000000000000000000000000000000000000000000000000000000000000000000000000000000000000000000000000000000000000000000000800000000000000000000000000",
      "type": "0x2",
      "transactionHash": "0xb7bf31bd5d9eaee1f6468a9d5f5b024ab130e6d635e2a81e5d91d1e3b9542031",
      "transactionIndex": "0x1",
      "blockHash": "0x3427ab06fc44b86c4b13afaf4e3c5782e103201e5c3f2e6ba7a738c6a98efcfe",
      "blockNumber": "0x72a6da2",
      "gasUsed": "0xb92d",
      "effectiveGasPrice": "0x5f5e100",
      "blobGasUsed": "0x0",
      "from": "0xe2bc073e0d55274dba18a0e11463a5dfd16c5057",
      "to": "0xc09bd3bc9ce776e05acd395ac1cef845bf19811c",
      "contractAddress": null,
      "gasUsedForL1": "0x263",
      "l1BlockNumber": "0x744b54"
    },
    {
      "status": "0x1",
      "cumulativeGasUsed": "0x1c616",
      "logs": [
        {
          "address": "0xc09bd3bc9ce776e05acd395ac1cef845bf19811c",
          "topics": [
            "0x853d44c603076a8a9813ec1708c300b754cbe958fa0bbd601409371a0d815db2"
          ],
          "data": "0x000000000000000000000000000000000000000000000000000000000000003c",
          "blockHash": "0xace533b659f0db60668fd22833f1e10fa869490166352fbdaa77495d2f7f4c10",
          "blockNumber": "0x72a6dc4",
          "transactionHash": "0x140d43192b6180cc662764b057da301148f4fa814effcb9fde57c865fa703cce",
          "transactionIndex": "0x2",
          "logIndex": "0x0",
          "removed": false
        }
      ],
      "logsBloom": "0x00000000000000100000000000000000000000000000000000000000000000000000000000000000000000000000000000000000000000000000000000000000000000000000000001200000000000000000000000000000000000000000000000000000000000000000000000000000000000000000000080400000000000000000000000000000000000000000000000000000000000000000000000000000000000000000000000000000000000000000000000000000000000000000000000000000000000000000000000000000000000000000000000000000000000000000000000000000000000000000000000800000000000000000000000000000",
      "type": "0x2",
      "transactionHash": "0x140d43192b6180cc662764b057da301148f4fa814effcb9fde57c865fa703cce",
      "transactionIndex": "0x2",
      "blockHash": "0xace533b659f0db60668fd22833f1e10fa869490166352fbdaa77495d2f7f4c10",
      "blockNumber": "0x72a6dc4",
      "gasUsed": "0xb954",
      "effectiveGasPrice": "0x5f5e100",
      "blobGasUsed": "0x0",
      "from": "0xe2bc073e0d55274dba18a0e11463a5dfd16c5057",
      "to": "0xc09bd3bc9ce776e05acd395ac1cef845bf19811c",
      "contractAddress": null,
      "gasUsedForL1": "0x263",
      "l1BlockNumber": "0x744b54"
    }
  ],
  "libraries": [],
  "pending": [],
  "returns": {},
  "timestamp": 1738464764,
  "chain": 421614,
  "commit": "8193be8"
}