{
  "transactions": [
    {
      "hash": "0xcb1539a8c736dd3647434f9805e0a5bc94d76c737aedf7388c256f51b5308ecc",
      "transactionType": "CREATE",
      "contractName": "WETH",
      "contractAddress": "0x4dd5c6b7e11be865b18e8af1ff5cd781e8ed36be",
      "function": null,
      "arguments": [
        "WETH",
        "WETH"
      ],
      "transaction": {
        "from": "0x1d1967ff22df0354c54dcd81bd295bf13c03024c",
        "gas": "0xbda57",
        "value": "0x0",
        "input": "0x608060405234801561001057600080fd5b50604051610b45380380610b4583398101604081905261002f91610120565b8181600361003d8382610212565b50600461004a8282610212565b5050600580546001600160a01b03191633179055506102d0915050565b634e487b7160e01b600052604160045260246000fd5b600082601f83011261008e57600080fd5b81516001600160401b038111156100a7576100a7610067565b604051601f8201601f19908116603f011681016001600160401b03811182821017156100d5576100d5610067565b6040528181528382016020018510156100ed57600080fd5b60005b8281101561010c576020818601810151838301820152016100f0565b506000918101602001919091529392505050565b6000806040838503121561013357600080fd5b82516001600160401b0381111561014957600080fd5b6101558582860161007d565b602085015190935090506001600160401b0381111561017357600080fd5b61017f8582860161007d565b9150509250929050565b600181811c9082168061019d57607f821691505b6020821081036101bd57634e487b7160e01b600052602260045260246000fd5b50919050565b601f82111561020d57806000526020600020601f840160051c810160208510156101ea5750805b601f840160051c820191505b8181101561020a57600081556001016101f6565b50505b505050565b81516001600160401b0381111561022b5761022b610067565b61023f816102398454610189565b846101c3565b6020601f821160018114610273576000831561025b5750848201515b600019600385901b1c1916600184901b17845561020a565b600084815260208120601f198516915b828110156102a35787850151825560209485019460019092019101610283565b50848210156102c15786840151600019600387901b60f8161c191681555b50505050600190811b01905550565b610866806102df6000396000f3fe608060405234801561001057600080fd5b50600436106100a95760003560e01c806340c10f191161007157806340c10f191461012357806370a08231146101385780638da5cb5b1461016157806395d89b411461018c578063a9059cbb14610194578063dd62ed3e146101a757600080fd5b806306fdde03146100ae578063095ea7b3146100cc57806318160ddd146100ef57806323b872dd14610101578063313ce56714610114575b600080fd5b6100b66101e0565b6040516100c391906106af565b60405180910390f35b6100df6100da366004610719565b610272565b60405190151581526020016100c3565b6002545b6040519081526020016100c3565b6100df61010f366004610743565b61028c565b604051601281526020016100c3565b610136610131366004610719565b6102b0565b005b6100f3610146366004610780565b6001600160a01b031660009081526020819052604090205490565b600554610174906001600160a01b031681565b6040516001600160a01b0390911681526020016100c3565b6100b6610369565b6100df6101a2366004610719565b610378565b6100f36101b53660046107a2565b6001600160a01b03918216600090815260016020908152604080832093909416825291909152205490565b6060600380546101ef906107d5565b80601f016020809104026020016040519081016040528092919081815260200182805461021b906107d5565b80156102685780601f1061023d57610100808354040283529160200191610268565b820191906000526020600020905b81548152906001019060200180831161024b57829003601f168201915b5050505050905090565b600033610280818585610386565b60019150505b92915050565b60003361029a858285610398565b6102a5858585610417565b506001949350505050565b6005546001600160a01b031633146103195760405162461bcd60e51b815260206004820152602160248201527f4f6e6c79206f776e65722063616e20696e766f6b652074686973206d6574686f6044820152601960fa1b60648201526084015b60405180910390fd5b6103238282610476565b604080516001600160a01b0384168152602081018390527f0f6798a560793a54c3bcfe86a93cde1e73087d944c0ea20544137d4121396885910160405180910390a15050565b6060600480546101ef906107d5565b600033610280818585610417565b61039383838360016104b0565b505050565b6001600160a01b03838116600090815260016020908152604080832093861683529290522054600019811015610411578181101561040257604051637dc7a0d960e11b81526001600160a01b03841660048201526024810182905260448101839052606401610310565b610411848484840360006104b0565b50505050565b6001600160a01b03831661044157604051634b637e8f60e11b815260006004820152602401610310565b6001600160a01b03821661046b5760405163ec442f0560e01b815260006004820152602401610310565b610393838383610585565b6001600160a01b0382166104a05760405163ec442f0560e01b815260006004820152602401610310565b6104ac60008383610585565b5050565b6001600160a01b0384166104da5760405163e602df0560e01b815260006004820152602401610310565b6001600160a01b03831661050457604051634a1406b160e11b815260006004820152602401610310565b6001600160a01b038085166000908152600160209081526040808320938716835292905220829055801561041157826001600160a01b0316846001600160a01b03167f8c5be1e5ebec7d5bd14f71427d1e84f3dd0314c0f7b2291e5b200ac8c7c3b9258460405161057791815260200190565b60405180910390a350505050565b6001600160a01b0383166105b05780600260008282546105a5919061080f565b909155506106229050565b6001600160a01b038316600090815260208190526040902054818110156106035760405163391434e360e21b81526001600160a01b03851660048201526024810182905260448101839052606401610310565b6001600160a01b03841660009081526020819052604090209082900390555b6001600160a01b03821661063e5760028054829003905561065d565b6001600160a01b03821660009081526020819052604090208054820190555b816001600160a01b0316836001600160a01b03167fddf252ad1be2c89b69c2b068fc378daa952ba7f163c4a11628f55a4df523b3ef836040516106a291815260200190565b60405180910390a3505050565b602081526000825180602084015260005b818110156106dd57602081860181015160408684010152016106c0565b506000604082850101526040601f19601f83011684010191505092915050565b80356001600160a01b038116811461071457600080fd5b919050565b6000806040838503121561072c57600080fd5b610735836106fd565b946020939093013593505050565b60008060006060848603121561075857600080fd5b610761846106fd565b925061076f602085016106fd565b929592945050506040919091013590565b60006020828403121561079257600080fd5b61079b826106fd565b9392505050565b600080604083850312156107b557600080fd5b6107be836106fd565b91506107cc602084016106fd565b90509250929050565b600181811c908216806107e957607f821691505b60208210810361080957634e487b7160e01b600052602260045260246000fd5b50919050565b8082018082111561028657634e487b7160e01b600052601160045260246000fdfea2646970667358221220cb2263c977f0570f2e258c67555a64dfc7c38dbfdc70a01ef5d875a6fcaa068364736f6c634300081c0033000000000000000000000000000000000000000000000000000000000000004000000000000000000000000000000000000000000000000000000000000000800000000000000000000000000000000000000000000000000000000000000004494452540000000000000000000000000000000000000000000000000000000000000000000000000000000000000000000000000000000000000000000000044944525400000000000000000000000000000000000000000000000000000000",
        "nonce": "0x1",
        "chainId": "0xaa36a7"
      },
      "additionalContracts": [],
      "isFixedGasLimit": false
    },
    {
      "hash": "0x21516607ad8176de23525cb7af830489e545953151383186ed367278233568b3",
      "transactionType": "CREATE",
      "contractName": "USDC",
      "contractAddress": "0xd0c00ffa039875de31ad1847184b8674635c418e",
      "function": null,
      "arguments": [
        "USDC",
        "USDC"
      ],
      "transaction": {
        "from": "0x1d1967ff22df0354c54dcd81bd295bf13c03024c",
        "gas": "0xbda57",
        "value": "0x0",
        "input": "0x608060405234801561001057600080fd5b50604051610b45380380610b4583398101604081905261002f91610120565b8181600361003d8382610212565b50600461004a8282610212565b5050600580546001600160a01b03191633179055506102d0915050565b634e487b7160e01b600052604160045260246000fd5b600082601f83011261008e57600080fd5b81516001600160401b038111156100a7576100a7610067565b604051601f8201601f19908116603f011681016001600160401b03811182821017156100d5576100d5610067565b6040528181528382016020018510156100ed57600080fd5b60005b8281101561010c576020818601810151838301820152016100f0565b506000918101602001919091529392505050565b6000806040838503121561013357600080fd5b82516001600160401b0381111561014957600080fd5b6101558582860161007d565b602085015190935090506001600160401b0381111561017357600080fd5b61017f8582860161007d565b9150509250929050565b600181811c9082168061019d57607f821691505b6020821081036101bd57634e487b7160e01b600052602260045260246000fd5b50919050565b601f82111561020d57806000526020600020601f840160051c810160208510156101ea5750805b601f840160051c820191505b8181101561020a57600081556001016101f6565b50505b505050565b81516001600160401b0381111561022b5761022b610067565b61023f816102398454610189565b846101c3565b6020601f821160018114610273576000831561025b5750848201515b600019600385901b1c1916600184901b17845561020a565b600084815260208120601f198516915b828110156102a35787850151825560209485019460019092019101610283565b50848210156102c15786840151600019600387901b60f8161c191681555b50505050600190811b01905550565b610866806102df6000396000f3fe608060405234801561001057600080fd5b50600436106100a95760003560e01c806340c10f191161007157806340c10f191461012357806370a08231146101385780638da5cb5b1461016157806395d89b411461018c578063a9059cbb14610194578063dd62ed3e146101a757600080fd5b806306fdde03146100ae578063095ea7b3146100cc57806318160ddd146100ef57806323b872dd14610101578063313ce56714610114575b600080fd5b6100b66101e0565b6040516100c391906106af565b60405180910390f35b6100df6100da366004610719565b610272565b60405190151581526020016100c3565b6002545b6040519081526020016100c3565b6100df61010f366004610743565b61028c565b604051601281526020016100c3565b610136610131366004610719565b6102b0565b005b6100f3610146366004610780565b6001600160a01b031660009081526020819052604090205490565b600554610174906001600160a01b031681565b6040516001600160a01b0390911681526020016100c3565b6100b6610369565b6100df6101a2366004610719565b610378565b6100f36101b53660046107a2565b6001600160a01b03918216600090815260016020908152604080832093909416825291909152205490565b6060600380546101ef906107d5565b80601f016020809104026020016040519081016040528092919081815260200182805461021b906107d5565b80156102685780601f1061023d57610100808354040283529160200191610268565b820191906000526020600020905b81548152906001019060200180831161024b57829003601f168201915b5050505050905090565b600033610280818585610386565b60019150505b92915050565b60003361029a858285610398565b6102a5858585610417565b506001949350505050565b6005546001600160a01b031633146103195760405162461bcd60e51b815260206004820152602160248201527f4f6e6c79206f776e65722063616e20696e766f6b652074686973206d6574686f6044820152601960fa1b60648201526084015b60405180910390fd5b6103238282610476565b604080516001600160a01b0384168152602081018390527f0f6798a560793a54c3bcfe86a93cde1e73087d944c0ea20544137d4121396885910160405180910390a15050565b6060600480546101ef906107d5565b600033610280818585610417565b61039383838360016104b0565b505050565b6001600160a01b03838116600090815260016020908152604080832093861683529290522054600019811015610411578181101561040257604051637dc7a0d960e11b81526001600160a01b03841660048201526024810182905260448101839052606401610310565b610411848484840360006104b0565b50505050565b6001600160a01b03831661044157604051634b637e8f60e11b815260006004820152602401610310565b6001600160a01b03821661046b5760405163ec442f0560e01b815260006004820152602401610310565b610393838383610585565b6001600160a01b0382166104a05760405163ec442f0560e01b815260006004820152602401610310565b6104ac60008383610585565b5050565b6001600160a01b0384166104da5760405163e602df0560e01b815260006004820152602401610310565b6001600160a01b03831661050457604051634a1406b160e11b815260006004820152602401610310565b6001600160a01b038085166000908152600160209081526040808320938716835292905220829055801561041157826001600160a01b0316846001600160a01b03167f8c5be1e5ebec7d5bd14f71427d1e84f3dd0314c0f7b2291e5b200ac8c7c3b9258460405161057791815260200190565b60405180910390a350505050565b6001600160a01b0383166105b05780600260008282546105a5919061080f565b909155506106229050565b6001600160a01b038316600090815260208190526040902054818110156106035760405163391434e360e21b81526001600160a01b03851660048201526024810182905260448101839052606401610310565b6001600160a01b03841660009081526020819052604090209082900390555b6001600160a01b03821661063e5760028054829003905561065d565b6001600160a01b03821660009081526020819052604090208054820190555b816001600160a01b0316836001600160a01b03167fddf252ad1be2c89b69c2b068fc378daa952ba7f163c4a11628f55a4df523b3ef836040516106a291815260200190565b60405180910390a3505050565b602081526000825180602084015260005b818110156106dd57602081860181015160408684010152016106c0565b506000604082850101526040601f19601f83011684010191505092915050565b80356001600160a01b038116811461071457600080fd5b919050565b6000806040838503121561072c57600080fd5b610735836106fd565b946020939093013593505050565b60008060006060848603121561075857600080fd5b610761846106fd565b925061076f602085016106fd565b929592945050506040919091013590565b60006020828403121561079257600080fd5b61079b826106fd565b9392505050565b600080604083850312156107b557600080fd5b6107be836106fd565b91506107cc602084016106fd565b90509250929050565b600181811c908216806107e957607f821691505b60208210810361080957634e487b7160e01b600052602260045260246000fd5b50919050565b8082018082111561028657634e487b7160e01b600052601160045260246000fdfea2646970667358221220de084063a3fb547d9789e77ee1598fbaf174a1e360cdd77de008c145b2fa2d3d64736f6c634300081c0033000000000000000000000000000000000000000000000000000000000000004000000000000000000000000000000000000000000000000000000000000000800000000000000000000000000000000000000000000000000000000000000004555344540000000000000000000000000000000000000000000000000000000000000000000000000000000000000000000000000000000000000000000000045553445400000000000000000000000000000000000000000000000000000000",
        "nonce": "0x2",
        "chainId": "0xaa36a7"
      },
      "additionalContracts": [],
      "isFixedGasLimit": false
    },
    {
      "hash": "0x730a8e3d0959aad219725050fb48afb882cca1794400f704ec59772ee824b909",
      "transactionType": "CALL",
      "contractName": "WETH",
      "contractAddress": "0x4dd5c6b7e11be865b18e8af1ff5cd781e8ed36be",
      "function": "mint(address,uint256)",
      "arguments": [
        "0x1D1967ff22Df0354c54dCD81Bd295bF13C03024c",
        "1000000000000000000000000000"
      ],
      "transaction": {
        "from": "0x1d1967ff22df0354c54dcd81bd295bf13c03024c",
        "to": "0x4dd5c6b7e11be865b18e8af1ff5cd781e8ed36be",
        "gas": "0x1842a",
        "value": "0x0",
        "input": "0x40c10f190000000000000000000000001d1967ff22df0354c54dcd81bd295bf13c03024c0000000000000000000000000000000000000000033b2e3c9fd0803ce8000000",
        "nonce": "0x3",
        "chainId": "0xaa36a7"
      },
      "additionalContracts": [],
      "isFixedGasLimit": false
    },
    {
      "hash": "0x1917b24fe6b13c12d09ada796732be14f1471df013535c318f719651cb931f0a",
      "transactionType": "CALL",
      "contractName": "USDC",
      "contractAddress": "0xd0c00ffa039875de31ad1847184b8674635c418e",
      "function": "mint(address,uint256)",
      "arguments": [
        "0x1D1967ff22Df0354c54dCD81Bd295bF13C03024c",
        "1000000000000000000000000000"
      ],
      "transaction": {
        "from": "0x1d1967ff22df0354c54dcd81bd295bf13c03024c",
        "to": "0xd0c00ffa039875de31ad1847184b8674635c418e",
        "gas": "0x1842a",
        "value": "0x0",
        "input": "0x40c10f190000000000000000000000001d1967ff22df0354c54dcd81bd295bf13c03024c0000000000000000000000000000000000000000033b2e3c9fd0803ce8000000",
        "nonce": "0x4",
        "chainId": "0xaa36a7"
      },
      "additionalContracts": [],
      "isFixedGasLimit": false
    },
    {
      "hash": "0x4ea1d87af510ac49f9ee09c50e33d62ab08e4d678bb4a03b77ee3e8207878268",
      "transactionType": "CREATE",
      "contractName": "Faucet",
      "contractAddress": "0x92d9b9bb76d75c03fcf8fb4acf577b3c2938160a",
      "function": null,
      "arguments": null,
      "transaction": {
        "from": "0x1d1967ff22df0354c54dcd81bd295bf13c03024c",
        "gas": "0xb927c",
        "value": "0x0",
        "input": "0x608060405260006002556000600355348015601957600080fd5b50600080546001600160a01b0319163317905561091a8061003b6000396000f3fe608060405234801561001057600080fd5b50600436106100f55760003560e01c80637e36320b11610097578063ad64d06811610066578063ad64d068146101cc578063c8a6e9c3146101df578063d48bfca7146101e7578063fd645079146101fa57600080fd5b80637e36320b1461017c5780637f2e06e3146101855780638da5cb5b146101985780639c281430146101c357600080fd5b8063338b5dea116100d3578063338b5dea1461012e578063394f6181146101415780636438377e146101615780636c9230db1461017657600080fd5b8063140e7563146100fa578063218e4a151461010f5780632db4cd8b14610126575b600080fd5b61010d610108366004610790565b61020d565b005b6003545b6040519081526020015b60405180910390f35b61011361027c565b61010d61013c3660046107c5565b61029f565b61011361014f3660046107ef565b60046020526000908152604090205481565b33600090815260046020526040902054610113565b42610113565b61011360035481565b61010d610193366004610811565b610498565b6000546101ab906001600160a01b031681565b6040516001600160a01b03909116815260200161011d565b61011360025481565b6101ab6101da366004610790565b6105fa565b600154610113565b61010d6101f53660046107ef565b610624565b61010d610208366004610790565b610731565b6000546001600160a01b031633146102405760405162461bcd60e51b815260040161023790610844565b60405180910390fd5b60028190556040518181527fc2f11a8db3f5cc9fa21d683ff3a0cc4152a4ee8a9b29ad567bd781fc02d0b5e3906020015b60405180910390a150565b60035433600090815260046020526040812054909161029a91610885565b905090565b600081116102ef5760405162461bcd60e51b815260206004820152601d60248201527f416d6f756e74206d7573742062652067726561746572207468616e20300000006044820152606401610237565b6000805b6001548110156103405760018181548110610310576103106108ac565b6000918252602090912001546001600160a01b03908116908516036103385760019150610340565b6001016102f3565b508061038e5760405162461bcd60e51b815260206004820152601d60248201527f546f6b656e206e6f7420737570706f72746564206279206661756365740000006044820152606401610237565b6040516323b872dd60e01b8152336004820152306024820152604481018390526000906001600160a01b038516906323b872dd906064016020604051808303816000875af11580156103e4573d6000803e3d6000fd5b505050506040513d601f19601f8201168201806040525081019061040891906108c2565b9050806104495760405162461bcd60e51b815260206004820152600f60248201526e151c985b9cd9995c8819985a5b1959608a1b6044820152606401610237565b604080513381526001600160a01b03861660208201529081018490527f4b3f81827ede20c81afbf1bb77b954afcdcae24d391d99042310cb1d9210dd579060600160405180910390a150505050565b60025460405163a9059cbb60e01b81526001600160a01b038481166004830152602482019290925260009183169063a9059cbb906044016020604051808303816000875af11580156104ee573d6000803e3d6000fd5b505050506040513d601f19601f8201168201806040525081019061051291906108c2565b90508061057c5760405162461bcd60e51b815260206004820152603260248201527f546865207472616e736665722070726f6365737320646f65736e2774206578656044820152716375746564207375636365737366756c6c7960701b6064820152608401610237565b6003546105899042610885565b33600081815260046020526040908190209290925590517f93eefe371f8974939e82597a88552b3500c8caf593cb436dfffac7e3f95acaa1916105ed91869086906001600160a01b0393841681529183166020830152909116604082015260600190565b60405180910390a1505050565b6001818154811061060a57600080fd5b6000918252602090912001546001600160a01b0316905081565b60005b6001548110156106b35760018181548110610644576106446108ac565b6000918252602090912001546001600160a01b03908116908316036106ab5760405162461bcd60e51b815260206004820152601b60248201527f54686520746f6b656e2068617320616c726561647920657869737400000000006044820152606401610237565b600101610627565b506001805480820182556000919091527fb10e2d527612073b26eecdfd717e6a320cf44b4afac2b0732d9fcbe2b7fa0cf60180546001600160a01b0319166001600160a01b0383169081179091556040519081527fe473c74f34be27c1464d6624f14a0d7fd4e301cbfa29c3eba425d378c8a7ebe090602001610271565b6000546001600160a01b0316331461075b5760405162461bcd60e51b815260040161023790610844565b60038190556040518181527f853d44c603076a8a9813ec1708c300b754cbe958fa0bbd601409371a0d815db290602001610271565b6000602082840312156107a257600080fd5b5035919050565b80356001600160a01b03811681146107c057600080fd5b919050565b600080604083850312156107d857600080fd5b6107e1836107a9565b946020939093013593505050565b60006020828403121561080157600080fd5b61080a826107a9565b9392505050565b6000806040838503121561082457600080fd5b61082d836107a9565b915061083b602084016107a9565b90509250929050565b60208082526021908201527f4f6e6c79206f776e65722063616e20696e766f6b652074686973206d6574686f6040820152601960fa1b606082015260800190565b808201808211156108a657634e487b7160e01b600052601160045260246000fd5b92915050565b634e487b7160e01b600052603260045260246000fd5b6000602082840312156108d457600080fd5b8151801515811461080a57600080fdfea264697066735822122099ce8cc1e0a8294e232003d59ecca578dde63827d366bf92b810cb527301c77a64736f6c634300081c0033",
        "nonce": "0x5",
        "chainId": "0xaa36a7"
      },
      "additionalContracts": [],
      "isFixedGasLimit": false
    },
    {
      "hash": "0x42918128974d9ec53090b978e9325d795400667d29f46507411d69de3e61e54a",
      "transactionType": "CALL",
      "contractName": "Faucet",
      "contractAddress": "0x92d9b9bb76d75c03fcf8fb4acf577b3c2938160a",
      "function": "addToken(address)",
      "arguments": [
        "0x4DD5C6B7e11BE865b18e8Af1FF5CD781E8ED36be"
      ],
      "transaction": {
        "from": "0x1d1967ff22df0354c54dcd81bd295bf13c03024c",
        "to": "0x92d9b9bb76d75c03fcf8fb4acf577b3c2938160a",
        "gas": "0x16b20",
        "value": "0x0",
        "input": "0xd48bfca70000000000000000000000004dd5c6b7e11be865b18e8af1ff5cd781e8ed36be",
        "nonce": "0x6",
        "chainId": "0xaa36a7"
      },
      "additionalContracts": [],
      "isFixedGasLimit": false
    },
    {
      "hash": "0x04dfa33467b816aa799db54f7b757f18ec4b33a744d4785f6c4ef57f9ab2cfa0",
      "transactionType": "CALL",
      "contractName": "Faucet",
      "contractAddress": "0x92d9b9bb76d75c03fcf8fb4acf577b3c2938160a",
      "function": "addToken(address)",
      "arguments": [
        "0xd0c00fFa039875de31Ad1847184b8674635C418E"
      ],
      "transaction": {
        "from": "0x1d1967ff22df0354c54dcd81bd295bf13c03024c",
        "to": "0x92d9b9bb76d75c03fcf8fb4acf577b3c2938160a",
        "gas": "0x11c40",
        "value": "0x0",
        "input": "0xd48bfca7000000000000000000000000d0c00ffa039875de31ad1847184b8674635c418e",
        "nonce": "0x7",
        "chainId": "0xaa36a7"
      },
      "additionalContracts": [],
      "isFixedGasLimit": false
    },
    {
      "hash": "0x36f7d879b2ebf8f3cfdaee31a903952e65f384917d424529143fe786d29be176",
      "transactionType": "CALL",
      "contractName": "WETH",
      "contractAddress": "0x4dd5c6b7e11be865b18e8af1ff5cd781e8ed36be",
      "function": "mint(address,uint256)",
      "arguments": [
        "0x92d9b9BB76D75C03FcF8Fb4acf577b3c2938160a",
        "100000000000000000000"
      ],
      "transaction": {
        "from": "0x1d1967ff22df0354c54dcd81bd295bf13c03024c",
        "to": "0x4dd5c6b7e11be865b18e8af1ff5cd781e8ed36be",
        "gas": "0x1392c",
        "value": "0x0",
        "input": "0x40c10f1900000000000000000000000092d9b9bb76d75c03fcf8fb4acf577b3c2938160a0000000000000000000000000000000000000000000000056bc75e2d63100000",
        "nonce": "0x8",
        "chainId": "0xaa36a7"
      },
      "additionalContracts": [],
      "isFixedGasLimit": false
    },
    {
      "hash": "0xe52e0bfb2ab4214c19b2e3a9ee62ce4aab3971c2c05cf489afc59ed812389dbb",
      "transactionType": "CALL",
      "contractName": "USDC",
      "contractAddress": "0xd0c00ffa039875de31ad1847184b8674635c418e",
      "function": "mint(address,uint256)",
      "arguments": [
        "0x92d9b9BB76D75C03FcF8Fb4acf577b3c2938160a",
        "100000000000000000000"
      ],
      "transaction": {
        "from": "0x1d1967ff22df0354c54dcd81bd295bf13c03024c",
        "to": "0xd0c00ffa039875de31ad1847184b8674635c418e",
        "gas": "0x1392c",
        "value": "0x0",
        "input": "0x40c10f1900000000000000000000000092d9b9bb76d75c03fcf8fb4acf577b3c2938160a0000000000000000000000000000000000000000000000056bc75e2d63100000",
        "nonce": "0x9",
        "chainId": "0xaa36a7"
      },
      "additionalContracts": [],
      "isFixedGasLimit": false
    },
    {
      "hash": "0x67ad0fe77b4197099a63d2559dd3618209bd8e1e1e397e3cc6b523dc7504c165",
      "transactionType": "CALL",
      "contractName": "Faucet",
      "contractAddress": "0x92d9b9bb76d75c03fcf8fb4acf577b3c2938160a",
      "function": "updateFaucetAmount(uint256)",
      "arguments": [
        "1000000000000"
      ],
      "transaction": {
        "from": "0x1d1967ff22df0354c54dcd81bd295bf13c03024c",
        "to": "0x92d9b9bb76d75c03fcf8fb4acf577b3c2938160a",
        "gas": "0x10b53",
        "value": "0x0",
        "input": "0x140e7563000000000000000000000000000000000000000000000000000000e8d4a51000",
        "nonce": "0xa",
        "chainId": "0xaa36a7"
      },
      "additionalContracts": [],
      "isFixedGasLimit": false
    },
    {
      "hash": "0x4197402af88b08166807ea7feedaf47d7f56030a07d8e35307bc15cde0d80693",
      "transactionType": "CALL",
      "contractName": "Faucet",
      "contractAddress": "0x92d9b9bb76d75c03fcf8fb4acf577b3c2938160a",
      "function": "updateFaucetCooldown(uint256)",
      "arguments": [
        "1"
      ],
      "transaction": {
        "from": "0x1d1967ff22df0354c54dcd81bd295bf13c03024c",
        "to": "0x92d9b9bb76d75c03fcf8fb4acf577b3c2938160a",
        "gas": "0x10b8d",
        "value": "0x0",
        "input": "0xfd6450790000000000000000000000000000000000000000000000000000000000000001",
        "nonce": "0xb",
        "chainId": "0xaa36a7"
      },
      "additionalContracts": [],
      "isFixedGasLimit": false
    },
    {
      "hash": null,
      "transactionType": "CALL",
      "contractName": "WETH",
      "contractAddress": "0x4dd5c6b7e11be865b18e8af1ff5cd781e8ed36be",
      "function": "mint(address,uint256)",
      "arguments": [
        "0x5b73C5498c1E3b4dbA84de0F1833c4a029d90519",
        "1000000000000000000000"
      ],
      "transaction": {
        "from": "0x1d1967ff22df0354c54dcd81bd295bf13c03024c",
        "to": "0x4dd5c6b7e11be865b18e8af1ff5cd781e8ed36be",
        "gas": "0x1392c",
        "value": "0x0",
        "input": "0x40c10f190000000000000000000000005b73c5498c1e3b4dba84de0f1833c4a029d9051900000000000000000000000000000000000000000000003635c9adc5dea00000",
        "nonce": "0xc",
        "chainId": "0xaa36a7"
      },
      "additionalContracts": [],
      "isFixedGasLimit": false
    },
    {
      "hash": null,
      "transactionType": "CALL",
      "contractName": "USDC",
      "contractAddress": "0xd0c00ffa039875de31ad1847184b8674635c418e",
      "function": "mint(address,uint256)",
      "arguments": [
        "0x5b73C5498c1E3b4dbA84de0F1833c4a029d90519",
        "1000000000000000000000"
      ],
      "transaction": {
        "from": "0x1d1967ff22df0354c54dcd81bd295bf13c03024c",
        "to": "0xd0c00ffa039875de31ad1847184b8674635c418e",
        "gas": "0x1392c",
        "value": "0x0",
        "input": "0x40c10f190000000000000000000000005b73c5498c1e3b4dba84de0f1833c4a029d9051900000000000000000000000000000000000000000000003635c9adc5dea00000",
        "nonce": "0xd",
        "chainId": "0xaa36a7"
      },
      "additionalContracts": [],
      "isFixedGasLimit": false
    },
    {
      "hash": null,
      "transactionType": "CALL",
      "contractName": "WETH",
      "contractAddress": "0x4dd5c6b7e11be865b18e8af1ff5cd781e8ed36be",
      "function": "approve(address,uint256)",
      "arguments": [
        "0x92d9b9BB76D75C03FcF8Fb4acf577b3c2938160a",
        "1000000000000000000000"
      ],
      "transaction": {
        "from": "0x1d1967ff22df0354c54dcd81bd295bf13c03024c",
        "to": "0x4dd5c6b7e11be865b18e8af1ff5cd781e8ed36be",
        "gas": "0xfa41",
        "value": "0x0",
        "input": "0x095ea7b300000000000000000000000092d9b9bb76d75c03fcf8fb4acf577b3c2938160a00000000000000000000000000000000000000000000003635c9adc5dea00000",
        "nonce": "0xe",
        "chainId": "0xaa36a7"
      },
      "additionalContracts": [],
      "isFixedGasLimit": false
    },
    {
      "hash": null,
      "transactionType": "CALL",
      "contractName": "USDC",
      "contractAddress": "0xd0c00ffa039875de31ad1847184b8674635c418e",
      "function": "approve(address,uint256)",
      "arguments": [
        "0x92d9b9BB76D75C03FcF8Fb4acf577b3c2938160a",
        "1000000000000000000000"
      ],
      "transaction": {
        "from": "0x1d1967ff22df0354c54dcd81bd295bf13c03024c",
        "to": "0xd0c00ffa039875de31ad1847184b8674635c418e",
        "gas": "0xfa41",
        "value": "0x0",
        "input": "0x095ea7b300000000000000000000000092d9b9bb76d75c03fcf8fb4acf577b3c2938160a00000000000000000000000000000000000000000000003635c9adc5dea00000",
        "nonce": "0xf",
        "chainId": "0xaa36a7"
      },
      "additionalContracts": [],
      "isFixedGasLimit": false
    },
    {
      "hash": null,
      "transactionType": "CALL",
      "contractName": "Faucet",
      "contractAddress": "0x92d9b9bb76d75c03fcf8fb4acf577b3c2938160a",
      "function": "depositToken(address,uint256)",
      "arguments": [
        "0x4DD5C6B7e11BE865b18e8Af1FF5CD781E8ED36be",
        "1000000000000000000000"
      ],
      "transaction": {
        "from": "0x1d1967ff22df0354c54dcd81bd295bf13c03024c",
        "to": "0x92d9b9bb76d75c03fcf8fb4acf577b3c2938160a",
        "gas": "0xf22d",
        "value": "0x0",
        "input": "0x338b5dea0000000000000000000000004dd5c6b7e11be865b18e8af1ff5cd781e8ed36be00000000000000000000000000000000000000000000003635c9adc5dea00000",
        "nonce": "0x10",
        "chainId": "0xaa36a7"
      },
      "additionalContracts": [],
      "isFixedGasLimit": false
    },
    {
      "hash": null,
      "transactionType": "CALL",
      "contractName": "Faucet",
      "contractAddress": "0x92d9b9bb76d75c03fcf8fb4acf577b3c2938160a",
      "function": "depositToken(address,uint256)",
      "arguments": [
        "0xd0c00fFa039875de31Ad1847184b8674635C418E",
        "1000000000000000000000"
      ],
      "transaction": {
        "from": "0x1d1967ff22df0354c54dcd81bd295bf13c03024c",
        "to": "0x92d9b9bb76d75c03fcf8fb4acf577b3c2938160a",
        "gas": "0xff91",
        "value": "0x0",
        "input": "0x338b5dea000000000000000000000000d0c00ffa039875de31ad1847184b8674635c418e00000000000000000000000000000000000000000000003635c9adc5dea00000",
        "nonce": "0x11",
        "chainId": "0xaa36a7"
      },
      "additionalContracts": [],
      "isFixedGasLimit": false
    }
  ],
  "receipts": [],
  "libraries": [],
  "pending": [
    "0xcb1539a8c736dd3647434f9805e0a5bc94d76c737aedf7388c256f51b5308ecc",
    "0x21516607ad8176de23525cb7af830489e545953151383186ed367278233568b3",
    "0x730a8e3d0959aad219725050fb48afb882cca1794400f704ec59772ee824b909",
    "0x1917b24fe6b13c12d09ada796732be14f1471df013535c318f719651cb931f0a",
    "0x4ea1d87af510ac49f9ee09c50e33d62ab08e4d678bb4a03b77ee3e8207878268",
    "0x42918128974d9ec53090b978e9325d795400667d29f46507411d69de3e61e54a",
    "0x04dfa33467b816aa799db54f7b757f18ec4b33a744d4785f6c4ef57f9ab2cfa0",
    "0x36f7d879b2ebf8f3cfdaee31a903952e65f384917d424529143fe786d29be176",
    "0xe52e0bfb2ab4214c19b2e3a9ee62ce4aab3971c2c05cf489afc59ed812389dbb",
    "0x67ad0fe77b4197099a63d2559dd3618209bd8e1e1e397e3cc6b523dc7504c165",
    "0x4197402af88b08166807ea7feedaf47d7f56030a07d8e35307bc15cde0d80693"
  ],
  "returns": {},
  "timestamp": 1739491913,
  "chain": 11155111,
  "commit": "408565d"
}