{
  "transactions": [
    {
      "hash": "0x187c98aa6fcddb071a12f8b794d0e83f298314301a845a5a5b6d38e236076e20",
      "transactionType": "CALL",
      "contractName": null,
      "contractAddress": "0x42cf0a7ebdf961dc87cc5e5dc84b16fb621f979f",
      "function": "mint(address,uint256)",
      "arguments": [
        "0x57cd7a092071FEe63b8a7cDbC2a9ba24306b0d8b",
        "100000000000000000000"
      ],
      "transaction": {
        "from": "0x1d1967ff22df0354c54dcd81bd295bf13c03024c",
        "to": "0x42cf0a7ebdf961dc87cc5e5dc84b16fb621f979f",
        "gas": "0xc4b8",
        "value": "0x0",
        "input": "0x40c10f1900000000000000000000000057cd7a092071fee63b8a7cdbc2a9ba24306b0d8b0000000000000000000000000000000000000000000000056bc75e2d63100000",
        "nonce": "0x25b9",
        "chainId": "0x66eee"
      },
      "additionalContracts": [],
      "isFixedGasLimit": false
    },
    {
      "hash": "0x3dc86fa56718b7161b38186848a871e62b3df14a8614e9a650e551e3403befeb",
      "transactionType": "CALL",
      "contractName": null,
      "contractAddress": "0xf29fe5af8d954e3da8c5f7f87f0715f8244086d7",
      "function": "mint(address,uint256)",
      "arguments": [
        "0x57cd7a092071FEe63b8a7cDbC2a9ba24306b0d8b",
        "100000000000000000000"
      ],
      "transaction": {
        "from": "0x1d1967ff22df0354c54dcd81bd295bf13c03024c",
        "to": "0xf29fe5af8d954e3da8c5f7f87f0715f8244086d7",
        "gas": "0xc4b8",
        "value": "0x0",
        "input": "0x40c10f1900000000000000000000000057cd7a092071fee63b8a7cdbc2a9ba24306b0d8b0000000000000000000000000000000000000000000000056bc75e2d63100000",
        "nonce": "0x25ba",
        "chainId": "0x66eee"
      },
      "additionalContracts": [],
      "isFixedGasLimit": false
    }
  ],
  "receipts": [
    {
      "status": "0x1",
      "cumulativeGasUsed": "0x20c30",
      "logs": [
        {
          "address": "0x42cf0a7ebdf961dc87cc5e5dc84b16fb621f979f",
          "topics": [
            "0xddf252ad1be2c89b69c2b068fc378daa952ba7f163c4a11628f55a4df523b3ef",
            "0x0000000000000000000000000000000000000000000000000000000000000000",
            "0x00000000000000000000000057cd7a092071fee63b8a7cdbc2a9ba24306b0d8b"
          ],
          "data": "0x0000000000000000000000000000000000000000000000056bc75e2d63100000",
          "blockHash": "0xe772bdacdd3c74b667d6eb1079a7b7c7835d5ff6ab46afcad8834264b662c9b4",
          "blockNumber": "0x717b0cc",
          "transactionHash": "0x187c98aa6fcddb071a12f8b794d0e83f298314301a845a5a5b6d38e236076e20",
          "transactionIndex": "0x2",
          "logIndex": "0x1",
          "removed": false
        },
        {
          "address": "0x42cf0a7ebdf961dc87cc5e5dc84b16fb621f979f",
          "topics": [
            "0x0f6798a560793a54c3bcfe86a93cde1e73087d944c0ea20544137d4121396885"
          ],
          "data": "0x00000000000000000000000057cd7a092071fee63b8a7cdbc2a9ba24306b0d8b0000000000000000000000000000000000000000000000056bc75e2d63100000",
          "blockHash": "0xe772bdacdd3c74b667d6eb1079a7b7c7835d5ff6ab46afcad8834264b662c9b4",
          "blockNumber": "0x717b0cc",
          "transactionHash": "0x187c98aa6fcddb071a12f8b794d0e83f298314301a845a5a5b6d38e236076e20",
          "transactionIndex": "0x2",
          "logIndex": "0x2",
          "removed": false
        }
      ],
      "logsBloom": "0x00000000000000000000000000000000000000000000000000000000000000000000000200000000000000000000000000000000000000000000000000000000000000000020000000000008000000000000000000000000000000000000000000000000020000800000000000000800000000002000400000000010000000000000000000000000000000000000000000000000000000000000000004000000200080800000000000000000000000000000000000000000000000000000000000000002000000000000000000000000000000000000000000000000000020000000000000000000000000000000000000000000000000000000000000000000",
      "type": "0x2",
      "transactionHash": "0x187c98aa6fcddb071a12f8b794d0e83f298314301a845a5a5b6d38e236076e20",
      "transactionIndex": "0x2",
      "blockHash": "0xe772bdacdd3c74b667d6eb1079a7b7c7835d5ff6ab46afcad8834264b662c9b4",
      "blockNumber": "0x717b0cc",
      "gasUsed": "0x9555",
      "effectiveGasPrice": "0x5f5e100",
      "blobGasUsed": "0x0",
      "from": "0x1d1967ff22df0354c54dcd81bd295bf13c03024c",
      "to": "0x42cf0a7ebdf961dc87cc5e5dc84b16fb621f979f",
      "contractAddress": null,
      "gasUsedForL1": "0x1fe",
      "l1BlockNumber": "0x73e38b"
    },
    {
      "status": "0x1",
      "cumulativeGasUsed": "0x4ae9b",
      "logs": [
        {
          "address": "0xf29fe5af8d954e3da8c5f7f87f0715f8244086d7",
          "topics": [
            "0xddf252ad1be2c89b69c2b068fc378daa952ba7f163c4a11628f55a4df523b3ef",
            "0x0000000000000000000000000000000000000000000000000000000000000000",
            "0x00000000000000000000000057cd7a092071fee63b8a7cdbc2a9ba24306b0d8b"
          ],
          "data": "0x0000000000000000000000000000000000000000000000056bc75e2d63100000",
          "blockHash": "0xef9834422acda072dc92b70922b495c29acc8bf3171117bf27dc812cf57f9e31",
          "blockNumber": "0x717b0d8",
          "transactionHash": "0x3dc86fa56718b7161b38186848a871e62b3df14a8614e9a650e551e3403befeb",
          "transactionIndex": "0x3",
          "logIndex": "0x1",
          "removed": false
        },
        {
          "address": "0xf29fe5af8d954e3da8c5f7f87f0715f8244086d7",
          "topics": [
            "0x0f6798a560793a54c3bcfe86a93cde1e73087d944c0ea20544137d4121396885"
          ],
          "data": "0x00000000000000000000000057cd7a092071fee63b8a7cdbc2a9ba24306b0d8b0000000000000000000000000000000000000000000000056bc75e2d63100000",
          "blockHash": "0xef9834422acda072dc92b70922b495c29acc8bf3171117bf27dc812cf57f9e31",
          "blockNumber": "0x717b0d8",
          "transactionHash": "0x3dc86fa56718b7161b38186848a871e62b3df14a8614e9a650e551e3403befeb",
          "transactionIndex": "0x3",
          "logIndex": "0x2",
          "removed": false
        }
      ],
      "logsBloom": "0x00010000000000000000000000000000000000000000000000000000000000000000000000000000000000000000000000000000000000000000000000000000010000000020000000000008000000000000000000000000000000000000000000000000020000000000000000000800000000002000400000000010000000000000000000000000000000000000000000000000000000000000000004000000200080000000000000000000000000000000000000000000000000000000004000000002000000000000000000000000000000000000000000000000000020000000000000000000000000000000000000000000000000000000000000000000",
      "type": "0x2",
      "transactionHash": "0x3dc86fa56718b7161b38186848a871e62b3df14a8614e9a650e551e3403befeb",
      "transactionIndex": "0x3",
      "blockHash": "0xef9834422acda072dc92b70922b495c29acc8bf3171117bf27dc812cf57f9e31",
      "blockNumber": "0x717b0d8",
      "gasUsed": "0x9555",
      "effectiveGasPrice": "0x5f5e100",
      "blobGasUsed": "0x0",
      "from": "0x1d1967ff22df0354c54dcd81bd295bf13c03024c",
      "to": "0xf29fe5af8d954e3da8c5f7f87f0715f8244086d7",
      "contractAddress": null,
      "gasUsedForL1": "0x1fe",
      "l1BlockNumber": "0x73e38b"
    }
  ],
  "libraries": [],
  "pending": [],
  "returns": {},
  "timestamp": 1738141458,
  "chain": 421614,
  "commit": "8193be8"
}