{
  "transactions": [
    {
      "hash": "0x3ed6347095b0eed4cf647fdedcb5e45815cc332e657874ff746c87e160a8ef3b",
      "transactionType": "CALL",
      "contractName": null,
      "contractAddress": "0xfe40fc94386e317226abf64cbc36f79121a1cb01",
      "function": "addToken(address)",
      "arguments": [
        "0x8BaBD1E824a30bDf9986eD73Fb2494150ae65A71"
      ],
      "transaction": {
        "from": "0xe2bc073e0d55274dba18a0e11463a5dfd16c5057",
        "to": "0xfe40fc94386e317226abf64cbc36f79121a1cb01",
        "gas": "0x15a10",
        "value": "0x0",
        "input": "0xd48bfca70000000000000000000000008babd1e824a30bdf9986ed73fb2494150ae65a71",
        "nonce": "0x1dab",
        "chainId": "0x66eee"
      },
      "additionalContracts": [],
      "isFixedGasLimit": false
    },
    {
      "hash": "0x7c445f03ffe33e84e85e7ec866aa5406509d1e1262b542295959d1c177677da2",
      "transactionType": "CALL",
      "contractName": null,
      "contractAddress": "0xfe40fc94386e317226abf64cbc36f79121a1cb01",
      "function": "addToken(address)",
      "arguments": [
        "0x146Aa60180A9542BF2675BbEFC1E9F4A5406c155"
      ],
      "transaction": {
        "from": "0xe2bc073e0d55274dba18a0e11463a5dfd16c5057",
        "to": "0xfe40fc94386e317226abf64cbc36f79121a1cb01",
        "gas": "0x15a10",
        "value": "0x0",
        "input": "0xd48bfca7000000000000000000000000146aa60180a9542bf2675bbefc1e9f4a5406c155",
        "nonce": "0x1dac",
        "chainId": "0x66eee"
      },
      "additionalContracts": [],
      "isFixedGasLimit": false
    },
    {
      "hash": "0x500f8ef5b5bad43bca3e55141b70d1774f5c898ff9983bfb46705ecada0e26ae",
      "transactionType": "CALL",
      "contractName": null,
      "contractAddress": "0x8babd1e824a30bdf9986ed73fb2494150ae65a71",
      "function": "mint(address,uint256)",
      "arguments": [
        "0xfe40Fc94386E317226ABF64Cbc36F79121a1cb01",
        "100000000000000000000"
      ],
      "transaction": {
        "from": "0xe2bc073e0d55274dba18a0e11463a5dfd16c5057",
        "to": "0x8babd1e824a30bdf9986ed73fb2494150ae65a71",
        "gas": "0x11a68",
        "value": "0x0",
        "input": "0x40c10f19000000000000000000000000fe40fc94386e317226abf64cbc36f79121a1cb010000000000000000000000000000000000000000000000056bc75e2d63100000",
        "nonce": "0x1dad",
        "chainId": "0x66eee"
      },
      "additionalContracts": [],
      "isFixedGasLimit": false
    },
    {
      "hash": "0xa56f4a5c51d221d584fb20945cac3803d0f840c0b1ac0c95bb2e55a68a26efdf",
      "transactionType": "CALL",
      "contractName": null,
      "contractAddress": "0x146aa60180a9542bf2675bbefc1e9f4a5406c155",
      "function": "mint(address,uint256)",
      "arguments": [
        "0xfe40Fc94386E317226ABF64Cbc36F79121a1cb01",
        "100000000000000000000"
      ],
      "transaction": {
        "from": "0xe2bc073e0d55274dba18a0e11463a5dfd16c5057",
        "to": "0x146aa60180a9542bf2675bbefc1e9f4a5406c155",
        "gas": "0x11a68",
        "value": "0x0",
        "input": "0x40c10f19000000000000000000000000fe40fc94386e317226abf64cbc36f79121a1cb010000000000000000000000000000000000000000000000056bc75e2d63100000",
        "nonce": "0x1dae",
        "chainId": "0x66eee"
      },
      "additionalContracts": [],
      "isFixedGasLimit": false
    }
  ],
  "receipts": [
    {
      "status": "0x1",
      "cumulativeGasUsed": "0x106e2",
      "logs": [
        {
          "address": "0xfe40fc94386e317226abf64cbc36f79121a1cb01",
          "topics": [
            "0xe473c74f34be27c1464d6624f14a0d7fd4e301cbfa29c3eba425d378c8a7ebe0"
          ],
          "data": "0x0000000000000000000000008babd1e824a30bdf9986ed73fb2494150ae65a71",
          "blockHash": "0xac0da18929ceb744d7a00347db3d59738ccadb9516cf9fff436f00ff925c4646",
          "blockNumber": "0x76829ab",
          "transactionHash": "0x3ed6347095b0eed4cf647fdedcb5e45815cc332e657874ff746c87e160a8ef3b",
          "transactionIndex": "0x1",
          "logIndex": "0x0",
          "removed": false
        }
      ],
      "logsBloom": "0x00000000000000000000000000000000000000000000000000000000000000000000000000000000000000000000000000000000000000000000000000000000000000000000000000000000000000800000000000000000000000000000000000000000000000000000000000000000000000000000000000000000000000000000000000000000000000000000000000400000000000000000000000000000000000000000000000000000000000000000000020000000000000000000000000000000000000000000000000000000010000000000000000000000000000000008000000000000008000000000000000000000000000000000000000000000",
      "type": "0x2",
      "transactionHash": "0x3ed6347095b0eed4cf647fdedcb5e45815cc332e657874ff746c87e160a8ef3b",
      "transactionIndex": "0x1",
      "blockHash": "0xac0da18929ceb744d7a00347db3d59738ccadb9516cf9fff436f00ff925c4646",
      "blockNumber": "0x76829ab",
      "gasUsed": "0x106e2",
      "effectiveGasPrice": "0x5f5e100",
      "from": "0xe2bc073e0d55274dba18a0e11463a5dfd16c5057",
      "to": "0xfe40fc94386e317226abf64cbc36f79121a1cb01",
      "contractAddress": null,
      "gasUsedForL1": "0x0",
      "l1BlockNumber": "0x75c94f"
    },
    {
      "status": "0x1",
      "cumulativeGasUsed": "0xcdc7",
      "logs": [
        {
          "address": "0xfe40fc94386e317226abf64cbc36f79121a1cb01",
          "topics": [
            "0xe473c74f34be27c1464d6624f14a0d7fd4e301cbfa29c3eba425d378c8a7ebe0"
          ],
          "data": "0x000000000000000000000000146aa60180a9542bf2675bbefc1e9f4a5406c155",
          "blockHash": "0x8b65afec736e81bfcbfd4f328f3d2ebbd94e169fbfb3462c8d58feaadf31272c",
          "blockNumber": "0x76829b0",
          "transactionHash": "0x7c445f03ffe33e84e85e7ec866aa5406509d1e1262b542295959d1c177677da2",
          "transactionIndex": "0x1",
          "logIndex": "0x0",
          "removed": false
        }
      ],
      "logsBloom": "0x00000000000000000000000000000000000000000000000000000000000000000000000000000000000000000000000000000000000000000000000000000000000000000000000000000000000000800000000000000000000000000000000000000000000000000000000000000000000000000000000000000000000000000000000000000000000000000000000000400000000000000000000000000000000000000000000000000000000000000000000020000000000000000000000000000000000000000000000000000000010000000000000000000000000000000008000000000000008000000000000000000000000000000000000000000000",
      "type": "0x2",
      "transactionHash": "0x7c445f03ffe33e84e85e7ec866aa5406509d1e1262b542295959d1c177677da2",
      "transactionIndex": "0x1",
      "blockHash": "0x8b65afec736e81bfcbfd4f328f3d2ebbd94e169fbfb3462c8d58feaadf31272c",
      "blockNumber": "0x76829b0",
      "gasUsed": "0xcdc7",
      "effectiveGasPrice": "0x5f5e100",
      "from": "0xe2bc073e0d55274dba18a0e11463a5dfd16c5057",
      "to": "0xfe40fc94386e317226abf64cbc36f79121a1cb01",
      "contractAddress": null,
      "gasUsedForL1": "0x0",
      "l1BlockNumber": "0x75c94f"
    },
    {
      "status": "0x1",
      "cumulativeGasUsed": "0x94c18",
      "logs": [
        {
          "address": "0x8babd1e824a30bdf9986ed73fb2494150ae65a71",
          "topics": [
            "0xddf252ad1be2c89b69c2b068fc378daa952ba7f163c4a11628f55a4df523b3ef",
            "0x0000000000000000000000000000000000000000000000000000000000000000",
            "0x000000000000000000000000fe40fc94386e317226abf64cbc36f79121a1cb01"
          ],
          "data": "0x0000000000000000000000000000000000000000000000056bc75e2d63100000",
          "blockHash": "0x0dc6f8f1aea5ed8fb6a27b6572707f2ea72e60ae4ba8c17e920b960c589269d8",
          "blockNumber": "0x76829b4",
          "transactionHash": "0x500f8ef5b5bad43bca3e55141b70d1774f5c898ff9983bfb46705ecada0e26ae",
          "transactionIndex": "0x2",
          "logIndex": "0x12",
          "removed": false
        },
        {
          "address": "0x8babd1e824a30bdf9986ed73fb2494150ae65a71",
          "topics": [
            "0x0f6798a560793a54c3bcfe86a93cde1e73087d944c0ea20544137d4121396885"
          ],
          "data": "0x000000000000000000000000fe40fc94386e317226abf64cbc36f79121a1cb010000000000000000000000000000000000000000000000056bc75e2d63100000",
          "blockHash": "0x0dc6f8f1aea5ed8fb6a27b6572707f2ea72e60ae4ba8c17e920b960c589269d8",
          "blockNumber": "0x76829b4",
          "transactionHash": "0x500f8ef5b5bad43bca3e55141b70d1774f5c898ff9983bfb46705ecada0e26ae",
          "transactionIndex": "0x2",
          "logIndex": "0x13",
          "removed": false
        }
      ],
      "logsBloom": "0x00000000000000000000000000001000000000000000000000000000000000000000002000000000000000000000000000000000000000000000000000000020000000000020000000000008000000000000000000000000000000000000000000000000020000000000000100000800000000000000400000000010000000000000000000000000000000000000000000000000000000000000000000000000000080000000000000000000000000000000000000000000000000000000000000000002000000400000000000000000000000000000000001000000000020000000000000000000000000000000000000000000000000000000000000000000",
      "type": "0x2",
      "transactionHash": "0x500f8ef5b5bad43bca3e55141b70d1774f5c898ff9983bfb46705ecada0e26ae",
      "transactionIndex": "0x2",
      "blockHash": "0x0dc6f8f1aea5ed8fb6a27b6572707f2ea72e60ae4ba8c17e920b960c589269d8",
      "blockNumber": "0x76829b4",
      "gasUsed": "0xd61d",
      "effectiveGasPrice": "0x5f5e100",
      "from": "0xe2bc073e0d55274dba18a0e11463a5dfd16c5057",
      "to": "0x8babd1e824a30bdf9986ed73fb2494150ae65a71",
      "contractAddress": null,
      "gasUsedForL1": "0x0",
      "l1BlockNumber": "0x75c94f"
    },
    {
      "status": "0x1",
      "cumulativeGasUsed": "0xd61d",
      "logs": [
        {
          "address": "0x146aa60180a9542bf2675bbefc1e9f4a5406c155",
          "topics": [
            "0xddf252ad1be2c89b69c2b068fc378daa952ba7f163c4a11628f55a4df523b3ef",
            "0x0000000000000000000000000000000000000000000000000000000000000000",
            "0x000000000000000000000000fe40fc94386e317226abf64cbc36f79121a1cb01"
          ],
          "data": "0x0000000000000000000000000000000000000000000000056bc75e2d63100000",
          "blockHash": "0xfc96c120efdb8745c737f23dadcdc581896322fb6ccfa13cabf8a17284130e47",
          "blockNumber": "0x76829ba",
          "transactionHash": "0xa56f4a5c51d221d584fb20945cac3803d0f840c0b1ac0c95bb2e55a68a26efdf",
          "transactionIndex": "0x1",
          "logIndex": "0x0",
          "removed": false
        },
        {
          "address": "0x146aa60180a9542bf2675bbefc1e9f4a5406c155",
          "topics": [
            "0x0f6798a560793a54c3bcfe86a93cde1e73087d944c0ea20544137d4121396885"
          ],
          "data": "0x000000000000000000000000fe40fc94386e317226abf64cbc36f79121a1cb010000000000000000000000000000000000000000000000056bc75e2d63100000",
          "blockHash": "0xfc96c120efdb8745c737f23dadcdc581896322fb6ccfa13cabf8a17284130e47",
          "blockNumber": "0x76829ba",
          "transactionHash": "0xa56f4a5c51d221d584fb20945cac3803d0f840c0b1ac0c95bb2e55a68a26efdf",
          "transactionIndex": "0x1",
          "logIndex": "0x1",
          "removed": false
        }
      ],
      "logsBloom": "0x00000000000000000000000000001000000000000000000000000000000000000000000000000000000000000000000000000040000000000000000000000020000000000020000000000008000000000000000000000000000000000000000000000000020000000000000000000800000000000000400000000010000000000000000000000000000000000000000000000000000000000000000000000000000080000000000000000000000000000000000004000000000000000000000000000002000000400000000000000000000000000000000000000000000020000000000040000000000000000000000000000000000000000000000000000000",
      "type": "0x2",
      "transactionHash": "0xa56f4a5c51d221d584fb20945cac3803d0f840c0b1ac0c95bb2e55a68a26efdf",
      "transactionIndex": "0x1",
      "blockHash": "0xfc96c120efdb8745c737f23dadcdc581896322fb6ccfa13cabf8a17284130e47",
      "blockNumber": "0x76829ba",
      "gasUsed": "0xd61d",
      "effectiveGasPrice": "0x5f5e100",
      "from": "0xe2bc073e0d55274dba18a0e11463a5dfd16c5057",
      "to": "0x146aa60180a9542bf2675bbefc1e9f4a5406c155",
      "contractAddress": null,
      "gasUsedForL1": "0x0",
      "l1BlockNumber": "0x75c94f",
      "timeboosted": false
    }
  ],
  "libraries": [],
  "pending": [],
  "returns": {},
  "timestamp": 1739700917,
  "chain": 421614,
  "commit": "408565d"
}