{
  "transactions": [
    {
      "hash": "0x279e2bb218bf45a1ca34493b4b4564d8d80e6872b9f7eedc1616df577f9d1635",
      "transactionType": "CALL",
      "contractName": null,
      "contractAddress": "0x20f628cf2e85ed2425bd2760283d57e715c81599",
      "function": "addToken(address)",
      "arguments": [
        "0x078cC2Af3Cdd9Bd242f336c3d20Ee2F29C891106"
      ],
      "transaction": {
        "from": "0x34728af7d0fc03cbbdff82b6d52aeda8c999e2b2",
        "to": "0x20f628cf2e85ed2425bd2760283d57e715c81599",
        "gas": "0x16c10",
        "value": "0x0",
        "input": "0xd48bfca7000000000000000000000000078cc2af3cdd9bd242f336c3d20ee2f29c891106",
        "nonce": "0x9",
        "chainId": "0x66eee"
      },
      "additionalContracts": [],
      "isFixedGasLimit": false
    }
  ],
  "receipts": [
    {
      "status": "0x1",
      "cumulativeGasUsed": "0x11357",
      "logs": [
        {
          "address": "0x20f628cf2e85ed2425bd2760283d57e715c81599",
          "topics": [
            "0xe473c74f34be27c1464d6624f14a0d7fd4e301cbfa29c3eba425d378c8a7ebe0"
          ],
          "data": "0x000000000000000000000000078cc2af3cdd9bd242f336c3d20ee2f29c891106",
          "blockHash": "0x3e13735fc2162ca59d7b1cf00794747f25158a78c1d1a4a711b913e9782d2706",
          "blockNumber": "0x595ed60",
          "transactionHash": "0x279e2bb218bf45a1ca34493b4b4564d8d80e6872b9f7eedc1616df577f9d1635",
          "transactionIndex": "0x1",
          "logIndex": "0x0",
          "removed": false
        }
      ],
      "logsBloom": "0x00000000000000000000000000000000000000000000000000000000000000000000000000000000000000000000000000000000000000000000000000000000000000000000000000000000000000000000000000000000000000000000000000000000000000000000000000000000000000000000000000000000000000000000000200000000000000000000000000000000000000000000000000000000000000000000000000000000000000000000000000000000000000000000000000000000000000000000000200000000010000000000000000000000000000000008000000000000008000000000000010000000000000000000000000000000",
      "type": "0x2",
      "transactionHash": "0x279e2bb218bf45a1ca34493b4b4564d8d80e6872b9f7eedc1616df577f9d1635",
      "transactionIndex": "0x1",
      "blockHash": "0x3e13735fc2162ca59d7b1cf00794747f25158a78c1d1a4a711b913e9782d2706",
      "blockNumber": "0x595ed60",
      "gasUsed": "0x11357",
      "effectiveGasPrice": "0x5f5e100",
      "from": "0x34728af7d0fc03cbbdff82b6d52aeda8c999e2b2",
      "to": "0x20f628cf2e85ed2425bd2760283d57e715c81599",
      "contractAddress": null,
      "gasUsedForL1": "0x415",
      "l1BlockNumber": "0x6abdf1"
    }
  ],
  "libraries": [],
  "pending": [],
  "returns": {},
  "timestamp": 1730531230,
  "chain": 421614,
  "commit": "8193be8"
}