{
  "transactions": [
    {
      "hash": "0x846a8e0e884f96d6d83d25e5cc61af18c309c1d6fb19c717a303f4769f586e33",
      "transactionType": "CALL",
      "contractName": null,
      "contractAddress": "0x7234611bb672ddf10408a73e4de62ef939b38245",
      "function": "mint(address,uint256)",
      "arguments": [
        "0xC09BD3bc9CE776e05ACd395Ac1ceF845BF19811c",
        "100000000000000000000"
      ],
      "transaction": {
        "from": "0xe2bc073e0d55274dba18a0e11463a5dfd16c5057",
        "to": "0x7234611bb672ddf10408a73e4de62ef939b38245",
        "gas": "0xc64b",
        "value": "0x0",
        "input": "0x40c10f19000000000000000000000000c09bd3bc9ce776e05acd395ac1cef845bf19811c0000000000000000000000000000000000000000000000056bc75e2d63100000",
        "nonce": "0x1d1c",
        "chainId": "0x66eee"
      },
      "additionalContracts": [],
      "isFixedGasLimit": false
    },
    {
      "hash": "0xea2a497def7a68405e56a626996e444a171c3786b811aaa9e5e33b4fc26368cc",
      "transactionType": "CALL",
      "contractName": null,
      "contractAddress": "0x7ad9331aef16b6b77904add1752145728cc014cb",
      "function": "mint(address,uint256)",
      "arguments": [
        "0xC09BD3bc9CE776e05ACd395Ac1ceF845BF19811c",
        "100000000000000000000"
      ],
      "transaction": {
        "from": "0xe2bc073e0d55274dba18a0e11463a5dfd16c5057",
        "to": "0x7ad9331aef16b6b77904add1752145728cc014cb",
        "gas": "0xc64b",
        "value": "0x0",
        "input": "0x40c10f19000000000000000000000000c09bd3bc9ce776e05acd395ac1cef845bf19811c0000000000000000000000000000000000000000000000056bc75e2d63100000",
        "nonce": "0x1d1d",
        "chainId": "0x66eee"
      },
      "additionalContracts": [],
      "isFixedGasLimit": false
    }
  ],
  "receipts": [
    {
      "status": "0x1",
      "cumulativeGasUsed": "0x9647",
      "logs": [
        {
          "address": "0x7234611bb672ddf10408a73e4de62ef939b38245",
          "topics": [
            "0xddf252ad1be2c89b69c2b068fc378daa952ba7f163c4a11628f55a4df523b3ef",
            "0x0000000000000000000000000000000000000000000000000000000000000000",
            "0x000000000000000000000000c09bd3bc9ce776e05acd395ac1cef845bf19811c"
          ],
          "data": "0x0000000000000000000000000000000000000000000000056bc75e2d63100000",
          "blockHash": "0x1e59f8313065b25c01af659420783ba686c6faef6ac90de6e8563bada4a4b279",
          "blockNumber": "0x72a755e",
          "transactionHash": "0x846a8e0e884f96d6d83d25e5cc61af18c309c1d6fb19c717a303f4769f586e33",
          "transactionIndex": "0x1",
          "logIndex": "0x0",
          "removed": false
        },
        {
          "address": "0x7234611bb672ddf10408a73e4de62ef939b38245",
          "topics": [
            "0x0f6798a560793a54c3bcfe86a93cde1e73087d944c0ea20544137d4121396885"
          ],
          "data": "0x000000000000000000000000c09bd3bc9ce776e05acd395ac1cef845bf19811c0000000000000000000000000000000000000000000000056bc75e2d63100000",
          "blockHash": "0x1e59f8313065b25c01af659420783ba686c6faef6ac90de6e8563bada4a4b279",
          "blockNumber": "0x72a755e",
          "transactionHash": "0x846a8e0e884f96d6d83d25e5cc61af18c309c1d6fb19c717a303f4769f586e33",
          "transactionIndex": "0x1",
          "logIndex": "0x1",
          "removed": false
        }
      ],
      "logsBloom": "0x00000000000000000000000000000000000000000000000000000000000000000000000000000000000000004000000000000000000000000000000000000000000000000020000000000008000000000000000000000000000000000000000000000000020000000000000000000800000000000000400000000010000000000000000000000000000000000000000000000000000001000000000000000000000080000000000000000000000000000000000000000800000000000040000000000002000000000000000000000000000000002000000000000000000020000000000000000000000000000000800000000000000000000000000000000000",
      "type": "0x2",
      "transactionHash": "0x846a8e0e884f96d6d83d25e5cc61af18c309c1d6fb19c717a303f4769f586e33",
      "transactionIndex": "0x1",
      "blockHash": "0x1e59f8313065b25c01af659420783ba686c6faef6ac90de6e8563bada4a4b279",
      "blockNumber": "0x72a755e",
      "gasUsed": "0x9647",
      "effectiveGasPrice": "0x5f5e100",
      "blobGasUsed": "0x0",
      "from": "0xe2bc073e0d55274dba18a0e11463a5dfd16c5057",
      "to": "0x7234611bb672ddf10408a73e4de62ef939b38245",
      "contractAddress": null,
      "gasUsedForL1": "0x2f0",
      "l1BlockNumber": "0x744b83"
    },
    {
      "status": "0x1",
      "cumulativeGasUsed": "0x9647",
      "logs": [
        {
          "address": "0x7ad9331aef16b6b77904add1752145728cc014cb",
          "topics": [
            "0xddf252ad1be2c89b69c2b068fc378daa952ba7f163c4a11628f55a4df523b3ef",
            "0x0000000000000000000000000000000000000000000000000000000000000000",
            "0x000000000000000000000000c09bd3bc9ce776e05acd395ac1cef845bf19811c"
          ],
          "data": "0x0000000000000000000000000000000000000000000000056bc75e2d63100000",
          "blockHash": "0x443f1091dfc6137bc1bdeb4f6f66b2a8f350380f6909bd979fac27099ac01af6",
          "blockNumber": "0x72a7578",
          "transactionHash": "0xea2a497def7a68405e56a626996e444a171c3786b811aaa9e5e33b4fc26368cc",
          "transactionIndex": "0x1",
          "logIndex": "0x0",
          "removed": false
        },
        {
          "address": "0x7ad9331aef16b6b77904add1752145728cc014cb",
          "topics": [
            "0x0f6798a560793a54c3bcfe86a93cde1e73087d944c0ea20544137d4121396885"
          ],
          "data": "0x000000000000000000000000c09bd3bc9ce776e05acd395ac1cef845bf19811c0000000000000000000000000000000000000000000000056bc75e2d63100000",
          "blockHash": "0x443f1091dfc6137bc1bdeb4f6f66b2a8f350380f6909bd979fac27099ac01af6",
          "blockNumber": "0x72a7578",
          "transactionHash": "0xea2a497def7a68405e56a626996e444a171c3786b811aaa9e5e33b4fc26368cc",
          "transactionIndex": "0x1",
          "logIndex": "0x1",
          "removed": false
        }
      ],
      "logsBloom": "0x00000000000000000000000000000000000000000000000000000000000000000000000000000000000000000000000000000000000040000000000000000000000000000020000000000008000000000000000000000000000000000000000000000000020000000000000000000800000000000000400000000010000000000000000000000000000000000000000000000000010000000000000000000000000080000000000000000000000000000000000000000000000000000040000000000002000000000000008000000000000000002000000000000000000020000000000000000000000000000000800000000000000000000000000000000000",
      "type": "0x2",
      "transactionHash": "0xea2a497def7a68405e56a626996e444a171c3786b811aaa9e5e33b4fc26368cc",
      "transactionIndex": "0x1",
      "blockHash": "0x443f1091dfc6137bc1bdeb4f6f66b2a8f350380f6909bd979fac27099ac01af6",
      "blockNumber": "0x72a7578",
      "gasUsed": "0x9647",
      "effectiveGasPrice": "0x5f5e100",
      "blobGasUsed": "0x0",
      "from": "0xe2bc073e0d55274dba18a0e11463a5dfd16c5057",
      "to": "0x7ad9331aef16b6b77904add1752145728cc014cb",
      "contractAddress": null,
      "gasUsedForL1": "0x2f0",
      "l1BlockNumber": "0x744b85"
    }
  ],
  "libraries": [],
  "pending": [],
  "returns": {},
  "timestamp": 1738465400,
  "chain": 421614,
  "commit": "8193be8"
}