{
  "transactions": [
    {
      "hash": "0x2083220f0932de232c619019fbabacd912f09909b33f58a6e19a500e97f935b4",
      "transactionType": "CALL",
      "contractName": null,
      "contractAddress": "0x7234611bb672ddf10408a73e4de62ef939b38245",
      "function": "mint(address,uint256)",
      "arguments": [
        "0xC09BD3bc9CE776e05ACd395Ac1ceF845BF19811c",
        "100000000000000000000"
      ],
      "transaction": {
        "from": "0xe2bc073e0d55274dba18a0e11463a5dfd16c5057",
        "to": "0x7234611bb672ddf10408a73e4de62ef939b38245",
        "gas": "0xc7ae",
        "value": "0x0",
        "input": "0x40c10f19000000000000000000000000c09bd3bc9ce776e05acd395ac1cef845bf19811c0000000000000000000000000000000000000000000000056bc75e2d63100000",
        "nonce": "0x1d20",
        "chainId": "0x66eee"
      },
      "additionalContracts": [],
      "isFixedGasLimit": false
    },
    {
      "hash": "0x026c140a64d69f6d2311d6c648ea515a8eaf8a79a6cf9a92e1eb623361fd338e",
      "transactionType": "CALL",
      "contractName": null,
      "contractAddress": "0x7ad9331aef16b6b77904add1752145728cc014cb",
      "function": "mint(address,uint256)",
      "arguments": [
        "0xC09BD3bc9CE776e05ACd395Ac1ceF845BF19811c",
        "100000000000000000000"
      ],
      "transaction": {
        "from": "0xe2bc073e0d55274dba18a0e11463a5dfd16c5057",
        "to": "0x7ad9331aef16b6b77904add1752145728cc014cb",
        "gas": "0xc7ae",
        "value": "0x0",
        "input": "0x40c10f19000000000000000000000000c09bd3bc9ce776e05acd395ac1cef845bf19811c0000000000000000000000000000000000000000000000056bc75e2d63100000",
        "nonce": "0x1d21",
        "chainId": "0x66eee"
      },
      "additionalContracts": [],
      "isFixedGasLimit": false
    }
  ],
  "receipts": [
    {
      "status": "0x1",
      "cumulativeGasUsed": "0x971b",
      "logs": [
        {
          "address": "0x7234611bb672ddf10408a73e4de62ef939b38245",
          "topics": [
            "0xddf252ad1be2c89b69c2b068fc378daa952ba7f163c4a11628f55a4df523b3ef",
            "0x0000000000000000000000000000000000000000000000000000000000000000",
            "0x000000000000000000000000c09bd3bc9ce776e05acd395ac1cef845bf19811c"
          ],
          "data": "0x0000000000000000000000000000000000000000000000056bc75e2d63100000",
          "blockHash": "0x52904b53dd4990d564f1fc96e32ed08180dd8bee0bf0d5b2bbaebf02444d4dfa",
          "blockNumber": "0x72a7e0a",
          "transactionHash": "0x2083220f0932de232c619019fbabacd912f09909b33f58a6e19a500e97f935b4",
          "transactionIndex": "0x1",
          "logIndex": "0x0",
          "removed": false
        },
        {
          "address": "0x7234611bb672ddf10408a73e4de62ef939b38245",
          "topics": [
            "0x0f6798a560793a54c3bcfe86a93cde1e73087d944c0ea20544137d4121396885"
          ],
          "data": "0x000000000000000000000000c09bd3bc9ce776e05acd395ac1cef845bf19811c0000000000000000000000000000000000000000000000056bc75e2d63100000",
          "blockHash": "0x52904b53dd4990d564f1fc96e32ed08180dd8bee0bf0d5b2bbaebf02444d4dfa",
          "blockNumber": "0x72a7e0a",
          "transactionHash": "0x2083220f0932de232c619019fbabacd912f09909b33f58a6e19a500e97f935b4",
          "transactionIndex": "0x1",
          "logIndex": "0x1",
          "removed": false
        }
      ],
      "logsBloom": "0x00000000000000000000000000000000000000000000000000000000000000000000000000000000000000004000000000000000000000000000000000000000000000000020000000000008000000000000000000000000000000000000000000000000020000000000000000000800000000000000400000000010000000000000000000000000000000000000000000000000000001000000000000000000000080000000000000000000000000000000000000000800000000000040000000000002000000000000000000000000000000002000000000000000000020000000000000000000000000000000800000000000000000000000000000000000",
      "type": "0x2",
      "transactionHash": "0x2083220f0932de232c619019fbabacd912f09909b33f58a6e19a500e97f935b4",
      "transactionIndex": "0x1",
      "blockHash": "0x52904b53dd4990d564f1fc96e32ed08180dd8bee0bf0d5b2bbaebf02444d4dfa",
      "blockNumber": "0x72a7e0a",
      "gasUsed": "0x971b",
      "effectiveGasPrice": "0x5f5e100",
      "blobGasUsed": "0x0",
      "from": "0xe2bc073e0d55274dba18a0e11463a5dfd16c5057",
      "to": "0x7234611bb672ddf10408a73e4de62ef939b38245",
      "contractAddress": null,
      "gasUsedForL1": "0x3c4",
      "l1BlockNumber": "0x744bbc"
    },
    {
      "status": "0x1",
      "cumulativeGasUsed": "0x971b",
      "logs": [
        {
          "address": "0x7ad9331aef16b6b77904add1752145728cc014cb",
          "topics": [
            "0xddf252ad1be2c89b69c2b068fc378daa952ba7f163c4a11628f55a4df523b3ef",
            "0x0000000000000000000000000000000000000000000000000000000000000000",
            "0x000000000000000000000000c09bd3bc9ce776e05acd395ac1cef845bf19811c"
          ],
          "data": "0x0000000000000000000000000000000000000000000000056bc75e2d63100000",
          "blockHash": "0x7c73104160d1ac42b99ebd2e73d2e4473eb8d2f556c540f23ae6ae9f30c8dbdb",
          "blockNumber": "0x72a7e19",
          "transactionHash": "0x026c140a64d69f6d2311d6c648ea515a8eaf8a79a6cf9a92e1eb623361fd338e",
          "transactionIndex": "0x1",
          "logIndex": "0x0",
          "removed": false
        },
        {
          "address": "0x7ad9331aef16b6b77904add1752145728cc014cb",
          "topics": [
            "0x0f6798a560793a54c3bcfe86a93cde1e73087d944c0ea20544137d4121396885"
          ],
          "data": "0x000000000000000000000000c09bd3bc9ce776e05acd395ac1cef845bf19811c0000000000000000000000000000000000000000000000056bc75e2d63100000",
          "blockHash": "0x7c73104160d1ac42b99ebd2e73d2e4473eb8d2f556c540f23ae6ae9f30c8dbdb",
          "blockNumber": "0x72a7e19",
          "transactionHash": "0x026c140a64d69f6d2311d6c648ea515a8eaf8a79a6cf9a92e1eb623361fd338e",
          "transactionIndex": "0x1",
          "logIndex": "0x1",
          "removed": false
        }
      ],
      "logsBloom": "0x00000000000000000000000000000000000000000000000000000000000000000000000000000000000000000000000000000000000040000000000000000000000000000020000000000008000000000000000000000000000000000000000000000000020000000000000000000800000000000000400000000010000000000000000000000000000000000000000000000000010000000000000000000000000080000000000000000000000000000000000000000000000000000040000000000002000000000000008000000000000000002000000000000000000020000000000000000000000000000000800000000000000000000000000000000000",
      "type": "0x2",
      "transactionHash": "0x026c140a64d69f6d2311d6c648ea515a8eaf8a79a6cf9a92e1eb623361fd338e",
      "transactionIndex": "0x1",
      "blockHash": "0x7c73104160d1ac42b99ebd2e73d2e4473eb8d2f556c540f23ae6ae9f30c8dbdb",
      "blockNumber": "0x72a7e19",
      "gasUsed": "0x971b",
      "effectiveGasPrice": "0x5f5e100",
      "blobGasUsed": "0x0",
      "from": "0xe2bc073e0d55274dba18a0e11463a5dfd16c5057",
      "to": "0x7ad9331aef16b6b77904add1752145728cc014cb",
      "contractAddress": null,
      "gasUsedForL1": "0x3c4",
      "l1BlockNumber": "0x744bbe"
    }
  ],
  "libraries": [],
  "pending": [],
  "returns": {},
  "timestamp": 1738466104,
  "chain": 421614,
  "commit": "8193be8"
}