{
  "transactions": [
    {
      "hash": "0xa7de8e9eca812cb4d658a71c0dc918e3e12972ee10547d99b6cef223446c60bd",
      "transactionType": "CALL",
      "contractName": null,
      "contractAddress": "0x7234611bb672ddf10408a73e4de62ef939b38245",
      "function": "mint(address,uint256)",
      "arguments": [
        "0xC09BD3bc9CE776e05ACd395Ac1ceF845BF19811c",
        "100000000000000000000"
      ],
      "transaction": {
        "from": "0xe2bc073e0d55274dba18a0e11463a5dfd16c5057",
        "to": "0x7234611bb672ddf10408a73e4de62ef939b38245",
        "gas": "0x1767f",
        "value": "0x0",
        "input": "0x40c10f19000000000000000000000000c09bd3bc9ce776e05acd395ac1cef845bf19811c0000000000000000000000000000000000000000000000056bc75e2d63100000",
        "nonce": "0x1d18",
        "chainId": "0x66eee"
      },
      "additionalContracts": [],
      "isFixedGasLimit": false
    },
    {
      "hash": "0x0e55baa78cc0a2b57ff00b40f8f9a3f73a73a25b0eaffb7c4943eed46112ad85",
      "transactionType": "CALL",
      "contractName": null,
      "contractAddress": "0x7ad9331aef16b6b77904add1752145728cc014cb",
      "function": "mint(address,uint256)",
      "arguments": [
        "0xC09BD3bc9CE776e05ACd395Ac1ceF845BF19811c",
        "100000000000000000000"
      ],
      "transaction": {
        "from": "0xe2bc073e0d55274dba18a0e11463a5dfd16c5057",
        "to": "0x7ad9331aef16b6b77904add1752145728cc014cb",
        "gas": "0x1767f",
        "value": "0x0",
        "input": "0x40c10f19000000000000000000000000c09bd3bc9ce776e05acd395ac1cef845bf19811c0000000000000000000000000000000000000000000000056bc75e2d63100000",
        "nonce": "0x1d19",
        "chainId": "0x66eee"
      },
      "additionalContracts": [],
      "isFixedGasLimit": false
    }
  ],
  "receipts": [
    {
      "status": "0x1",
      "cumulativeGasUsed": "0x11bdd",
      "logs": [
        {
          "address": "0x7234611bb672ddf10408a73e4de62ef939b38245",
          "topics": [
            "0xddf252ad1be2c89b69c2b068fc378daa952ba7f163c4a11628f55a4df523b3ef",
            "0x0000000000000000000000000000000000000000000000000000000000000000",
            "0x000000000000000000000000c09bd3bc9ce776e05acd395ac1cef845bf19811c"
          ],
          "data": "0x0000000000000000000000000000000000000000000000056bc75e2d63100000",
          "blockHash": "0x03e3f3e6cb1b039b9d04760f2e05df49cc379e44e904530f453a1a2ac47b3c08",
          "blockNumber": "0x72a6baf",
          "transactionHash": "0xa7de8e9eca812cb4d658a71c0dc918e3e12972ee10547d99b6cef223446c60bd",
          "transactionIndex": "0x1",
          "logIndex": "0x0",
          "removed": false
        },
        {
          "address": "0x7234611bb672ddf10408a73e4de62ef939b38245",
          "topics": [
            "0x0f6798a560793a54c3bcfe86a93cde1e73087d944c0ea20544137d4121396885"
          ],
          "data": "0x000000000000000000000000c09bd3bc9ce776e05acd395ac1cef845bf19811c0000000000000000000000000000000000000000000000056bc75e2d63100000",
          "blockHash": "0x03e3f3e6cb1b039b9d04760f2e05df49cc379e44e904530f453a1a2ac47b3c08",
          "blockNumber": "0x72a6baf",
          "transactionHash": "0xa7de8e9eca812cb4d658a71c0dc918e3e12972ee10547d99b6cef223446c60bd",
          "transactionIndex": "0x1",
          "logIndex": "0x1",
          "removed": false
        }
      ],
      "logsBloom": "0x00000000000000000000000000000000000000000000000000000000000000000000000000000000000000004000000000000000000000000000000000000000000000000020000000000008000000000000000000000000000000000000000000000000020000000000000000000800000000000000400000000010000000000000000000000000000000000000000000000000000001000000000000000000000080000000000000000000000000000000000000000800000000000040000000000002000000000000000000000000000000002000000000000000000020000000000000000000000000000000800000000000000000000000000000000000",
      "type": "0x2",
      "transactionHash": "0xa7de8e9eca812cb4d658a71c0dc918e3e12972ee10547d99b6cef223446c60bd",
      "transactionIndex": "0x1",
      "blockHash": "0x03e3f3e6cb1b039b9d04760f2e05df49cc379e44e904530f453a1a2ac47b3c08",
      "blockNumber": "0x72a6baf",
      "gasUsed": "0x11bdd",
      "effectiveGasPrice": "0x5f5e100",
      "blobGasUsed": "0x0",
      "from": "0xe2bc073e0d55274dba18a0e11463a5dfd16c5057",
      "to": "0x7234611bb672ddf10408a73e4de62ef939b38245",
      "contractAddress": null,
      "gasUsedForL1": "0x2ee",
      "l1BlockNumber": "0x744b46"
    },
    {
      "status": "0x1",
      "cumulativeGasUsed": "0x25444",
      "logs": [
        {
          "address": "0x7ad9331aef16b6b77904add1752145728cc014cb",
          "topics": [
            "0xddf252ad1be2c89b69c2b068fc378daa952ba7f163c4a11628f55a4df523b3ef",
            "0x0000000000000000000000000000000000000000000000000000000000000000",
            "0x000000000000000000000000c09bd3bc9ce776e05acd395ac1cef845bf19811c"
          ],
          "data": "0x0000000000000000000000000000000000000000000000056bc75e2d63100000",
          "blockHash": "0x12176f5ea23f4b186dc4eea65e6b1719e0cc99c8c260fda7c17995adb3de3ca4",
          "blockNumber": "0x72a6bb8",
          "transactionHash": "0x0e55baa78cc0a2b57ff00b40f8f9a3f73a73a25b0eaffb7c4943eed46112ad85",
          "transactionIndex": "0x2",
          "logIndex": "0x2",
          "removed": false
        },
        {
          "address": "0x7ad9331aef16b6b77904add1752145728cc014cb",
          "topics": [
            "0x0f6798a560793a54c3bcfe86a93cde1e73087d944c0ea20544137d4121396885"
          ],
          "data": "0x000000000000000000000000c09bd3bc9ce776e05acd395ac1cef845bf19811c0000000000000000000000000000000000000000000000056bc75e2d63100000",
          "blockHash": "0x12176f5ea23f4b186dc4eea65e6b1719e0cc99c8c260fda7c17995adb3de3ca4",
          "blockNumber": "0x72a6bb8",
          "transactionHash": "0x0e55baa78cc0a2b57ff00b40f8f9a3f73a73a25b0eaffb7c4943eed46112ad85",
          "transactionIndex": "0x2",
          "logIndex": "0x3",
          "removed": false
        }
      ],
      "logsBloom": "0x00000000000000000000000000000000000000000000000000000000000000000000000000000000000000000000000000000000000040000000000000000000000000000020000000000008000000000000000000000000000000000000000000000000020000000000000000000800000000000000400000000010000000000000000000000000000000000000000000000000010000000000000000000000000080000000000000000000000000000000000000000000000000000040000000000002000000000000008000000000000000002000000000000000000020000000000000000000000000000000800000000000000000000000000000000000",
      "type": "0x2",
      "transactionHash": "0x0e55baa78cc0a2b57ff00b40f8f9a3f73a73a25b0eaffb7c4943eed46112ad85",
      "transactionIndex": "0x2",
      "blockHash": "0x12176f5ea23f4b186dc4eea65e6b1719e0cc99c8c260fda7c17995adb3de3ca4",
      "blockNumber": "0x72a6bb8",
      "gasUsed": "0x11bdd",
      "effectiveGasPrice": "0x5f5e100",
      "blobGasUsed": "0x0",
      "from": "0xe2bc073e0d55274dba18a0e11463a5dfd16c5057",
      "to": "0x7ad9331aef16b6b77904add1752145728cc014cb",
      "contractAddress": null,
      "gasUsedForL1": "0x2ee",
      "l1BlockNumber": "0x744b46"
    }
  ],
  "libraries": [],
  "pending": [],
  "returns": {},
  "timestamp": 1738464598,
  "chain": 421614,
  "commit": "8193be8"
}