{
  "transactions": [
    {
      "hash": null,
      "transactionType": "CREATE",
      "contractName": "IDRT",
      "contractAddress": "0x3f3d7801596172cbf36de714e13984a742673264",
      "function": null,
      "arguments": null,
      "transaction": {
        "from": "0x7f45c0fc722b04b7278476c8ed283297f6468c88",
        "gas": "0xbbcb6",
        "value": "0x0",
        "input": "0x608060405234801561001057600080fd5b506040805180820182526004808252631251149560e21b602080840182905284518086019095529184529083015290600361004b8382610111565b5060046100588282610111565b5050600580546001600160a01b03191633179055506101cf565b634e487b7160e01b600052604160045260246000fd5b600181811c9082168061009c57607f821691505b6020821081036100bc57634e487b7160e01b600052602260045260246000fd5b50919050565b601f82111561010c57806000526020600020601f840160051c810160208510156100e95750805b601f840160051c820191505b8181101561010957600081556001016100f5565b50505b505050565b81516001600160401b0381111561012a5761012a610072565b61013e816101388454610088565b846100c2565b6020601f821160018114610172576000831561015a5750848201515b600019600385901b1c1916600184901b178455610109565b600084815260208120601f198516915b828110156101a25787850151825560209485019460019092019101610182565b50848210156101c05786840151600019600387901b60f8161c191681555b50505050600190811b01905550565b610866806101de6000396000f3fe608060405234801561001057600080fd5b50600436106100a95760003560e01c806340c10f191161007157806340c10f191461012357806370a08231146101385780638da5cb5b1461016157806395d89b411461018c578063a9059cbb14610194578063dd62ed3e146101a757600080fd5b806306fdde03146100ae578063095ea7b3146100cc57806318160ddd146100ef57806323b872dd14610101578063313ce56714610114575b600080fd5b6100b66101e0565b6040516100c391906106af565b60405180910390f35b6100df6100da366004610719565b610272565b60405190151581526020016100c3565b6002545b6040519081526020016100c3565b6100df61010f366004610743565b61028c565b604051601281526020016100c3565b610136610131366004610719565b6102b0565b005b6100f3610146366004610780565b6001600160a01b031660009081526020819052604090205490565b600554610174906001600160a01b031681565b6040516001600160a01b0390911681526020016100c3565b6100b6610369565b6100df6101a2366004610719565b610378565b6100f36101b53660046107a2565b6001600160a01b03918216600090815260016020908152604080832093909416825291909152205490565b6060600380546101ef906107d5565b80601f016020809104026020016040519081016040528092919081815260200182805461021b906107d5565b80156102685780601f1061023d57610100808354040283529160200191610268565b820191906000526020600020905b81548152906001019060200180831161024b57829003601f168201915b5050505050905090565b600033610280818585610386565b60019150505b92915050565b60003361029a858285610398565b6102a5858585610417565b506001949350505050565b6005546001600160a01b031633146103195760405162461bcd60e51b815260206004820152602160248201527f4f6e6c79206f776e65722063616e20696e766f6b652074686973206d6574686f6044820152601960fa1b60648201526084015b60405180910390fd5b6103238282610476565b604080516001600160a01b0384168152602081018390527f0f6798a560793a54c3bcfe86a93cde1e73087d944c0ea20544137d4121396885910160405180910390a15050565b6060600480546101ef906107d5565b600033610280818585610417565b61039383838360016104b0565b505050565b6001600160a01b03838116600090815260016020908152604080832093861683529290522054600019811015610411578181101561040257604051637dc7a0d960e11b81526001600160a01b03841660048201526024810182905260448101839052606401610310565b610411848484840360006104b0565b50505050565b6001600160a01b03831661044157604051634b637e8f60e11b815260006004820152602401610310565b6001600160a01b03821661046b5760405163ec442f0560e01b815260006004820152602401610310565b610393838383610585565b6001600160a01b0382166104a05760405163ec442f0560e01b815260006004820152602401610310565b6104ac60008383610585565b5050565b6001600160a01b0384166104da5760405163e602df0560e01b815260006004820152602401610310565b6001600160a01b03831661050457604051634a1406b160e11b815260006004820152602401610310565b6001600160a01b038085166000908152600160209081526040808320938716835292905220829055801561041157826001600160a01b0316846001600160a01b03167f8c5be1e5ebec7d5bd14f71427d1e84f3dd0314c0f7b2291e5b200ac8c7c3b9258460405161057791815260200190565b60405180910390a350505050565b6001600160a01b0383166105b05780600260008282546105a5919061080f565b909155506106229050565b6001600160a01b038316600090815260208190526040902054818110156106035760405163391434e360e21b81526001600160a01b03851660048201526024810182905260448101839052606401610310565b6001600160a01b03841660009081526020819052604090209082900390555b6001600160a01b03821661063e5760028054829003905561065d565b6001600160a01b03821660009081526020819052604090208054820190555b816001600160a01b0316836001600160a01b03167fddf252ad1be2c89b69c2b068fc378daa952ba7f163c4a11628f55a4df523b3ef836040516106a291815260200190565b60405180910390a3505050565b602081526000825180602084015260005b818110156106dd57602081860181015160408684010152016106c0565b506000604082850101526040601f19601f83011684010191505092915050565b80356001600160a01b038116811461071457600080fd5b919050565b6000806040838503121561072c57600080fd5b610735836106fd565b946020939093013593505050565b60008060006060848603121561075857600080fd5b610761846106fd565b925061076f602085016106fd565b929592945050506040919091013590565b60006020828403121561079257600080fd5b61079b826106fd565b9392505050565b600080604083850312156107b557600080fd5b6107be836106fd565b91506107cc602084016106fd565b90509250929050565b600181811c908216806107e957607f821691505b60208210810361080957634e487b7160e01b600052602260045260246000fd5b50919050565b8082018082111561028657634e487b7160e01b600052601160045260246000fdfea264697066735822122072baea81d5b83401f5d3003b043685d6a52c37f9cfcc03f840375257b24fd97864736f6c634300081c0033",
        "nonce": "0xb",
        "chainId": "0xde9fb"
      },
      "additionalContracts": [],
      "isFixedGasLimit": false
    },
    {
      "hash": null,
      "transactionType": "CREATE",
      "contractName": "USDT",
      "contractAddress": "0x9743660ab965b4ceaf088163eb2fb6de09d5b50b",
      "function": null,
      "arguments": null,
      "transaction": {
        "from": "0x7f45c0fc722b04b7278476c8ed283297f6468c88",
        "gas": "0xbbcc5",
        "value": "0x0",
        "input": "0x608060405234801561001057600080fd5b506040805180820182526004808252631554d11560e21b602080840182905284518086019095529184529083015290600361004b8382610111565b5060046100588282610111565b5050600580546001600160a01b03191633179055506101cf565b634e487b7160e01b600052604160045260246000fd5b600181811c9082168061009c57607f821691505b6020821081036100bc57634e487b7160e01b600052602260045260246000fd5b50919050565b601f82111561010c57806000526020600020601f840160051c810160208510156100e95750805b601f840160051c820191505b8181101561010957600081556001016100f5565b50505b505050565b81516001600160401b0381111561012a5761012a610072565b61013e816101388454610088565b846100c2565b6020601f821160018114610172576000831561015a5750848201515b600019600385901b1c1916600184901b178455610109565b600084815260208120601f198516915b828110156101a25787850151825560209485019460019092019101610182565b50848210156101c05786840151600019600387901b60f8161c191681555b50505050600190811b01905550565b610866806101de6000396000f3fe608060405234801561001057600080fd5b50600436106100a95760003560e01c806340c10f191161007157806340c10f191461012357806370a08231146101385780638da5cb5b1461016157806395d89b411461018c578063a9059cbb14610194578063dd62ed3e146101a757600080fd5b806306fdde03146100ae578063095ea7b3146100cc57806318160ddd146100ef57806323b872dd14610101578063313ce56714610114575b600080fd5b6100b66101e0565b6040516100c391906106af565b60405180910390f35b6100df6100da366004610719565b610272565b60405190151581526020016100c3565b6002545b6040519081526020016100c3565b6100df61010f366004610743565b61028c565b604051601281526020016100c3565b610136610131366004610719565b6102b0565b005b6100f3610146366004610780565b6001600160a01b031660009081526020819052604090205490565b600554610174906001600160a01b031681565b6040516001600160a01b0390911681526020016100c3565b6100b6610369565b6100df6101a2366004610719565b610378565b6100f36101b53660046107a2565b6001600160a01b03918216600090815260016020908152604080832093909416825291909152205490565b6060600380546101ef906107d5565b80601f016020809104026020016040519081016040528092919081815260200182805461021b906107d5565b80156102685780601f1061023d57610100808354040283529160200191610268565b820191906000526020600020905b81548152906001019060200180831161024b57829003601f168201915b5050505050905090565b600033610280818585610386565b60019150505b92915050565b60003361029a858285610398565b6102a5858585610417565b506001949350505050565b6005546001600160a01b031633146103195760405162461bcd60e51b815260206004820152602160248201527f4f6e6c79206f776e65722063616e20696e766f6b652074686973206d6574686f6044820152601960fa1b60648201526084015b60405180910390fd5b6103238282610476565b604080516001600160a01b0384168152602081018390527f0f6798a560793a54c3bcfe86a93cde1e73087d944c0ea20544137d4121396885910160405180910390a15050565b6060600480546101ef906107d5565b600033610280818585610417565b61039383838360016104b0565b505050565b6001600160a01b03838116600090815260016020908152604080832093861683529290522054600019811015610411578181101561040257604051637dc7a0d960e11b81526001600160a01b03841660048201526024810182905260448101839052606401610310565b610411848484840360006104b0565b50505050565b6001600160a01b03831661044157604051634b637e8f60e11b815260006004820152602401610310565b6001600160a01b03821661046b5760405163ec442f0560e01b815260006004820152602401610310565b610393838383610585565b6001600160a01b0382166104a05760405163ec442f0560e01b815260006004820152602401610310565b6104ac60008383610585565b5050565b6001600160a01b0384166104da5760405163e602df0560e01b815260006004820152602401610310565b6001600160a01b03831661050457604051634a1406b160e11b815260006004820152602401610310565b6001600160a01b038085166000908152600160209081526040808320938716835292905220829055801561041157826001600160a01b0316846001600160a01b03167f8c5be1e5ebec7d5bd14f71427d1e84f3dd0314c0f7b2291e5b200ac8c7c3b9258460405161057791815260200190565b60405180910390a350505050565b6001600160a01b0383166105b05780600260008282546105a5919061080f565b909155506106229050565b6001600160a01b038316600090815260208190526040902054818110156106035760405163391434e360e21b81526001600160a01b03851660048201526024810182905260448101839052606401610310565b6001600160a01b03841660009081526020819052604090209082900390555b6001600160a01b03821661063e5760028054829003905561065d565b6001600160a01b03821660009081526020819052604090208054820190555b816001600160a01b0316836001600160a01b03167fddf252ad1be2c89b69c2b068fc378daa952ba7f163c4a11628f55a4df523b3ef836040516106a291815260200190565b60405180910390a3505050565b602081526000825180602084015260005b818110156106dd57602081860181015160408684010152016106c0565b506000604082850101526040601f19601f83011684010191505092915050565b80356001600160a01b038116811461071457600080fd5b919050565b6000806040838503121561072c57600080fd5b610735836106fd565b946020939093013593505050565b60008060006060848603121561075857600080fd5b610761846106fd565b925061076f602085016106fd565b929592945050506040919091013590565b60006020828403121561079257600080fd5b61079b826106fd565b9392505050565b600080604083850312156107b557600080fd5b6107be836106fd565b91506107cc602084016106fd565b90509250929050565b600181811c908216806107e957607f821691505b60208210810361080957634e487b7160e01b600052602260045260246000fd5b50919050565b8082018082111561028657634e487b7160e01b600052601160045260246000fdfea2646970667358221220854faced332d022845120dea755b529e36965d8b1f639c1806c94417f853483264736f6c634300081c0033",
        "nonce": "0xc",
        "chainId": "0xde9fb"
      },
      "additionalContracts": [],
      "isFixedGasLimit": false
    },
    {
      "hash": null,
      "transactionType": "CALL",
      "contractName": "IDRT",
      "contractAddress": "0x3f3d7801596172cbf36de714e13984a742673264",
      "function": "mint(address,uint256)",
      "arguments": [
        "0x7f45C0Fc722b04B7278476C8ed283297F6468c88",
        "1000000000000000000000000000"
      ],
      "transaction": {
        "from": "0x7f45c0fc722b04b7278476c8ed283297f6468c88",
        "to": "0x3f3d7801596172cbf36de714e13984a742673264",
        "gas": "0x1842a",
        "value": "0x0",
        "input": "0x40c10f190000000000000000000000007f45c0fc722b04b7278476c8ed283297f6468c880000000000000000000000000000000000000000033b2e3c9fd0803ce8000000",
        "nonce": "0xd",
        "chainId": "0xde9fb"
      },
      "additionalContracts": [],
      "isFixedGasLimit": false
    },
    {
      "hash": null,
      "transactionType": "CALL",
      "contractName": "USDT",
      "contractAddress": "0x9743660ab965b4ceaf088163eb2fb6de09d5b50b",
      "function": "mint(address,uint256)",
      "arguments": [
        "0x7f45C0Fc722b04B7278476C8ed283297F6468c88",
        "1000000000000000000000000000"
      ],
      "transaction": {
        "from": "0x7f45c0fc722b04b7278476c8ed283297f6468c88",
        "to": "0x9743660ab965b4ceaf088163eb2fb6de09d5b50b",
        "gas": "0x1842a",
        "value": "0x0",
        "input": "0x40c10f190000000000000000000000007f45c0fc722b04b7278476c8ed283297f6468c880000000000000000000000000000000000000000033b2e3c9fd0803ce8000000",
        "nonce": "0xe",
        "chainId": "0xde9fb"
      },
      "additionalContracts": [],
      "isFixedGasLimit": false
    },
    {
      "hash": null,
      "transactionType": "CREATE",
      "contractName": "Faucet",
      "contractAddress": "0x44338ece533c54b79e40594688978ba74c4c0ef7",
      "function": null,
      "arguments": null,
      "transaction": {
        "from": "0x7f45c0fc722b04b7278476c8ed283297f6468c88",
        "gas": "0xbc08e",
        "value": "0x0",
        "input": "0x608060405260006002556000600355348015601957600080fd5b50600080546001600160a01b031916331790556109448061003b6000396000f3fe608060405234801561001057600080fd5b50600436106100f55760003560e01c80637e36320b11610097578063ad64d06811610066578063ad64d068146101cc578063c8a6e9c3146101df578063d48bfca7146101e7578063fd645079146101fa57600080fd5b80637e36320b1461017c5780637f2e06e3146101855780638da5cb5b146101985780639c281430146101c357600080fd5b8063338b5dea116100d3578063338b5dea1461012e578063394f6181146101415780636438377e146101615780636c9230db1461017657600080fd5b8063140e7563146100fa578063218e4a151461010f5780632db4cd8b14610126575b600080fd5b61010d6101083660046107ba565b61020d565b005b6003545b6040519081526020015b60405180910390f35b61011361027c565b61010d61013c3660046107ef565b61029f565b61011361014f366004610819565b60046020526000908152604090205481565b33600090815260046020526040902054610113565b42610113565b61011360035481565b61010d61019336600461083b565b610498565b6000546101ab906001600160a01b031681565b6040516001600160a01b03909116815260200161011d565b61011360025481565b6101ab6101da3660046107ba565b6105fa565b600154610113565b61010d6101f5366004610819565b610624565b61010d6102083660046107ba565b61075b565b6000546001600160a01b031633146102405760405162461bcd60e51b81526004016102379061086e565b60405180910390fd5b60028190556040518181527fc2f11a8db3f5cc9fa21d683ff3a0cc4152a4ee8a9b29ad567bd781fc02d0b5e3906020015b60405180910390a150565b60035433600090815260046020526040812054909161029a916108af565b905090565b600081116102ef5760405162461bcd60e51b815260206004820152601d60248201527f416d6f756e74206d7573742062652067726561746572207468616e20300000006044820152606401610237565b6000805b6001548110156103405760018181548110610310576103106108d6565b6000918252602090912001546001600160a01b03908116908516036103385760019150610340565b6001016102f3565b508061038e5760405162461bcd60e51b815260206004820152601d60248201527f546f6b656e206e6f7420737570706f72746564206279206661756365740000006044820152606401610237565b6040516323b872dd60e01b8152336004820152306024820152604481018390526000906001600160a01b038516906323b872dd906064016020604051808303816000875af11580156103e4573d6000803e3d6000fd5b505050506040513d601f19601f8201168201806040525081019061040891906108ec565b9050806104495760405162461bcd60e51b815260206004820152600f60248201526e151c985b9cd9995c8819985a5b1959608a1b6044820152606401610237565b604080513381526001600160a01b03861660208201529081018490527f4b3f81827ede20c81afbf1bb77b954afcdcae24d391d99042310cb1d9210dd579060600160405180910390a150505050565b60025460405163a9059cbb60e01b81526001600160a01b038481166004830152602482019290925260009183169063a9059cbb906044016020604051808303816000875af11580156104ee573d6000803e3d6000fd5b505050506040513d601f19601f8201168201806040525081019061051291906108ec565b90508061057c5760405162461bcd60e51b815260206004820152603260248201527f546865207472616e736665722070726f6365737320646f65736e2774206578656044820152716375746564207375636365737366756c6c7960701b6064820152608401610237565b60035461058990426108af565b33600081815260046020526040908190209290925590517f93eefe371f8974939e82597a88552b3500c8caf593cb436dfffac7e3f95acaa1916105ed91869086906001600160a01b0393841681529183166020830152909116604082015260600190565b60405180910390a1505050565b6001818154811061060a57600080fd5b6000918252602090912001546001600160a01b0316905081565b6000546001600160a01b0316331461064e5760405162461bcd60e51b81526004016102379061086e565b60005b6001548110156106dd576001818154811061066e5761066e6108d6565b6000918252602090912001546001600160a01b03908116908316036106d55760405162461bcd60e51b815260206004820152601b60248201527f54686520746f6b656e2068617320616c726561647920657869737400000000006044820152606401610237565b600101610651565b506001805480820182556000919091527fb10e2d527612073b26eecdfd717e6a320cf44b4afac2b0732d9fcbe2b7fa0cf60180546001600160a01b0319166001600160a01b0383169081179091556040519081527fe473c74f34be27c1464d6624f14a0d7fd4e301cbfa29c3eba425d378c8a7ebe090602001610271565b6000546001600160a01b031633146107855760405162461bcd60e51b81526004016102379061086e565b60038190556040518181527f853d44c603076a8a9813ec1708c300b754cbe958fa0bbd601409371a0d815db290602001610271565b6000602082840312156107cc57600080fd5b5035919050565b80356001600160a01b03811681146107ea57600080fd5b919050565b6000806040838503121561080257600080fd5b61080b836107d3565b946020939093013593505050565b60006020828403121561082b57600080fd5b610834826107d3565b9392505050565b6000806040838503121561084e57600080fd5b610857836107d3565b9150610865602084016107d3565b90509250929050565b60208082526021908201527f4f6e6c79206f776e65722063616e20696e766f6b652074686973206d6574686f6040820152601960fa1b606082015260800190565b808201808211156108d057634e487b7160e01b600052601160045260246000fd5b92915050565b634e487b7160e01b600052603260045260246000fd5b6000602082840312156108fe57600080fd5b8151801515811461083457600080fdfea26469706673582212203f642985c3bb0799df98b3452de074f346f7615ed27a232ecdfeeb55aa0c4ae964736f6c634300081c0033",
        "nonce": "0xf",
        "chainId": "0xde9fb"
      },
      "additionalContracts": [],
      "isFixedGasLimit": false
    },
    {
      "hash": null,
      "transactionType": "CALL",
      "contractName": "Faucet",
      "contractAddress": "0x44338ece533c54b79e40594688978ba74c4c0ef7",
      "function": "addToken(address)",
      "arguments": [
        "0x3f3d7801596172CbF36de714E13984A742673264"
      ],
      "transaction": {
        "from": "0x7f45c0fc722b04b7278476c8ed283297f6468c88",
        "to": "0x44338ece533c54b79e40594688978ba74c4c0ef7",
        "gas": "0x18cb6",
        "value": "0x0",
        "input": "0xd48bfca70000000000000000000000003f3d7801596172cbf36de714e13984a742673264",
        "nonce": "0x10",
        "chainId": "0xde9fb"
      },
      "additionalContracts": [],
      "isFixedGasLimit": false
    },
    {
      "hash": null,
      "transactionType": "CALL",
      "contractName": "Faucet",
      "contractAddress": "0x44338ece533c54b79e40594688978ba74c4c0ef7",
      "function": "addToken(address)",
      "arguments": [
        "0x9743660aB965B4CEAF088163Eb2FB6De09D5B50B"
      ],
      "transaction": {
        "from": "0x7f45c0fc722b04b7278476c8ed283297f6468c88",
        "to": "0x44338ece533c54b79e40594688978ba74c4c0ef7",
        "gas": "0x127cd",
        "value": "0x0",
        "input": "0xd48bfca70000000000000000000000009743660ab965b4ceaf088163eb2fb6de09d5b50b",
        "nonce": "0x11",
        "chainId": "0xde9fb"
      },
      "additionalContracts": [],
      "isFixedGasLimit": false
    },
    {
      "hash": null,
      "transactionType": "CALL",
      "contractName": "IDRT",
      "contractAddress": "0x3f3d7801596172cbf36de714e13984a742673264",
      "function": "mint(address,uint256)",
      "arguments": [
        "0x44338ece533C54B79E40594688978BA74C4C0Ef7",
        "100000000000000000000"
      ],
      "transaction": {
        "from": "0x7f45c0fc722b04b7278476c8ed283297f6468c88",
        "to": "0x3f3d7801596172cbf36de714e13984a742673264",
        "gas": "0x1392c",
        "value": "0x0",
        "input": "0x40c10f1900000000000000000000000044338ece533c54b79e40594688978ba74c4c0ef70000000000000000000000000000000000000000000000056bc75e2d63100000",
        "nonce": "0x12",
        "chainId": "0xde9fb"
      },
      "additionalContracts": [],
      "isFixedGasLimit": false
    },
    {
      "hash": null,
      "transactionType": "CALL",
      "contractName": "USDT",
      "contractAddress": "0x9743660ab965b4ceaf088163eb2fb6de09d5b50b",
      "function": "mint(address,uint256)",
      "arguments": [
        "0x44338ece533C54B79E40594688978BA74C4C0Ef7",
        "100000000000000000000"
      ],
      "transaction": {
        "from": "0x7f45c0fc722b04b7278476c8ed283297f6468c88",
        "to": "0x9743660ab965b4ceaf088163eb2fb6de09d5b50b",
        "gas": "0x1392c",
        "value": "0x0",
        "input": "0x40c10f1900000000000000000000000044338ece533c54b79e40594688978ba74c4c0ef70000000000000000000000000000000000000000000000056bc75e2d63100000",
        "nonce": "0x13",
        "chainId": "0xde9fb"
      },
      "additionalContracts": [],
      "isFixedGasLimit": false
    },
    {
      "hash": null,
      "transactionType": "CALL",
      "contractName": "Faucet",
      "contractAddress": "0x44338ece533c54b79e40594688978ba74c4c0ef7",
      "function": "updateFaucetAmount(uint256)",
      "arguments": [
        "1000000000000"
      ],
      "transaction": {
        "from": "0x7f45c0fc722b04b7278476c8ed283297f6468c88",
        "to": "0x44338ece533c54b79e40594688978ba74c4c0ef7",
        "gas": "0x10b53",
        "value": "0x0",
        "input": "0x140e7563000000000000000000000000000000000000000000000000000000e8d4a51000",
        "nonce": "0x14",
        "chainId": "0xde9fb"
      },
      "additionalContracts": [],
      "isFixedGasLimit": false
    },
    {
      "hash": null,
      "transactionType": "CALL",
      "contractName": "Faucet",
      "contractAddress": "0x44338ece533c54b79e40594688978ba74c4c0ef7",
      "function": "updateFaucetCooldown(uint256)",
      "arguments": [
        "1"
      ],
      "transaction": {
        "from": "0x7f45c0fc722b04b7278476c8ed283297f6468c88",
        "to": "0x44338ece533c54b79e40594688978ba74c4c0ef7",
        "gas": "0x10b8d",
        "value": "0x0",
        "input": "0xfd6450790000000000000000000000000000000000000000000000000000000000000001",
        "nonce": "0x15",
        "chainId": "0xde9fb"
      },
      "additionalContracts": [],
      "isFixedGasLimit": false
    },
    {
      "hash": null,
      "transactionType": "CALL",
      "contractName": "IDRT",
      "contractAddress": "0x3f3d7801596172cbf36de714e13984a742673264",
      "function": "mint(address,uint256)",
      "arguments": [
        "0x5b73C5498c1E3b4dbA84de0F1833c4a029d90519",
        "1000000000000000000000"
      ],
      "transaction": {
        "from": "0x7f45c0fc722b04b7278476c8ed283297f6468c88",
        "to": "0x3f3d7801596172cbf36de714e13984a742673264",
        "gas": "0x1392c",
        "value": "0x0",
        "input": "0x40c10f190000000000000000000000005b73c5498c1e3b4dba84de0f1833c4a029d9051900000000000000000000000000000000000000000000003635c9adc5dea00000",
        "nonce": "0x16",
        "chainId": "0xde9fb"
      },
      "additionalContracts": [],
      "isFixedGasLimit": false
    },
    {
      "hash": null,
      "transactionType": "CALL",
      "contractName": "USDT",
      "contractAddress": "0x9743660ab965b4ceaf088163eb2fb6de09d5b50b",
      "function": "mint(address,uint256)",
      "arguments": [
        "0x5b73C5498c1E3b4dbA84de0F1833c4a029d90519",
        "1000000000000000000000"
      ],
      "transaction": {
        "from": "0x7f45c0fc722b04b7278476c8ed283297f6468c88",
        "to": "0x9743660ab965b4ceaf088163eb2fb6de09d5b50b",
        "gas": "0x1392c",
        "value": "0x0",
        "input": "0x40c10f190000000000000000000000005b73c5498c1e3b4dba84de0f1833c4a029d9051900000000000000000000000000000000000000000000003635c9adc5dea00000",
        "nonce": "0x17",
        "chainId": "0xde9fb"
      },
      "additionalContracts": [],
      "isFixedGasLimit": false
    },
    {
      "hash": null,
      "transactionType": "CALL",
      "contractName": "IDRT",
      "contractAddress": "0x3f3d7801596172cbf36de714e13984a742673264",
      "function": "approve(address,uint256)",
      "arguments": [
        "0x44338ece533C54B79E40594688978BA74C4C0Ef7",
        "1000000000000000000000"
      ],
      "transaction": {
        "from": "0x7f45c0fc722b04b7278476c8ed283297f6468c88",
        "to": "0x3f3d7801596172cbf36de714e13984a742673264",
        "gas": "0xfa41",
        "value": "0x0",
        "input": "0x095ea7b300000000000000000000000044338ece533c54b79e40594688978ba74c4c0ef700000000000000000000000000000000000000000000003635c9adc5dea00000",
        "nonce": "0x18",
        "chainId": "0xde9fb"
      },
      "additionalContracts": [],
      "isFixedGasLimit": false
    },
    {
      "hash": null,
      "transactionType": "CALL",
      "contractName": "USDT",
      "contractAddress": "0x9743660ab965b4ceaf088163eb2fb6de09d5b50b",
      "function": "approve(address,uint256)",
      "arguments": [
        "0x44338ece533C54B79E40594688978BA74C4C0Ef7",
        "1000000000000000000000"
      ],
      "transaction": {
        "from": "0x7f45c0fc722b04b7278476c8ed283297f6468c88",
        "to": "0x9743660ab965b4ceaf088163eb2fb6de09d5b50b",
        "gas": "0xfa41",
        "value": "0x0",
        "input": "0x095ea7b300000000000000000000000044338ece533c54b79e40594688978ba74c4c0ef700000000000000000000000000000000000000000000003635c9adc5dea00000",
        "nonce": "0x19",
        "chainId": "0xde9fb"
      },
      "additionalContracts": [],
      "isFixedGasLimit": false
    },
    {
      "hash": null,
      "transactionType": "CALL",
      "contractName": "Faucet",
      "contractAddress": "0x44338ece533c54b79e40594688978ba74c4c0ef7",
      "function": "depositToken(address,uint256)",
      "arguments": [
        "0x3f3d7801596172CbF36de714E13984A742673264",
        "1000000000000000000000"
      ],
      "transaction": {
        "from": "0x7f45c0fc722b04b7278476c8ed283297f6468c88",
        "to": "0x44338ece533c54b79e40594688978ba74c4c0ef7",
        "gas": "0xf22d",
        "value": "0x0",
        "input": "0x338b5dea0000000000000000000000003f3d7801596172cbf36de714e13984a74267326400000000000000000000000000000000000000000000003635c9adc5dea00000",
        "nonce": "0x1a",
        "chainId": "0xde9fb"
      },
      "additionalContracts": [],
      "isFixedGasLimit": false
    },
    {
      "hash": null,
      "transactionType": "CALL",
      "contractName": "Faucet",
      "contractAddress": "0x44338ece533c54b79e40594688978ba74c4c0ef7",
      "function": "depositToken(address,uint256)",
      "arguments": [
        "0x9743660aB965B4CEAF088163Eb2FB6De09D5B50B",
        "1000000000000000000000"
      ],
      "transaction": {
        "from": "0x7f45c0fc722b04b7278476c8ed283297f6468c88",
        "to": "0x44338ece533c54b79e40594688978ba74c4c0ef7",
        "gas": "0xff91",
        "value": "0x0",
        "input": "0x338b5dea0000000000000000000000009743660ab965b4ceaf088163eb2fb6de09d5b50b00000000000000000000000000000000000000000000003635c9adc5dea00000",
        "nonce": "0x1b",
        "chainId": "0xde9fb"
      },
      "additionalContracts": [],
      "isFixedGasLimit": false
    }
  ],
  "receipts": [],
  "libraries": [],
  "pending": [],
  "returns": {},
  "timestamp": 1738849906,
  "chain": 911867,
  "commit": "af6d710"
}