{
  "transactions": [
    {
      "hash": "0xb067d006d51cc6b48389a0fdc20e467ea65a00f5e3c14d58ec47211dcc5435c1",
      "transactionType": "CALL",
      "contractName": null,
      "contractAddress": "0x8babd1e824a30bdf9986ed73fb2494150ae65a71",
      "function": "mint(address,uint256)",
      "arguments": [
        "0xe2Bc073E0d55274DBa18A0E11463A5DfD16c5057",
        "1000000000000000000000000"
      ],
      "transaction": {
        "from": "0xe2bc073e0d55274dba18a0e11463a5dfd16c5057",
        "to": "0x8babd1e824a30bdf9986ed73fb2494150ae65a71",
        "gas": "0xc15e",
        "value": "0x0",
        "input": "0x40c10f19000000000000000000000000e2bc073e0d55274dba18a0e11463a5dfd16c505700000000000000000000000000000000000000000000d3c21bcecceda1000000",
        "nonce": "0x1daf",
        "chainId": "0x66eee"
      },
      "additionalContracts": [],
      "isFixedGasLimit": false
    },
    {
      "hash": "0xd0fc6678af574d18431d5d35d807f32d112694d5bd68b9003ea535ce7b6af409",
      "transactionType": "CALL",
      "contractName": null,
      "contractAddress": "0x146aa60180a9542bf2675bbefc1e9f4a5406c155",
      "function": "mint(address,uint256)",
      "arguments": [
        "0xe2Bc073E0d55274DBa18A0E11463A5DfD16c5057",
        "1000000000000000000000000"
      ],
      "transaction": {
        "from": "0xe2bc073e0d55274dba18a0e11463a5dfd16c5057",
        "to": "0x146aa60180a9542bf2675bbefc1e9f4a5406c155",
        "gas": "0xc15e",
        "value": "0x0",
        "input": "0x40c10f19000000000000000000000000e2bc073e0d55274dba18a0e11463a5dfd16c505700000000000000000000000000000000000000000000d3c21bcecceda1000000",
        "nonce": "0x1db0",
        "chainId": "0x66eee"
      },
      "additionalContracts": [],
      "isFixedGasLimit": false
    },
    {
      "hash": "0x97694fc28aa8c8f85c799bba4849b77666eb172044852865e5ed253bf864546e",
      "transactionType": "CALL",
      "contractName": null,
      "contractAddress": "0x8babd1e824a30bdf9986ed73fb2494150ae65a71",
      "function": "approve(address,uint256)",
      "arguments": [
        "0xfe40Fc94386E317226ABF64Cbc36F79121a1cb01",
        "1000000000000000000000000"
      ],
      "transaction": {
        "from": "0xe2bc073e0d55274dba18a0e11463a5dfd16c5057",
        "to": "0x8babd1e824a30bdf9986ed73fb2494150ae65a71",
        "gas": "0xed75",
        "value": "0x0",
        "input": "0x095ea7b3000000000000000000000000fe40fc94386e317226abf64cbc36f79121a1cb0100000000000000000000000000000000000000000000d3c21bcecceda1000000",
        "nonce": "0x1db1",
        "chainId": "0x66eee"
      },
      "additionalContracts": [],
      "isFixedGasLimit": false
    },
    {
      "hash": "0x39e48d6d36ba624f6f0dfce3d05d99d5d56173233845e38fcfea024e255292a3",
      "transactionType": "CALL",
      "contractName": null,
      "contractAddress": "0x146aa60180a9542bf2675bbefc1e9f4a5406c155",
      "function": "approve(address,uint256)",
      "arguments": [
        "0xfe40Fc94386E317226ABF64Cbc36F79121a1cb01",
        "1000000000000000000000000"
      ],
      "transaction": {
        "from": "0xe2bc073e0d55274dba18a0e11463a5dfd16c5057",
        "to": "0x146aa60180a9542bf2675bbefc1e9f4a5406c155",
        "gas": "0xed75",
        "value": "0x0",
        "input": "0x095ea7b3000000000000000000000000fe40fc94386e317226abf64cbc36f79121a1cb0100000000000000000000000000000000000000000000d3c21bcecceda1000000",
        "nonce": "0x1db2",
        "chainId": "0x66eee"
      },
      "additionalContracts": [],
      "isFixedGasLimit": false
    },
    {
      "hash": "0xaccd2c72bfbdccfca6f186ccc9de21a8154c3ed7a748875a20d59a6f9af24c83",
      "transactionType": "CALL",
      "contractName": null,
      "contractAddress": "0xfe40fc94386e317226abf64cbc36f79121a1cb01",
      "function": "depositToken(address,uint256)",
      "arguments": [
        "0x8BaBD1E824a30bDf9986eD73Fb2494150ae65A71",
        "1000000000000000000000000"
      ],
      "transaction": {
        "from": "0xe2bc073e0d55274dba18a0e11463a5dfd16c5057",
        "to": "0xfe40fc94386e317226abf64cbc36f79121a1cb01",
        "gas": "0x100af",
        "value": "0x0",
        "input": "0x338b5dea0000000000000000000000008babd1e824a30bdf9986ed73fb2494150ae65a7100000000000000000000000000000000000000000000d3c21bcecceda1000000",
        "nonce": "0x1db3",
        "chainId": "0x66eee"
      },
      "additionalContracts": [],
      "isFixedGasLimit": false
    },
    {
      "hash": "0x3446ce4832edce6e5f9ae41b814b090742bc740681605795e1621216a4987f4c",
      "transactionType": "CALL",
      "contractName": null,
      "contractAddress": "0xfe40fc94386e317226abf64cbc36f79121a1cb01",
      "function": "depositToken(address,uint256)",
      "arguments": [
        "0x146Aa60180A9542BF2675BbEFC1E9F4A5406c155",
        "1000000000000000000000000"
      ],
      "transaction": {
        "from": "0xe2bc073e0d55274dba18a0e11463a5dfd16c5057",
        "to": "0xfe40fc94386e317226abf64cbc36f79121a1cb01",
        "gas": "0xffcf",
        "value": "0x0",
        "input": "0x338b5dea000000000000000000000000146aa60180a9542bf2675bbefc1e9f4a5406c15500000000000000000000000000000000000000000000d3c21bcecceda1000000",
        "nonce": "0x1db4",
        "chainId": "0x66eee"
      },
      "additionalContracts": [],
      "isFixedGasLimit": false
    }
  ],
  "receipts": [
    {
      "status": "0x1",
      "cumulativeGasUsed": "0x9351",
      "logs": [
        {
          "address": "0x8babd1e824a30bdf9986ed73fb2494150ae65a71",
          "topics": [
            "0xddf252ad1be2c89b69c2b068fc378daa952ba7f163c4a11628f55a4df523b3ef",
            "0x0000000000000000000000000000000000000000000000000000000000000000",
            "0x000000000000000000000000e2bc073e0d55274dba18a0e11463a5dfd16c5057"
          ],
          "data": "0x00000000000000000000000000000000000000000000d3c21bcecceda1000000",
          "blockHash": "0x7090fbb3a5925746be147775f0cb482f524ff6f5ccbcda9630f3b8a1639b0009",
          "blockNumber": "0x7682a7c",
          "transactionHash": "0xb067d006d51cc6b48389a0fdc20e467ea65a00f5e3c14d58ec47211dcc5435c1",
          "transactionIndex": "0x1",
          "logIndex": "0x0",
          "removed": false
        },
        {
          "address": "0x8babd1e824a30bdf9986ed73fb2494150ae65a71",
          "topics": [
            "0x0f6798a560793a54c3bcfe86a93cde1e73087d944c0ea20544137d4121396885"
          ],
          "data": "0x000000000000000000000000e2bc073e0d55274dba18a0e11463a5dfd16c505700000000000000000000000000000000000000000000d3c21bcecceda1000000",
          "blockHash": "0x7090fbb3a5925746be147775f0cb482f524ff6f5ccbcda9630f3b8a1639b0009",
          "blockNumber": "0x7682a7c",
          "transactionHash": "0xb067d006d51cc6b48389a0fdc20e467ea65a00f5e3c14d58ec47211dcc5435c1",
          "transactionIndex": "0x1",
          "logIndex": "0x1",
          "removed": false
        }
      ],
      "logsBloom": "0x00000000000000000000000000000000000000000000000000000000000000000000002000000000000000000000000000000000000000000000000000000000000000000020000000000008000000001000000000000000000000000000000000000000020000000000000104000800000000000000400000000010000000000000000000000000000000000000000000000000000000000000000000000000000080000010000000000000000000000000000000000000000000000000000000000002000000000000000000000000000000000000000001000000000020000000000000000000000000000000000000000000000000000000000000000000",
      "type": "0x2",
      "transactionHash": "0xb067d006d51cc6b48389a0fdc20e467ea65a00f5e3c14d58ec47211dcc5435c1",
      "transactionIndex": "0x1",
      "blockHash": "0x7090fbb3a5925746be147775f0cb482f524ff6f5ccbcda9630f3b8a1639b0009",
      "blockNumber": "0x7682a7c",
      "gasUsed": "0x9351",
      "effectiveGasPrice": "0x5f5e100",
      "from": "0xe2bc073e0d55274dba18a0e11463a5dfd16c5057",
      "to": "0x8babd1e824a30bdf9986ed73fb2494150ae65a71",
      "contractAddress": null,
      "gasUsedForL1": "0x0",
      "l1BlockNumber": "0x75c954"
    },
    {
      "status": "0x1",
      "cumulativeGasUsed": "0x9351",
      "logs": [
        {
          "address": "0x146aa60180a9542bf2675bbefc1e9f4a5406c155",
          "topics": [
            "0xddf252ad1be2c89b69c2b068fc378daa952ba7f163c4a11628f55a4df523b3ef",
            "0x0000000000000000000000000000000000000000000000000000000000000000",
            "0x000000000000000000000000e2bc073e0d55274dba18a0e11463a5dfd16c5057"
          ],
          "data": "0x00000000000000000000000000000000000000000000d3c21bcecceda1000000",
          "blockHash": "0xad498cbaa060bda6a5ff057bd63769a240f04fdca057d6cfd493529db2edd6f1",
          "blockNumber": "0x7682a81",
          "transactionHash": "0xd0fc6678af574d18431d5d35d807f32d112694d5bd68b9003ea535ce7b6af409",
          "transactionIndex": "0x1",
          "logIndex": "0x0",
          "removed": false
        },
        {
          "address": "0x146aa60180a9542bf2675bbefc1e9f4a5406c155",
          "topics": [
            "0x0f6798a560793a54c3bcfe86a93cde1e73087d944c0ea20544137d4121396885"
          ],
          "data": "0x000000000000000000000000e2bc073e0d55274dba18a0e11463a5dfd16c505700000000000000000000000000000000000000000000d3c21bcecceda1000000",
          "blockHash": "0xad498cbaa060bda6a5ff057bd63769a240f04fdca057d6cfd493529db2edd6f1",
          "blockNumber": "0x7682a81",
          "transactionHash": "0xd0fc6678af574d18431d5d35d807f32d112694d5bd68b9003ea535ce7b6af409",
          "transactionIndex": "0x1",
          "logIndex": "0x1",
          "removed": false
        }
      ],
      "logsBloom": "0x00000000000000000000000000000000000000000000000000000000000000000000000000000000000000000000000000000040000000000000000000000000000000000020000000000008000000001000000000000000000000000000000000000000020000000000000004000800000000000000400000000010000000000000000000000000000000000000000000000000000000000000000000000000000080000010000000000000000000000000000004000000000000000000000000000002000000000000000000000000000000000000000000000000000020000000000040000000000000000000000000000000000000000000000000000000",
      "type": "0x2",
      "transactionHash": "0xd0fc6678af574d18431d5d35d807f32d112694d5bd68b9003ea535ce7b6af409",
      "transactionIndex": "0x1",
      "blockHash": "0xad498cbaa060bda6a5ff057bd63769a240f04fdca057d6cfd493529db2edd6f1",
      "blockNumber": "0x7682a81",
      "gasUsed": "0x9351",
      "effectiveGasPrice": "0x5f5e100",
      "from": "0xe2bc073e0d55274dba18a0e11463a5dfd16c5057",
      "to": "0x146aa60180a9542bf2675bbefc1e9f4a5406c155",
      "contractAddress": null,
      "gasUsedForL1": "0x0",
      "l1BlockNumber": "0x75c954",
      "timeboosted": false
    },
    {
      "status": "0x1",
      "cumulativeGasUsed": "0xb52a",
      "logs": [
        {
          "address": "0x8babd1e824a30bdf9986ed73fb2494150ae65a71",
          "topics": [
            "0x8c5be1e5ebec7d5bd14f71427d1e84f3dd0314c0f7b2291e5b200ac8c7c3b925",
            "0x000000000000000000000000e2bc073e0d55274dba18a0e11463a5dfd16c5057",
            "0x000000000000000000000000fe40fc94386e317226abf64cbc36f79121a1cb01"
          ],
          "data": "0x00000000000000000000000000000000000000000000d3c21bcecceda1000000",
          "blockHash": "0x0b0d9c06b42aa1ba63821591ed1c6bc85b583a4a37427e7391fd39a113bbbe6e",
          "blockNumber": "0x7682a85",
          "transactionHash": "0x97694fc28aa8c8f85c799bba4849b77666eb172044852865e5ed253bf864546e",
          "transactionIndex": "0x1",
          "logIndex": "0x0",
          "removed": false
        }
      ],
      "logsBloom": "0x00000000000000000000000000001000000000000000000000000000000000000000002000000000000000000000000000000000000000000000000000200020000000000000000000000000000000001000000000000000000000000000000000000000000000000000000104000000000000000000000000000000000000000000000000000000000000000000000000000000000000000000000000000000020000000010000000000000000000000000000000000000000000000000000000000000000000400000000000000000000000000000000001000000000000000010000000000000000000000000000000000000000000000000000000000000",
      "type": "0x2",
      "transactionHash": "0x97694fc28aa8c8f85c799bba4849b77666eb172044852865e5ed253bf864546e",
      "transactionIndex": "0x1",
      "blockHash": "0x0b0d9c06b42aa1ba63821591ed1c6bc85b583a4a37427e7391fd39a113bbbe6e",
      "blockNumber": "0x7682a85",
      "gasUsed": "0xb52a",
      "effectiveGasPrice": "0x5f5e100",
      "from": "0xe2bc073e0d55274dba18a0e11463a5dfd16c5057",
      "to": "0x8babd1e824a30bdf9986ed73fb2494150ae65a71",
      "contractAddress": null,
      "gasUsedForL1": "0x0",
      "l1BlockNumber": "0x75c954",
      "timeboosted": false
    },
    {
      "status": "0x1",
      "cumulativeGasUsed": "0xb52a",
      "logs": [
        {
          "address": "0x146aa60180a9542bf2675bbefc1e9f4a5406c155",
          "topics": [
            "0x8c5be1e5ebec7d5bd14f71427d1e84f3dd0314c0f7b2291e5b200ac8c7c3b925",
            "0x000000000000000000000000e2bc073e0d55274dba18a0e11463a5dfd16c5057",
            "0x000000000000000000000000fe40fc94386e317226abf64cbc36f79121a1cb01"
          ],
          "data": "0x00000000000000000000000000000000000000000000d3c21bcecceda1000000",
          "blockHash": "0x4d215ff06cda481db4d5eccf3c240eacae70b4713ec4bb3a9efca92731501cd5",
          "blockNumber": "0x7682a8a",
          "transactionHash": "0x39e48d6d36ba624f6f0dfce3d05d99d5d56173233845e38fcfea024e255292a3",
          "transactionIndex": "0x1",
          "logIndex": "0x0",
          "removed": false
        }
      ],
      "logsBloom": "0x00000000000000000000000000001000000000000000000000000000000000000000000000000000000000000000000000000040000000000000000000200020000000000000000000000000000000001000000000000000000000000000000000000000000000000000000004000000000000000000000000000000000000000000000000000000000000000000000000000000000000000000000000000000020000000010000000000000000000000000000004000000000000000000000000000000000000400000000000000000000000000000000000000000000000000010000040000000000000000000000000000000000000000000000000000000",
      "type": "0x2",
      "transactionHash": "0x39e48d6d36ba624f6f0dfce3d05d99d5d56173233845e38fcfea024e255292a3",
      "transactionIndex": "0x1",
      "blockHash": "0x4d215ff06cda481db4d5eccf3c240eacae70b4713ec4bb3a9efca92731501cd5",
      "blockNumber": "0x7682a8a",
      "gasUsed": "0xb52a",
      "effectiveGasPrice": "0x5f5e100",
      "from": "0xe2bc073e0d55274dba18a0e11463a5dfd16c5057",
      "to": "0x146aa60180a9542bf2675bbefc1e9f4a5406c155",
      "contractAddress": null,
      "gasUsedForL1": "0x0",
      "l1BlockNumber": "0x75c954",
      "timeboosted": false
    },
    {
      "status": "0x1",
      "cumulativeGasUsed": "0xaf83",
      "logs": [
        {
          "address": "0x8babd1e824a30bdf9986ed73fb2494150ae65a71",
          "topics": [
            "0xddf252ad1be2c89b69c2b068fc378daa952ba7f163c4a11628f55a4df523b3ef",
            "0x000000000000000000000000e2bc073e0d55274dba18a0e11463a5dfd16c5057",
            "0x000000000000000000000000fe40fc94386e317226abf64cbc36f79121a1cb01"
          ],
          "data": "0x00000000000000000000000000000000000000000000d3c21bcecceda1000000",
          "blockHash": "0x14581e3af3b608e508c056a58c23614b9a07a0d5317c66e8fe2f459ecb24c3bc",
          "blockNumber": "0x7682a8e",
          "transactionHash": "0xaccd2c72bfbdccfca6f186ccc9de21a8154c3ed7a748875a20d59a6f9af24c83",
          "transactionIndex": "0x1",
          "logIndex": "0x0",
          "removed": false
        },
        {
          "address": "0xfe40fc94386e317226abf64cbc36f79121a1cb01",
          "topics": [
            "0x4b3f81827ede20c81afbf1bb77b954afcdcae24d391d99042310cb1d9210dd57"
          ],
          "data": "0x000000000000000000000000e2bc073e0d55274dba18a0e11463a5dfd16c50570000000000000000000000008babd1e824a30bdf9986ed73fb2494150ae65a7100000000000000000000000000000000000000000000d3c21bcecceda1000000",
          "blockHash": "0x14581e3af3b608e508c056a58c23614b9a07a0d5317c66e8fe2f459ecb24c3bc",
          "blockNumber": "0x7682a8e",
          "transactionHash": "0xaccd2c72bfbdccfca6f186ccc9de21a8154c3ed7a748875a20d59a6f9af24c83",
          "transactionIndex": "0x1",
          "logIndex": "0x1",
          "removed": false
        }
      ],
      "logsBloom": "0x00000000000000000000000000001000000000000000000000000000000000000000002000000000000000000000000000000000000000010000000001000020000000000000000000000008000000801000000000000000000000000000080000000000000000000000000104000000000000000000000000000010000000000000000000000000000000000000000000400000000000000000000000000000000000000010000000000000000000000000000020000000000000000000000000000002000000400000000000000000000000000000000001000000000000000000000000000000000000000000000000000000000000000000000000000000",
      "type": "0x2",
      "transactionHash": "0xaccd2c72bfbdccfca6f186ccc9de21a8154c3ed7a748875a20d59a6f9af24c83",
      "transactionIndex": "0x1",
      "blockHash": "0x14581e3af3b608e508c056a58c23614b9a07a0d5317c66e8fe2f459ecb24c3bc",
      "blockNumber": "0x7682a8e",
      "gasUsed": "0xaf83",
      "effectiveGasPrice": "0x5f5e100",
      "from": "0xe2bc073e0d55274dba18a0e11463a5dfd16c5057",
      "to": "0xfe40fc94386e317226abf64cbc36f79121a1cb01",
      "contractAddress": null,
      "gasUsedForL1": "0x0",
      "l1BlockNumber": "0x75c954"
    },
    {
      "status": "0x1",
      "cumulativeGasUsed": "0xb934",
      "logs": [
        {
          "address": "0x146aa60180a9542bf2675bbefc1e9f4a5406c155",
          "topics": [
            "0xddf252ad1be2c89b69c2b068fc378daa952ba7f163c4a11628f55a4df523b3ef",
            "0x000000000000000000000000e2bc073e0d55274dba18a0e11463a5dfd16c5057",
            "0x000000000000000000000000fe40fc94386e317226abf64cbc36f79121a1cb01"
          ],
          "data": "0x00000000000000000000000000000000000000000000d3c21bcecceda1000000",
          "blockHash": "0x9ec472ea3ceeaa3117fa0e52e5d9f77ac06d19748c471fc89cca1bd0d658722f",
          "blockNumber": "0x7682a94",
          "transactionHash": "0x3446ce4832edce6e5f9ae41b814b090742bc740681605795e1621216a4987f4c",
          "transactionIndex": "0x1",
          "logIndex": "0x0",
          "removed": false
        },
        {
          "address": "0xfe40fc94386e317226abf64cbc36f79121a1cb01",
          "topics": [
            "0x4b3f81827ede20c81afbf1bb77b954afcdcae24d391d99042310cb1d9210dd57"
          ],
          "data": "0x000000000000000000000000e2bc073e0d55274dba18a0e11463a5dfd16c5057000000000000000000000000146aa60180a9542bf2675bbefc1e9f4a5406c15500000000000000000000000000000000000000000000d3c21bcecceda1000000",
          "blockHash": "0x9ec472ea3ceeaa3117fa0e52e5d9f77ac06d19748c471fc89cca1bd0d658722f",
          "blockNumber": "0x7682a94",
          "transactionHash": "0x3446ce4832edce6e5f9ae41b814b090742bc740681605795e1621216a4987f4c",
          "transactionIndex": "0x1",
          "logIndex": "0x1",
          "removed": false
        }
      ],
      "logsBloom": "0x00000000000000000000000000001000000000000000000000000000000000000000000000000000000000000000000000000040000000010000000001000020000000000000000000000008000000801000000000000000000000000000080000000000000000000000000004000000000000000000000000000010000000000000000000000000000000000000000000400000000000000000000000000000000000000010000000000000000000000000000024000000000000000000000000000002000000400000000000000000000000000000000000000000000000000000000040000000000000000000000000000000000000000000000000000000",
      "type": "0x2",
      "transactionHash": "0x3446ce4832edce6e5f9ae41b814b090742bc740681605795e1621216a4987f4c",
      "transactionIndex": "0x1",
      "blockHash": "0x9ec472ea3ceeaa3117fa0e52e5d9f77ac06d19748c471fc89cca1bd0d658722f",
      "blockNumber": "0x7682a94",
      "gasUsed": "0xb934",
      "effectiveGasPrice": "0x5f5e100",
      "from": "0xe2bc073e0d55274dba18a0e11463a5dfd16c5057",
      "to": "0xfe40fc94386e317226abf64cbc36f79121a1cb01",
      "contractAddress": null,
      "gasUsedForL1": "0x0",
      "l1BlockNumber": "0x75c954",
      "timeboosted": false
    }
  ],
  "libraries": [],
  "pending": [],
  "returns": {},
  "timestamp": 1739700980,
  "chain": 421614,
  "commit": "408565d"
}